:020000040000FA
:100000000C946C000C946A100C9443100C949400A3
:100010000C9494000C9494000C9494000C94940010
:100020000C9494000C9494000C9494000C94940000
:100030000C9494000C9494000C9494000C949400F0
:100040000C94F90F0C9494000C94B7100C9491102C
:100050000C9494000C9494000C9494000C949400D0
:100060000C9494000C949400467269737420426F4F
:100070006F740000000000240027002A0000000028
:1000800000250028002B0000000000230026002986
:100090000004040404040404040202020202020331
:1000A000030303030302020301020408102040803B
:1000B00001020408102001020408102040804000C2
:1000C0000000090003020000040508000000000011
:1000D000000000000000E91011241FBECFEFD8E09F
:1000E000DEBFCDBF27E0ACE1B6E001C01D92A73472
:1000F000B207E1F716E0A0E0B1E0ECE4FAE402C0F8
:1001000005900D92AC31B107D9F710E0CCE6D0E004
:1001100004C02197FE010E941823CB36D107C9F7EE
:100120000E9466110C9424250C9400008CBD9DBD8A
:100130000895843081F028F48230E9F08330F9F0BA
:100140000895883071F0893091F08530B9F480914C
:1001500080008F7D03C0809180008F778093800026
:1001600008958091B0008F778093B00008958091BA
:10017000B0008F7DF9CF84B58F7784BD089584B5A5
:100180008F7DFBCFCF93DF93282F30E0F901E1542F
:10019000FF4F8491F901E855FF4FD491F901EF56D3
:1001A000FF4FC491CC23A1F081110E949900EC2F44
:1001B000F0E0EE0FFF1FE957FF4FA591B491EC91CE
:1001C000ED2381E090E009F480E0DF91CF91089584
:1001D00080E090E0FACF1F93CF93DF93282F30E099
:1001E000F901E154FF4F8491F901E855FF4FD49193
:1001F000F901EF56FF4FC491CC23A9F0162F8111BE
:100200000E949900EC2FF0E0EE0FFF1FE358FF4F24
:10021000A591B4918FB7F894EC91111108C0D095C5
:10022000DE23DC938FBFDF91CF911F910895DE2BEA
:10023000F8CFCF93DF9390E0FC01E855FF4F249176
:100240008F569F4FFC0184918823C9F090E0880F5E
:10025000991FFC01ED58FF4FA591B491FC01E358A3
:10026000FF4FC591D49161110DC09FB7F8948C9147
:10027000209582238C938881282328839FBFDF9138
:10028000CF910895623051F49FB7F8943C91822F3A
:10029000809583238C93E8812E2BEFCF8FB7F89432
:1002A000EC912E2B2C938FBFEACF8130910539F042
:1002B000880F991F880F991F05970197F1F70895E7
:1002C0003FB7F8948091480690914906A0914A065C
:1002D000B0914B0626B5A89B05C02F3F19F001969B
:1002E000A11DB11D3FBFBA2FA92F982F8827BC0190
:1002F000CD01620F711D811D911D42E0660F771FB8
:10030000881F991F4A95D1F708958F929F92AF92B7
:10031000BF92CF92DF92EF92FF926B017C010E941D
:1003200060014B015C01C114D104E104F104B9F096
:100330000E946001681979098A099B09683E734027
:100340008105910580F321E0C21AD108E108F10886
:1003500088EE880E83E0981EA11CB11CE4CFFF90AC
:10036000EF90DF90CF90BF90AF909F908F900895C7
:100370002FB7F89460914406709145068091460627
:10038000909147062FBF08950895DB0114964D9173
:100390005C9115976D917C91DC01ED91FC9102804F
:1003A000F381E02D0994AF92BF92CF92DF92EF924A
:1003B000FF920F931F93CF93DF936C017B018B010F
:1003C000040F151FEB015E01AE18BF08C017D1075F
:1003D00059F06991D601ED91FC910190F081E02DE9
:1003E000C6010995892B79F7C501DF91CF911F913E
:1003F0000F91FF90EF90DF90CF90BF90AF90089556
:10040000FC01538D448D252F30E0842F90E0821B1A
:10041000930B541710F0CF96089501970895FC019F
:10042000918D828D981761F0A28DAE0FBF2FB11DF7
:100430005D968C91928D9F5F9F73928F90E008954F
:100440008FEF9FEF0895FC01918D828D981731F009
:10045000828DE80FF11D858D90E008958FEF9FEF5D
:100460000895FC01918D228D892F90E0805C9F4F33
:10047000821B91098F739927089582E696E00E9466
:10048000310221E0892B09F420E0822F089580E0D9
:1004900090E0892B29F00E943D0281110C9400000C
:1004A0000895FC01A48DA80FB92FB11DA35ABF4F09
:1004B0002C91848D90E001968F739927848FA68963
:1004C000B7892C93A089B1898C91837080648C93B7
:1004D000938D848D981306C00288F389E02D808166
:1004E0008F7D80830895EF92FF920F931F93CF9398
:1004F000DF93EC0181E0888F9B8D8C8D98131AC05F
:10050000E889F989808185FF15C09FB7F894EE8945
:10051000FF896083E889F9898081837080648083A2
:100520009FBF81E090E0DF91CF911F910F91FF90ED
:10053000EF900895F62E0B8D10E00F5F1F4F0F7395
:100540001127E02E8C8D8E110CC00FB607FCFACF50
:10055000E889F989808185FFF5CFCE010E9451029B
:10056000F1CFEB8DEC0FFD2FF11DE35AFF4FF08221
:100570009FB7F8940B8FEA89FB8980818062CFCF87
:10058000CF93DF93EC01888D8823B9F0AA89BB89CA
:10059000E889F9898C9185FD03C0808186FD0DC0B5
:1005A0000FB607FCF7CF8C9185FFF2CF808185FFD6
:1005B000EDCFCE010E945102E9CFDF91CF91089596
:1005C000CF93DF93EC0160E08E810E94EB0081E02D
:1005D00090E00E94550161E08E810E94EB0081E075
:1005E00090E00E94550160E08E810E94EB0084E65D
:1005F00090E0DF91CF910C945501CF92DF92EF9272
:10060000FF920F931F93CF93DF936C017C0187E0E0
:10061000E80EF11CD0E0C0E0062F10E0B8010C2E6F
:1006200002C0759567950A94E2F76170F7018191B0
:100630007F010E94EB002196C430D10579F7C601F5
:10064000DF91CF911F910F91FF90EF90DF90CF90AE
:100650000C94E002CF92DF92EF92FF920F931F93E0
:10066000CF93DF93EC01F62E642F8C810E94EB0078
:100670008D818F3F19F060E00E94EB000F2D10E09C
:100680008F8584FF25C06E0187E0C80ED11CF12C38
:10069000E12CB8010E2C02C0759567950A94E2F71B
:1006A0006170F60181916F010E94EB00FFEFEF1A7C
:1006B000FF0A88E0E816F10461F7CE01DF91CF91DF
:1006C0001F910F91FF90EF90DF90CF900C94E0027C
:1006D000B80184E0759567958A95E1F7CE010E948F
:1006E000FD026F2DCE01DF91CF911F910F91FF90F1
:1006F000EF90DF90CF900C94FD0240E0682F87E1EF
:1007000097E00C942A0381E00E947D0380ED97E03E
:100710000C945501CF93DF93823029F490912607F2
:1007200098609093260780932A0710922B0780E405
:1007300080932C0780E180932D0780E580932E071E
:1007400061E080911B070E94190180911C078F3F77
:1007500019F061E00E94190161E080911D070E947B
:100760001901C7E1D7E09E01275137408091260744
:1007700084FD0BC084E090E021962817390744F4EB
:1007800061E08E810E941901EECF88E090E0F4CF05
:1007900080E593EC0E94550160E080911B070E9468
:1007A000EB0060E080911D070E94EB0080911C0728
:1007B0008F3F19F060E00E94EB008091260784FDD6
:1007C00035C063E087E197E00E94FD0284E991E192
:1007D0000E94550163E087E197E00E94FD0284E9F1
:1007E00091E10E94550163E087E197E00E94FD02DC
:1007F00086E990E00E94550162E087E197E00E945F
:10080000FD028091260780620E947D0384E0809330
:1008100027078CE00E947D030E94830382E080937F
:10082000280786E0DF91CF910C947D0380620E94BF
:100830007D0384E991E10E94550180912607806241
:100840000E947D0386E990E00E9455018091260771
:1008500080620E947D03D5CF90912A07691710F01E
:100860006FEF690FE62FF0E0E95EF84F9489890F8A
:1008700080680C947D0341E00E942A0381E090E0AF
:100880000895089590E080E00895BC016E5F7F4F69
:10089000DC01ED91FC910190F081E02D40E00995A3
:1008A00091E0811190E0892F089508958EBD000098
:1008B0000DB407FEFDCF8EB50895DF92EF92FF9243
:1008C0000F931F93CF93DF937C01062FD42E152F08
:1008D00080E590E00E94960060E0F70186850E9426
:1008E000EB0082E10E945604CD2DD12F0C0F1D2F5D
:1008F000111DC017D10721F089910E945604F9CF2C
:1009000061E0F7018685DF91CF911F910F91FF90F4
:10091000EF90DF900C94EB001F93CF93DF93EC01EB
:10092000162F80E590E00E94960060E08E850E9480
:10093000EB00812F80680E94560480E00E945604DC
:10094000182F61E08E850E94EB00812FDF91CF91FF
:100950001F9108950F931F93CF93DF93EC01062F00
:10096000142F80E590E00E94960060E08E850E9442
:10097000EB00802F0E945604812F0E94560461E0F4
:100980008E85DF91CF911F910F910C94EB00CF9248
:10099000DF92EF92FF920F931F93CF93DF93EC01BF
:1009A0006B01F42E890140E062E00E94AA0444E059
:1009B0006AE0CE010E94AA0440E864E1CE010E94F0
:1009C000AA04A6016F2DCE010E945D0443E062E0FF
:1009D000CE010E94AA040E94B8016B017C0129E5A6
:1009E000C20ED11CE11CF11C6AE0CE010E948C04F5
:1009F00082FF1BC040E062E0CE010E94AA0464E4D2
:100A0000CE010E948C04F801808362E4CE010E9432
:100A10008C04F801818380E0DF91CF911F910F91C9
:100A2000FF90EF90DF90CF9008950E94B8016C1571
:100A30007D058E059F05C0F283E0EECF2F923F9299
:100A40004F925F926F927F928F929F92AF92BF92DE
:100A5000CF92DF92EF92FF920F931F93CF93DF938A
:100A600000D0CDB7DEB73C01162F942E290180E0CF
:100A7000A114B10411F0F5018081382C329490EF6B
:100A80003922380E40E062E0C3010E94AA044FE719
:100A900068E0C3010E94AA0440E864E1C3010E9427
:100AA000AA04A201602FC3010E945D04432D6AE1E4
:100AB000C3010E94AA04412F62E0C3010E94AA045C
:100AC0001C3051F46AE1C3010E948C04482F406835
:100AD0006AE1C3010E94AA040E94B8011B012C0113
:100AE000F4E22F0E311C411C511C68E0C3010E942E
:100AF0008C04982F992109F0B6C080FF16C083E0BE
:100B00000F900F90DF91CF911F910F91FF90EF9079
:100B1000DF90CF90BF90AF909F908F907F906F901D
:100B20005F904F903F902F9008950E94B8016215FA
:100B3000730584059505C8F2E2CFE114F10409F4C8
:100B400067C0C114D10409F463C064E1C3010E9409
:100B50008C04982EF6018081891508F47EC090825D
:100B60009920C9F180E590E00E94960060E0F301D1
:100B700086850E94EB009A9482E90E9456048820A0
:100B800099F00FEF10E001C0000F8A94EAF782E9B4
:100B90000E945604902F9095F70120819223802384
:100BA000982B9083882483948701080D111D891444
:100BB00040F482E90E945604F80181938F018394E6
:100BC000F6CF80E00E945604F801808361E0F301D3
:100BD00086850E94EB0068E1C3010E948C04877047
:100BE000A114B10411F0F501808353FC38C0E11465
:100BF000F104B9F1C114D104A1F19F89992389F1BC
:100C0000F6014081413031F4843029F58FEF78CFFF
:100C100080E0EBCF4230F8F081111DC042509E01C0
:100C20002F5F3F4FB701C3010E94C704811168CFF6
:100C3000F6019081E90EF11CF7013297208199812C
:100C4000291309C0F1E0EF1AF108F70120819A8118
:100C5000291709F455CF87E053CF84E051CF82E0C4
:100C60004FCF80E04DCF6CE0C3010E948C04582E22
:100C7000837109F462CF81E043CF8F92AF92BF922C
:100C8000CF92DF92EF92FF920F93CF93DF93CDB786
:100C9000DEB72C970FB6F894DEBF0FBECDBF8983A9
:100CA0006A83ECE5F6E0DE01139681918D9386E090
:100CB000E236F807D1F7E0913107E150FF0BE15D33
:100CC000F84FDE011996CE010D9621912D93A817AC
:100CD000B907D9F71F92812CB12CA12CD12CC12C92
:100CE000F12CE12C0CE09E012F5F3F4F40E16EE0C4
:100CF0008FE297E00E941E050F902C960FB6F89495
:100D0000DEBF0FBECDBFDF91CF910F91FF90EF906F
:100D1000DF90CF90BF90AF908F9008950F931F9367
:100D2000CF93DF938C01D62FC42F0E948C04C095E3
:100D30004C2F48236D2FC801DF91CF911F910F9148
:100D40000C94AA046F927F928F92AF92BF92CF922F
:100D5000DF92EF92FF920F93CF93DF9300D000D0FA
:100D60001F92CDB7DEB73C0182E08D8340E064E2A4
:100D7000C3010E94AA0440E066E2C3010E94AA04E3
:100D800046E268E4C3010E94AA0486E28B838D8157
:100D90008230C8F140E86CE1C3010E948E0687E012
:100DA0008C831F92812CCE0104965C0101966C010C
:100DB00004977C0101E09E012D5F3F4F40E36CE012
:100DC000C3010E941E05982F0F90811119C08D81BB
:100DD0008230C9F48C81811116C081E00F900F9090
:100DE0000F900F900F90DF91CF910F91FF90EF90A8
:100DF000DF90CF90BF90AF908F907F906F900895CD
:100E000081E0923059F380E0E9CF2F923F924F92E8
:100E10005F926F927F928F929F92AF92BF92CF928A
:100E2000DF92EF92FF920F931F93CF93DF93CDB793
:100E3000DEB72E970FB6F894DEBF0FBECDBF06E02B
:100E4000413508F046C14E873B012C0140E86CE17A
:100E50000E948E0683E989832E85222329F081E072
:100E6000F3019081953008F480E0992493941C86D6
:100E70009C85990F990F990F1E85191B17FD10E07E
:100E800032E0882319F098E89B8333E021E0912F2A
:100E9000977009F420E0912F959595959595290FD8
:100EA000D1F094E0811193E0291708F4922F2C855A
:100EB000E22FF0E03196E60DF71D232F4191A1E0DE
:100EC000B0E0AC0FBD1FA20FB11D4C932F5F422F9E
:100ED000431B491798F38111185F10320CF484C03A
:100EE00080E78A838B819C8189279D8189279E81C8
:100EF00089278F839E01285F3F4F47E0BE016F5FC8
:100F00007F4FC2010E94C704082F8111E2C01A86D8
:100F100093E09B871D87FE0137961F0109E08A84B5
:100F2000482D4295407F480D6AE1C2010E94AA0403
:100F30001F92CE010A965C01FE013B966F01710182
:100F40009E012F5F3F4F40E36CE0C2010E941E05EF
:100F5000082F0F90823009F065C06CE1C2010E9439
:100F60008C0485FDB6C08F7109F480E2282F30E033
:100F7000412F110F550B421753070CF09EC0182F2D
:100F8000E22FE595E595E595EF5F922F977081E06B
:100F900009F480E0E80F81E090E08C0F9D1F8E0F38
:100FA000911DFC01215031092770332781E090E029
:100FB00002C0880F991F2A95E2F79C018081822B3D
:100FC00080838BCF85E98983FE85FF2331F081E023
:100FD000F3019081983008F04BCF80E049CF87E94A
:100FE0008983F6E0FC87F9CF912F97709A87812F3C
:100FF0008595859585958E5F282F2295207F290FD1
:101000002A8301E0911101C000E0080F22242394FB
:10101000312C2C0E3D1E280E311CF9E0F81BFB87ED
:101020001D877DCF811155C010E29D8590320CF453
:1010300057CF8B81883809F042C083E093E02C853C
:10104000E22FF0E03196E60DF71D980FA1E0B0E039
:10105000AC0FBD1FA80FB11D2C9121938F5F891379
:10106000F5CF8B858C87833009F04DC08A8581113F
:101070004AC09E012D5F3F4F41E0B101C2010E9475
:10108000C704082F811125C09B81F101818198132C
:101090003CC09C818281981338C0808182FF12C03D
:1010A0009394F2E09F1609F48DCF23E0921609F491
:1010B00096CF81E0981609F4CDCE05E00AC082E013
:1010C00094E0BDCFF3018387892D880F980E939408
:1010D0009082802F2E960FB6F894DEBF0FBECDBF44
:1010E000DF91CF911F910F91FF90EF90DF90CF9004
:1010F000BF90AF909F908F907F906F905F904F9038
:101100003F902F90089501E0E4CF07E0E2CF8F9267
:10111000AF92BF92CF92DF92EF92FF920F93CF9355
:10112000DF9300D000D0CDB7DEB780E589831A8287
:101130009E012D5F3F4F42E0BE016F5F7F4F8FE208
:1011400097E00E94C704811113C01F92812CB12C1B
:10115000A12CD12CC12CF12CE12C04E09E012F5F9D
:101160003F4F40E36CE08FE297E00E941E050F9036
:1011700048E060E18FE297E00E948E060F900F90AA
:101180000F900F90DF91CF910F91FF90EF90DF9034
:10119000CF90BF90AF908F9008958F92AF92BF92F3
:1011A000CF92DF92EF92FF920F93CF93DF931F9234
:1011B000CDB7DEB782E1898363E080E60E943D0619
:1011C00091E081112EC08981823110F490E029C014
:1011D00080E38093230682E08093240625E236E0B4
:1011E00042E063E276E08FE297E00E94C70481115B
:1011F000EDCF81E08F93812CB12CA12CCE010196F3
:101200006C0183E2E82E86E0F82E04E0970140E3CB
:101210006CE08FE297E00E941E0591E00F90811133
:10122000D5CF892F0F90DF91CF910F91FF90EF9045
:10123000DF90CF90BF90AF908F90089560E08AE0EC
:101240000C94EB0061E08AE00C94EB00CF93C0912A
:101250004206C130C9F40E9422098091370690915C
:1012600038060196909338068093370680913706AA
:101270009091380660911B0170911C010E94E2223E
:10128000892B11F4C0933F06CF91089561E080E16E
:101290000E94EB0060E971E080E090E00E9485012F
:1012A00060E080E10E94EB0060E971E080E090E0A6
:1012B0000E94850161E080E10E94EB0060E971E03D
:1012C00080E090E00E94850160E080E10E94EB00F8
:1012D00060E971E080E090E00E94850161E080E1DA
:1012E0000E94EB0060E971E080E090E00E948501DF
:1012F00060E080E10C94EB00CF93DF93EC0161E0C0
:1013000080E10E94EB00BE01DD0F880B990B0E946B
:10131000850160E080E1DF91CF910C94EB0040917A
:10132000120150E0EFEFF6E030E020E090E080E0E6
:101330002417350744F460817181860F971F2F5F52
:101340003F4F3496F5CF08954091120150E0EFEFF2
:10135000F6E030E020E02417350734F491838083F1
:101360002F5F3F4F3496F7CF08958F92AF92BF9281
:10137000CF92DF92EF92FF920F93CF93DF93CDB78F
:10138000DEB764970FB6F894DEBF0FBECDBF062F51
:10139000E62EF12CA701BC01CE0101960E94142576
:1013A00021E030E02C0F3D1F2E0D3F1D402FBE01D0
:1013B0006F5F7F4F8FE297E00E94C704811123C0C7
:1013C00082E18C8B1B8A0E5F1F92812CCE0143968B
:1013D0005C0101966C0143977C019C0140E36CE049
:1013E0008FE297E00E941E050F9081110CC08C893E
:1013F0008130D1F48B898430B9F481E099819A30BD
:1014000009F480E0819564960FB6F894DEBF0FBEB4
:10141000CDBFDF91CF910F91FF90EF90DF90CF90F4
:10142000BF90AF908F90089581E0EDCFCF93DF9381
:1014300000D0CDB7DEB763E081E60E943D068111A2
:1014400012C080EA898382E08A8362E0CE0101963D
:101450000E94B50981110DC060E18CE496E00E9404
:10146000B509811106C081E00F900F90DF91CF91F7
:10147000089580E0F9CFFB0101900020E9F7319752
:10148000AF01461B570BDC01ED91FC910280F3810B
:10149000E02D09948F929F92AF92BF92EF92FF92AC
:1014A0000F931F93CF93DF93CDB7DEB7A1970FB6FE
:1014B000F894DEBF0FBECDBF7C01FA01CB0119A2AB
:1014C000223008F42AE08E010F5D1F4F822E912CEE
:1014D000B12CA12CBF01A50194010E94F622F901B3
:1014E000CA016A300CF5605DD8016E938D01232B23
:1014F000242B252B79F790E080E0109721F0BD0197
:10150000C7010E943B0AA1960FB6F894DEBF0FBE3A
:10151000CDBFDF91CF911F910F91FF90EF90BF90C2
:10152000AF909F908F900895695CDECFCF92DF924D
:10153000EF92FF926C01990FEE08FF08F7FE18C0BA
:1015400041E06DE287E197E00E942A034427552796
:10155000BA014C195D096E097F092AE087E197E01D
:101560000E944A0A0196FF90EF90DF90CF90089575
:101570002AE0B701A60187E197E0FF90EF90DF90A6
:10158000CF900C944A0ABC0187E197E00C943B0A87
:101590000E94830360E080E00E942C048091420658
:1015A000811113C089E591E00E94C30A61E080E0E7
:1015B0000E942C0486E791E00E94C30A0E948F09D2
:1015C0000E94960A109213010895813079F788E6F7
:1015D00091E0EACF0E94830360E080E00E942C0447
:1015E00084E891E00E94C30A61E080E00E942C043C
:1015F00083E991E00E94C30A80910E0190910F014E
:101600000C94960A0E94830360E080E00E942C0400
:1016100080EA91E00E94C30A61E080E00E942C040D
:101620004091120150E070E060E02AE087E197E02D
:101630000C944A0A0E94830360E080E00E942C041C
:1016400081EB91E00E94C30A61E080E00E942C04DB
:101650008FEB91E00E94C30A80911B0190911C01C5
:101660000E94960A80911B0190911C01019721F420
:1016700086EC91E00C94C30A8DEC91E0FBCF0E94C4
:10168000830360E080E00E942C0485ED91E00E94DD
:10169000C30A61E080E00E942C04809115019091C2
:1016A00016010E94960A86EE91E00C94C30A0E94ED
:1016B000830360E080E00E942C048EEE91E00E94A3
:1016C000C30A61E080E00E942C0480911701909190
:1016D00018010E94960A86EE91E00C94C30A0E94BB
:1016E000830360E080E00E942C048DEF91E00E9473
:1016F000C30A61E080E00E942C048091190190915E
:101700001A0168EE73E00E94E222CB010E94960A61
:101710008CE092E00C94C30A0E94830360E080E0B6
:101720000E942C0481E192E00E94C30A61E080E003
:101730000E942C0480914206811104C08EE192E047
:101740000C94C30A813019F483E292E0F9CF089532
:101750000E94830360E080E00E942C048FE494E008
:101760000E94C30A61E080E00E942C0480910C0179
:1017700090910D010C94960A80914006909141063B
:10178000009719F0019771F008958091130181116C
:101790000E94C80A10921E0610921D068EE68093C3
:1017A0001401089580911F06882309F432C1E09145
:1017B0001D06F0911E06E930F10508F02AC1ED5131
:1017C000F44F0C941823EC0B070C1B0C350C4F0C2E
:1017D000870CAE0CCD0CEB0C0E94830360E080E024
:1017E0000E942C0460E087E197E00E943B0460E0E7
:1017F00082E00E942C048FE292E00E94C30A61E022
:1018000082E00E942C048CE392E00C94C30A0E94B4
:10181000830360E082E00E942C048FE292E00E9449
:10182000C30A61E080E00E942C0460E087E197E059
:101830000E943B04E4CF0E94830360E082E00E94A8
:101840002C048CE392E00E94C30A61E080E00E94D5
:101850002C0460E087E197E00E943B0461E082E0B5
:101860000E942C048AE492E0D0CF0E94830360E0BF
:1018700082E00E942C048AE492E00E94C30A61E0A4
:1018800080E00E942C0460E087E197E00E943B0426
:1018900061E082E00E942C0486E592E0B6CF809160
:1018A00042068130D1F40E94830360E082E00E940E
:1018B0002C0486E592E00E94C30A61E080E00E9469
:1018C0002C0460E087E197E00E943B0461E082E045
:1018D0000E942C0481E192E098CF0E94830360E093
:1018E00082E00E942C0486E592E00E94C30A61E037
:1018F00080E00E942C0460E087E197E00E943B04B6
:1019000061E082E00E942C0481E692E07ECF80912B
:101910004206811109C00E94830360E082E00E94B8
:101920002C0481E692E0C7CF0E94830360E082E04E
:101930000E942C0481E192E00E94C30A61E080E0F1
:101940000E942C0460E087E197E00E943B0461E084
:1019500082E00E942C0482EF91E057CF80914206F2
:10196000813009F056C00E94830360E082E00E944B
:101970002C0482EF91E00E94C30A61E080E00E94A3
:101980002C0460E087E197E00E943B0461E082E084
:101990000E942C048DE692E038CF8091420681307F
:1019A000C1F50E94830360E082E00E942C048DE672
:1019B00092E00E94C30A61E080E00E942C0460E093
:1019C00087E197E00E943B0461E082E00E942C04E2
:1019D0008DEF91E01ACF809142068130D1F40E94C0
:1019E000830360E082E00E942C048DEF91E00E946E
:1019F000C30A61E080E00E942C0460E087E197E088
:101A00000E943B0461E082E00E942C0489ED91E099
:101A1000FCCE08950E94830360E080E00E942C04C5
:101A20008BE792E00E94C30A61E080E00E942C04F0
:101A300080911001909111010C94960ACF93DF933D
:101A4000BC0182E696E00E943B0AEC016BE872E082
:101A500082E696E00E943B0A8C0F9D1FDF91CF919A
:101A60000895CF93DF93EB010E947B218883CE0101
:101A7000DF91CF9108950F931F93CF93DF938C0144
:101A8000EB010E947B218883C80101960E947B2183
:101A90008983CE01DF91CF911F910F9108950F930C
:101AA0001F93CF93DF93EC0188819981009759F0C0
:101AB0002A813B812617370730F081E0DF91CF91F3
:101AC0001F910F9108958B016F5F7F4F0E945724E4
:101AD000009759F0998388831B830A832C813D8169
:101AE000232B59F7FC011082E8CF80E0E7CFEF927B
:101AF000FF920F931F93CF93DF936115710541F40C
:101B000080E0DF91CF911F910F91FF90EF900895AA
:101B100041155105B1F07B01EC010C811D81040FD1
:101B2000151FB8010E944F0D882351F32881398178
:101B30008C819D81B701820F931F0E941D251D83FB
:101B40000C8381E0DECFFB0144815581608171818E
:101B50000C94770DCF93DF93EC01888199810097E6
:101B600011F00E94CE23198218821D821C821B82D2
:101B70001A82DF91CF910895CF93DF93EC01FB019F
:101B800044815581608171810E94770D811103C06C
:101B9000CE010E94AA0DCE01DF91CF910895EF9260
:101BA000FF920F931F93CF93DF93EC017B018A0188
:101BB000BA010E944F0D81110BC0CE010E94AA0DE7
:101BC000CE01DF91CF911F910F91FF90EF9008957B
:101BD0001D830C83B701888199810E941D25F0CF58
:101BE000FB0101900020E9F73197AF01461B570B2D
:101BF0000C94CF0D0F931F93CF93DF93CDB7DEB728
:101C000062970FB6F894DEBF0FBECDBF8C01CB013B
:101C1000F8011182108213821282158214824AE026
:101C2000BE016F5F7F4F0E940520BE016F5F7F4F37
:101C3000C8010E94F00D62960FB6F894DEBF0FBE89
:101C4000CDBFDF91CF911F910F9108950F931F93F7
:101C5000CF93DF93CDB7DEB729970FB6F894DEBFE9
:101C60000FBECDBF8C01862FF80111821082138226
:101C70001282158214824AE0BE016F5F7F4F90E0AE
:101C80000E943220BE016F5F7F4FC8010E94F00D9D
:101C900029960FB6F894DEBF0FBECDBFDF91CF916E
:101CA0001F910F910895FB01DC0111961C921E9269
:101CB00013961C921E92129715961C921E921497C0
:101CC0008617970749F0608171816115710521F0D0
:101CD000448155810C94CF0D0895FC01118210822E
:101CE0001382128215821482FB0101900020E9F711
:101CF0003197AF01461B570B0C94CF0DFC0180812F
:101D00009181009711F00C94CE230895EF92FF92E9
:101D10000F931F93CF93DF93CDB7DEB762970FB6C4
:101D2000F894DEBF0FBECDBF082F10E0B8016F5F83
:101D30007F4FCE0107960E94FA0D6CEA71E0CE014A
:101D400001960E946D0EBE01695F7F4FCE01019624
:101D50000E94BC0D7C0149E050E06EE872E00E94F8
:101D6000770D811103C0C7010E94AA0DB701CE01F2
:101D70000D960E94530ECE0101960E947E0ECE015A
:101D800007960E947E0E0E94830360E080E00E941E
:101D90002C04BE01635F7F4F87E197E00E94C5017D
:101DA00061E080E00E942C04000F111F000F111F42
:101DB000F801E150F94F808191810E94960ACE018D
:101DC0000D960E947E0E62960FB6F894DEBF0FBE8F
:101DD000CDBFDF91CF911F910F91FF90EF900895AC
:101DE000FF920F931F93CF93DF938C01EB01F88049
:101DF0000E947B21F81621F06F2DC8010E948321DB
:101E0000CE01DF91CF911F910F91FF900895FF9226
:101E10000F931F93CF93DF93EC018B01FB01F080B5
:101E20000E947B21F81621F06F2DCE010E948321A4
:101E3000F801F1802196CE010E947B21F81621F055
:101E40006F2DCE010E948321C801DF91CF911F9198
:101E50000F91FF9008950C948321CF93DF938437E3
:101E600041F46091420689E190E0DF91CF910C94BA
:101E70002B0F8D3429F4609112018EE190E0F5CFA3
:101E80008937B9F56091420689E190E00E942B0FF5
:101E9000609112018EE190E00E942B0F60910C0185
:101EA0008FE090E00E942B0F6EE071E084E190E003
:101EB0000E94070FC0911001609111018AE090E02B
:101EC0000E942B0F6C2F8BE090E00E942B0FC3E23F
:101ED000D1E020911201CE018352914028171906BA
:101EE000A1F19CF1899160910E0190E00E942B0F6D
:101EF000F0CF833641F467E171E083E290E0DF9157
:101F0000CF910C94070F803719F56BE171E082E3F4
:101F100090E00E94070F60911B0170911C01072E39
:101F2000000C880B990B0E945E209B01AC0160E0C5
:101F300070E080EA90E40E94352260933F0770933E
:101F400040078093410790934207DF91CF91089516
:101F5000873729F469E171E08DE290E0D0CF8837CE
:101F6000A1F765E171E088E290E0C9CF0F931F937C
:101F7000CF93DF938237B1F4CFEFD6E003E211E0E5
:101F800020911201C8018352914028171906D1F0FF
:101F9000CCF0F80181918F01688190E00E942B0FB5
:101FA0002496EECF863641F38D36B1F4C091100100
:101FB000609111018AE090E00E942B0F6C2F8BE062
:101FC00090E004C060910E0184E190E0DF91CF9138
:101FD0001F910F910C942B0F823629F460910C0104
:101FE0008FE090E0F3CFDF91CF911F910F910C9490
:101FF0002D0F1F920F920FB60F9211242F933F9324
:102000008F939F93AF93BF93809144069091450621
:10201000A0914606B09147063091430623E0230F76
:102020002D3768F126E8230F0296A11DB11D2093DC
:1020300043068093440690934506A0934606B093CA
:1020400047068091480690914906A0914A06B091B2
:102050004B060196A11DB11D809348069093490639
:10206000A0934A06B0934B06BF91AF919F918F9179
:102070003F912F910F900FBE0F901F9018950196D2
:10208000A11DB11DD4CF1F920F920FB60F92112434
:102090002F933F934F935F936F937F938F939F9370
:1020A000AF93BF93EF93FF93E0910201F09103018F
:1020B0000995FF91EF91BF91AF919F918F917F9182
:1020C0006F915F914F913F912F910F900FBE0F90A5
:1020D0001F9018951F920F920FB60F9211242F93F5
:1020E0003F934F935F936F937F938F939F93AF93A0
:1020F000BF93EF93FF93E0910001F09101010995E7
:10210000FF91EF91BF91AF919F918F917F916F91CF
:102110005F914F913F912F910F900FBE0F901F90A5
:1021200018951F920F920FB60F9211242F933F9381
:102130004F935F936F937F938F939F93AF93BF93CF
:10214000EF93FF9382E696E00E945102FF91EF9198
:10215000BF91AF919F918F917F916F915F914F91BF
:102160003F912F910F900FBE0F901F9018951F92C7
:102170000F920FB60F9211242F938F939F93EF938B
:10218000FF93E0917206F09173068081E0917806EA
:10219000F091790682FD1BC0908180917B068F5F54
:1021A0008F7320917C06821741F0E0917B06F0E06E
:1021B000EE59F94F958F80937B06FF91EF919F9198
:1021C0008F912F910F900FBE0F901F9018958081C7
:1021D000F4CFE2E6F6E01382128288EE93E0A0E00C
:1021E000B0E084839583A683B78385E391E09183F0
:1021F000808385EC90E09587848784EC90E09787D6
:10220000868780EC90E0918B808B81EC90E0938BC3
:10221000828B82EC90E0958B848B86EC90E0978BA0
:10222000868B118E128E138E148E60911B0170910D
:102230001C01072E000C880B990B0E945E209B014D
:10224000AC0160E070E080EA90E40E943522609387
:102250003F07709340078093410790934207EFE256
:10226000F7E083E591E0918380838AE0868782E0CE
:102270008787E7E1F7E01382128287E491E0918398
:10228000808384E084838FEF858385E0868386E086
:10229000878387E0808788E0818789E0828713864B
:1022A000148615861686178681E00E948A03EFEF52
:1022B000F6E011821082158214821186108615862E
:1022C0001486118A108A158A148A0895CF93DF9391
:1022D000CDB7DEB7E3970FB6F894DEBF0FBECDBF24
:1022E000789484B5836084BD85B5836085BD809115
:1022F0006E00816080936E0092E0909381008091E7
:102300008100816080938100809180008160809352
:1023100080008091B10084608093B1008091B00012
:1023200081608093B00087E880937A001092C100AA
:10233000E0917206F09173069083E0916E06F09141
:102340006F061082E0917006F09171068FEC808329
:1023500010927A06E0917606F091770686E0808307
:10236000E0917406F0917506808188698083E09120
:102370007406F091750680818F7D808382E00E94D3
:102380008A0380E40E947D0304E011E0D8016D918E
:102390008D0187E197E00E943B04B1E00C301B0700
:1023A000A9F765E171E088E290E00E943B0D809121
:1023B0001501909116011816190664F085E090E059
:1023C000909316018093150165E171E088E290E039
:1023D0000E94070F6CE071E08FE090E00E943B0DDF
:1023E00080910C0190910D011816190664F08AE095
:1023F00090E090930D0180930C016CE071E08FE010
:1024000090E00E94070F62E476E089E190E00E948C
:10241000310D80914206823040F01092420662E413
:1024200076E089E190E00E94F00E62E171E08EE1D9
:1024300090E00E94310D809112018150833048F06C
:1024400082E08093120162E171E08EE190E00E94EF
:10245000F00E6EE071E084E190E00E943B0D80910F
:102460000E0190910F011816190664F080E390E0B8
:1024700090930F0180930E016EE071E084E190E093
:102480000E94070F8AE090E00E947B21182F8BE0CA
:1024900090E00E947B21212F30E0322F2227820FF3
:1024A000932F911D90931101809310011816190616
:1024B00064F08CED95E0909311018093100160E140
:1024C00071E08AE090E00E94070F67E171E083E22B
:1024D00090E00E943B0D80911701909118019C01A2
:1024E000215031092A3F310530F465E070E00E9447
:1024F000E222892B79F084E190E090931801809397
:1025000017019A838983BE016F5F7F4F83E290E05A
:102510000E94070F6BE171E082E390E00E943B0DA7
:1025200080911B0190911C019C01215031092230A6
:10253000310588F08530910571F00A9761F081E0EE
:1025400090E090931C0180931B016BE171E082E3AA
:1025500090E00E94070F60911B0170911C01072EF3
:10256000000C880B990B0E945E209B01AC0160E07F
:1025700070E080EA90E40E94352260933F077093F8
:102580004007809341079093420769E171E08DE233
:1025900090E00E943B0D8091190190911A010197E2
:1025A00080329E4460F088E893E190931A01809312
:1025B000190169E171E08DE290E00E94070F0FEFD1
:1025C00016E083E2E82E81E0F82E8091120190E07F
:1025D000970123523140281739078CF040910E01A2
:1025E00050910F01EFEFF6E030E020E08217930703
:1025F00099F0538342832F5F3F4F3496F7CFD70133
:102600008D917D0190E00E947B2190E0F801918303
:1026100080830C5F1F4FD9CF62E083E00E941901D5
:1026200062E08EE00E94190162E08FE00E941901D1
:1026300080914206813021F462E082E00E9419011B
:1026400061E080E10E94190160E080E10E94EB00FE
:102650000DE211E020911201C8018D52914028171E
:10266000190669F064F0D801FD908D0161E08F2DAD
:102670000E94190160E08F2D0E94EB00EBCF80914A
:102680004206813009F04DC186E299E09093010144
:1026900080930001809169008C7F82608093690043
:1026A000E89A0E94220984E690E00E947B21893703
:1026B00009F4FBC108E610E0F8016491662341F0DB
:1026C00082E696E00E9473020F5F1F4F892BA1F7ED
:1026D0006BE872E082E696E00E943B0A89E70E947E
:1026E0002D0F64E670E080E090E00E94850169E7CC
:1026F00084E690E00E942B0F8FEF80935C0680931E
:102700005D0680935E0680935F06809360068093EB
:1027100061060E94830360E083E00E942C0488E944
:1027200092E00E94C30A61E082E00E942C0483EAE6
:1027300092E00E94C30A68EB7BE080E090E00E9498
:1027400085010E94830360E082E00E942C0480EBFC
:1027500092E00E94C30A61E082E00E942C048DEBAB
:1027600092E00E94C30A60ED77E080E090E00E9472
:1027700085018091130181110E94C80A609142066F
:10278000CE0101960E94260E66ED72E0CE01829681
:102790000E946D0EBE016F5F7F4FCE0182960E9438
:1027A000BC0DBC01CE018E960E94530ECE018296C6
:1027B0000E947E0ECE0101960E947E0E6091120153
:1027C000CE0101960E94260E67EE72E0CE0182963F
:1027D0000E946D0EBE016F5F7F4FCE0182960E94F8
:1027E000BC0DBC01CE018E960E94A30DCE01829637
:1027F0000E947E0ECE0101960E947E0E60910E0117
:1028000070910F01CE0101960E94FA0D67EF72E000
:10281000CE0182960E946D0EBE016F5F7F4FCE018A
:1028200082960E94BC0DBC01CE018E960E94A30D23
:10283000CE0182960E947E0ECE0101960E947E0EEF
:1028400060910C0170910D01CE0101960E94FA0D6C
:1028500068E073E0CE0182960E946D0EBE016F5F4C
:102860007F4FCE0182960E94BC0DBC01CE018E9698
:102870000E94A30DCE0182960E947E0ECE0101968B
:102880000E947E0EBFEFEB2EB6E0FB2E10E000E0C4
:10289000809112018017110609F00CF40BC1D701C9
:1028A0006D917C91CE0101960E94FA0D0F5F1F4F32
:1028B000B801CE0182960E94FA0D66E173E0CE0166
:1028C00088960E946D0EBE016E5D7F4FCE01889688
:1028D0000E94BC0D6C014BE050E06DE173E00E9482
:1028E000770D811103C0C6010E94AA0DBE016F5F62
:1028F0007F4FC6010E94BC0DBC01CE018E960E9486
:10290000A30DCE0188960E947E0ECE0182960E9473
:102910007E0ECE0101960E947E0EB4E0EB0EF11CFD
:10292000B7CF1FB7F89480911C06811127C0EBE93F
:10293000F0E08491E2EBF0E09491E82FF0E0EE0F0C
:10294000FF1FED58FF4FA591B491EC91E92321F4BD
:1029500061E08AE00E94EB0061E08AE00E941901D8
:102960008CB580618CBD8CB580648CBD61E08DE0E0
:102970000E94190161E08BE00E94190180911C0600
:102980008F5F80931C061FBF61E080913D070E940E
:10299000190161E080913D070E94EB0080913E07A4
:1029A0008F3F09F46BC060E00E94190180913E07DF
:1029B0000E94C200892B09F061C061E080913E074E
:1029C0000E94190160E080913E070E94EB0082E0C6
:1029D00090E00E94550161E080913E070E94EB006B
:1029E00062E370E080E090E00E94850140E064E2F4
:1029F0008FE297E00E94AA0440E066E28FE297E04F
:102A00000E94AA0446E268E48FE297E00E94AA04CA
:102A100040E864E58FE297E00E94AA0449EA66E58F
:102A20008FE297E00E94AA0443E068E58FE297E016
:102A30000E94AA0448EE6AE58FE297E00E94AA0489
:102A400040E46AE28FE297E00E94AA044DE362E26A
:102A50008FE297E00E94AA0468E28FE297E00E946A
:102A60008C04982F9370933009F41DCE482F436047
:102A700068E28FE297E00E94AA0415CE4FE062E080
:102A80008FE297E00E94AA0413E062E370E080E026
:102A900090E00E94850162E08FE297E00E948C0442
:102AA00084FFA4CF115089F7A1CF89EC92E00E9456
:102AB0001E0D22CEBE01625D7F4F82E696E00E942F
:102AC000C5016BE872E082E696E00E943B0A68EE80
:102AD00073E080E090E00E948501CE018E960E9416
:102AE0007E0E83E00E94C200892B09F00DC181E0B7
:102AF00080931F068093130181E090E0909341063C
:102B0000809340068EE6809314010E94BC0B83E004
:102B10000E94C200892BD9F364EF71E080E090E05D
:102B20000E948501A4E62A2E312C0E94B801E09073
:102B30004006F0904106E114F10409F092C18EE0E4
:102B40000E94C200892B09F0E7C00E94B8014B0126
:102B50005C018EE00E94C200892B09F0DDC00E945A
:102B6000B801681979098A099B096C3D754081058E
:102B7000910578F38CE291E00E947C090E94830326
:102B800060E080E00E942C0489E293E00E94C30A86
:102B900061E080E00E942C048CEA91E00E94C30A6C
:102BA00060ED77E080E090E00E9485010E94830361
:102BB00060E080E00E942C0482E393E00E94C30A5C
:102BC0008FE00E94C200892BD9F780910E0190916D
:102BD0000F010E94A40986E60E94B60F0E9483039B
:102BE00060E080E00E942C048DE393E00E94C30A21
:102BF00084EF91E00E947C091092410610924006F9
:102C00008EE68093140181E080931F068093130168
:102C10000E94BC0B8091420681115BC68FE297E057
:102C20000E94A206882309F462C00E94830360E028
:102C300080E00E942C0482E893E00E94C30A61E0D5
:102C400080E00E942C0481E993E00E94C30A8FE295
:102C500097E00E944504882309F441C00E94CD08F2
:102C6000882309F42DC684EF91E00E947C098091AD
:102C70002306863409F029C482EA93E00E941E0DDF
:102C80000E94830360E080E00E942C048CEB93E0C0
:102C90000E94C30A61E080E00E942C0488EC93E06B
:102CA0000E94C30A60ED77E080E090E00E94850119
:102CB00080910E0190910F010E94A40986E60E9466
:102CC000B60F0E94830360E080E00E942C048DE335
:102CD00093E00E94C30A84EF91E00E947C090E9465
:102CE00087088EE68093140181E08093130180E0D1
:102CF00090E0892B09F419CF0E943D02882309F442
:102D000014CF0E9400000ECF80914206813009F05E
:102D100009CF0E941E0906CF8FE00E94C200892BB6
:102D200009F0C5C0809142068111C1C00E94B8015E
:102D30004B015C018FE00E94C200892B09F0B7C0F3
:102D40000E94B801681979098A099B096C3D754090
:102D50008105910578F38CE291E00E947C090E9444
:102D6000830360E080E00E942C0481E692E00E94F0
:102D7000C30A61E080E00E942C0487E493E00E9493
:102D8000C30A60ED77E080E090E00E9485010E9438
:102D9000830360E080E00E942C048CE493E00E94B6
:102DA000C30A8FE00E94C200892B09F449C08FE258
:102DB00097E00E94A2068823A1F38FE297E00E9489
:102DC0004504882371F30E94CD088823A9F08091DF
:102DD0002306863419F08D7F8035D9F461E080E0D8
:102DE0000E942C0487E593E00E94C30A68EE73E01A
:102DF00080E090E00E9485010E94830360E080E013
:102E00000E942C048CE493E00E94C30A0E9487086D
:102E1000C8CF10924C0680910C0180935B060E94F3
:102E2000160A882349F361E080E00E942C0488E6BA
:102E300093E00E94C30A84EF91E00E947C09DCCFFA
:102E40000E94830360E080E00E942C048DE693E002
:102E50000E94C30A64EF71E080E090E00E94850167
:102E6000CBCE21E0E216F10411F583E00E94C2000E
:102E7000892BE9F40E94B8014B015C0183E00E94B8
:102E8000C200892BA1F40E94B801681979098A0946
:102E90009B09683E73408105910580F310924106BD
:102EA000109240068EE68093140181E0AFCE8091AF
:102EB00014018E3609F087C08EE00E94C200892B73
:102EC00019F56CE271E080E090E00E9485018EE0EF
:102ED0000E94C200892BD9F380911D0690911E0695
:102EE000019690931E0680931D06209142062111A3
:102EF0006FC0069721F410921E0610921D0681E005
:102F000080931F06809313018FE00E94C2008C0102
:102F1000892B09F058C0EA94EF2809F054C064EFF7
:102F200071E080E090E00E9485018FE00E94C20085
:102F3000892BD9F368EC70E080E090E00E94850175
:102F400080911D0690911E06009709F048C082E707
:102F500080931401809114018D3609F445C10CF061
:102F6000AAC0823609F46DC10CF07AC08D3409F420
:102F700016C1809114010E94B60F80E293E00E9476
:102F80007C090E94830360E080E00E942C0488E7B3
:102F900093E00E94C30A61E080E10E94EB0060EDD3
:102FA00077E080E090E00E94850160E080E10E948F
:102FB000EB008EE6809314011092410610924006B9
:102FC00081E0809313010E94BC0B10921F0622CE59
:102FD000213009F094CF09970CF08DCF90CF81303C
:102FE000910511F486E6B4CF8230910511F48DE499
:102FF000AFCF8330910511F48DE6AACF84309105CF
:1030000041F480914206811102C082E6A1CF84E79B
:103010009FCF8530910531F4809142068823B9F322
:1030200083E696CF8630910539F48091420681304F
:1030300009F090CF80E78CCF8730910539F48091EB
:103040004206813009F086CF87E782CF089709F0E2
:1030500081CF80914206813009F07CCF88E778CF1C
:10306000833609F483C1863609F083CF0E94EA0AC9
:1030700001E010E08FE00E94C200892B09F488C0B3
:103080008EE00E94C200892BA9F76CE271E080E01B
:1030900090E00E94850180910E0190910F010196B0
:1030A0008D3391050CF06FC090930F0180930E014A
:1030B0000E94EA0ADFCF843709F433C1CCF58037A8
:1030C00009F4B2C1FFEFEF2EF6E0FF2E823709F0D0
:1030D00050CF809112018017110609F00CF449CFEE
:1030E000D02E802F0E94860E8FE00E94C200892B76
:1030F00009F49CC08EE00E94C200892BA9F76CE203
:1031000071E080E090E00E948501D7018D919C9153
:103110001197019611969C938E9312962D913C9146
:1031200013972817390714F41D921C928D2DDACFAE
:10313000873709F449C1883709F01BCF0E943F0B3C
:1031400005E010E08FE00E94C200892B09F4B7C1AE
:103150008EE00E94C200892BA9F76CE271E080E04A
:1031600090E00E94850180911501909116010596CD
:10317000853191050CF09EC1909316018093150145
:103180000E943F0BDFCF10930F0100930E0190CFF1
:1031900080910E0190910F010E94A409EACE0E9435
:1031A000020B11E08FE00E94C200892B09F4E1CEEE
:1031B0008EE00E94C200892BA9F76CE271E080E0EA
:1031C00090E00E948501809112018F5F843028F485
:1031D000809312010E94020BE5CF10931201FACFE7
:1031E00030921101209210010E940A0D8FE00E947E
:1031F000C200892B09F4BDCE8EE00E94C200892B4B
:10320000A9F76CE271E080E090E00E948501809176
:103210001001909111018C599F4F8938E3E19E076D
:10322000FCF69093110180931001DECF8FE00E9495
:10323000C200892BD9F30F5F1F4FB4E0EB0EF11CD6
:1032400048CF0E94A80B01E010E08FE00E94C2006E
:10325000892B01F18EE00E94C200892BB1F76CE24C
:1032600071E080E090E00E94850180910C019091D6
:103270000D0101968F3F910509F03CF490930D01EB
:1032800080930C010E94A80BE0CF10930D010093D6
:103290000C01F8CF8FE00E94C200892BD9F30E9465
:1032A000830360E080E00E942C048CE493E00E94A1
:1032B000C30A8FE00E94C200892B69F18FE297E078
:1032C0000E94A2068823A9F38FE297E00E9445049A
:1032D0008823A1F080910C0180935B060E94160A5E
:1032E000882361F061E080E00E942C0488E693E08E
:1032F0000E94C30A84EF91E00E947C090E9483032C
:1033000060E080E00E942C048CE493E00E94C30AF9
:103310000E948708CECF8FE00E94C200892BD9F38C
:1033200028CE0E948C0B11E08FE00E94C200892BF6
:10333000B9F08EE00E94C200892BB1F76CE271E017
:1033400080E090E00E94850180914206811105C0D5
:10335000109342060E948C0BE7CF10924206FACFE0
:103360008FE00E94C200892BD9F303CE0E94570B35
:1033700005E010E08FE00E94C200892BF9F08EE09A
:103380000E94C200892BB1F76CE271E080E090E00E
:103390000E948501809117019091180105968B3F3D
:1033A00091053CF490931801809317010E94570BEC
:1033B000E1CF1093180100931701F8CF8FE00E941E
:1033C000C200892BD9F3D5CD0E946F0B08EE13E014
:1033D0008FE00E94C200892B09F18EE00E94C2009A
:1033E000892BB1F76CE271E080E090E00E948501EA
:1033F0008091190190911A0188519C4F8132EEE41D
:103400009E073CF490931A01809319010E946F0B60
:10341000DFCF10931A0100931901F8CF8FE00E94BB
:10342000C200892BD9F3A5CD0E941A0B80911B01F4
:1034300090911C018130910579F001E010E082301B
:10344000910551F002E010E08530910529F003E08C
:1034500010E00A9709F00FEF8FE00E94C200892B5D
:1034600019F18EE00E94C200892BB1F76CE271E085
:1034700080E090E00E9485018EE00E94C200892BCE
:10348000D9F30F5F043009F400E0E02F002E000CA8
:10349000FF0BE75DFE4F808190E090931C018093CD
:1034A0001B010E941A0BD8CF8FE00E94C200892B0B
:1034B000D9F35FCD109316010093150161CE8FE013
:1034C0000E94C200892BD9F354CD823509F094C0F3
:1034D00086ED93E00E941E0D0E94830360E080E071
:1034E0000E942C0481E692E00E94C30A61E080E021
:1034F0000E942C0480EF93E00E94C30A60ED77E005
:1035000080E090E00E9485010E94830360E080E0FB
:103510000E942C048CE493E00E94C30A0E94870856
:1035200081E08093220680912206882309F4D7CB7C
:103530008FE297E00E94A2068823A9F38FE297E02A
:103540000E944504882329F10E94CD08882309F1AF
:1035500080912306863419F08D7F8035C1F58EEF7A
:1035600093E00E941E0D809123068235F9F410929B
:1035700022060E94830360E080E00E942C0480E128
:1035800094E00E94C30A68EE73E080E090E00E943D
:1035900085010E94830360E080E00E942C048CE49B
:1035A00093E00E94C30A0E948708BDCF0E94830354
:1035B00060E080E00E942C048AE194E00E94C30A4B
:1035C00061E080E00E942C0488E294E0DACF8091F0
:1035D0000C0180935B060E94160A8823D1F261E0F9
:1035E00080E00E942C0488E693E00E94C30A84EFE6
:1035F00091E00E947C09CDCF803509F041C082E383
:1036000094E00E941E0D8091320690E090930D018F
:1036100080930C0182E60E94B60F0E94830360E053
:1036200080E00E942C048BE494E00E94C30A61E0D5
:1036300080E00E942C048AE594E00E94C30A68EEB0
:1036400073E080E090E00E9485010E94830360E0C7
:1036500080E00E942C0483E694E00E94C30A61E0AB
:1036600080E00E942C0480910C0190910D010E9439
:10367000960A68EE73E080E090E00E94850121CB1D
:1036800080913206882309F40AC103E216E07CE443
:10369000E72E76E0F72EE3E3CE2EE6E0DE2ED8012D
:1036A0004D918D0150E070E060E02AE082E696E006
:1036B0000E944A0AF80131978081F70181937F01C6
:1036C000C016D10661F780915B06815080935B063E
:1036D0000E94160A811111C00E94830360E080E0FD
:1036E0000E942C048FE694E00E94C30A61E080E00F
:1036F0000E942C048CE794E0BCC0109132060E941A
:10370000CD080E948F09892B09F4B8C08091320638
:10371000181709F49EC064EF71E080E090E00E9409
:1037200085010E94830360E080E00E942C0486E80B
:1037300094E00E94C30A61E080E00E942C04409162
:103740005B0650E070E060E02AE087E197E00E94CD
:103750004A0A68EB7BE080E090E00E9485010E94CD
:10376000830360E080E00E942C0485E994E00E94DD
:10377000C30A61E080E00E942C0481EA94E00E9488
:10378000C30A8CEA94E00E941E0D0E948F0918164D
:1037900019060CF04DC02091120130E080912006F6
:1037A00090912106F0E0E0E0E217F307D4F58C01F8
:1037B0000F5F1F4FAC01440F551F440F551FBA0137
:1037C0006150794F7B01DB014D915C91452BD9F123
:1037D0009093210680932006835D9E4FFC01D0804C
:1037E00061E08D2D0E94EB0060911001709111013C
:1037F000072E000C880B990B0E94850160E08D2D2F
:103800000E94EB00D7018D919C911197009719F0C0
:1038100001978D939C936091120170E0C8010E9402
:10382000E222909321068093200682E70E94B60F41
:1038300080E293E00E947C0968EE73E080E090E013
:103840000E9485014CCA3196C801B9010E94E2224A
:10385000ABCF0E94830360E080E00E942C048AEBDF
:1038600094E00E94C30A61E080E00E942C0480EC96
:1038700094E00E94C30A0E94460931CA0E94830351
:1038800060E080E00E942C048AEB94E00E94C30A6E
:1038900061E080E00E942C0483ED94E0EACF0E9476
:1038A000830360E080E00E942C048DED94E00E9490
:1038B000C30A61E080E00E942C0483EE94E0D9CF3B
:1038C0000E94830360E080E00E942C0480EF94E07B
:1038D0000BCF813009F00BCA0E948F091816190608
:1038E0000CF0BCC08091400690914106892B09F0F4
:1038F000B5C00E941E0980913F06882309F4F7C9CC
:103900000E9422090E94B80160933B0670933C0616
:1039100080933D0690933E0610923A061092390627
:103920000E94B80100913B0610913C0620913D0693
:1039300030913E06AB01BC01401B510B620B730B77
:103940008091190190911A01092E000CAA0BBB0B52
:10395000481759076A077B0708F018C180913F068E
:10396000882309F4EEC10E94830360E080E00E9496
:103970002C048EEF94E00E94C30A61E080E00E9474
:103980002C048DE095E00E94C30A88EC90E00E9430
:103990007C0964EF71E080E090E00E94850168EEB0
:1039A00073E080E090E00E94850110923F066091F4
:1039B000370670913806072E000C880B990B0E9471
:1039C0005E2020913F073091400740914107509180
:1039D00042070E94BD206B017C0120E030E0A9017C
:1039E0000E94DD2220E030E040E05FE387FD39C047
:1039F000C701B6010E94C9210E94A7228B017093C2
:103A00003606609335062091390630913A06620FEA
:103A1000731F70933A06609339060E94B801609351
:103A20003B0670933C0680933D0690933E06093119
:103A3000110509F460C154F50A30110509F449C1B2
:103A4000ACF40530110509F446C00E94830360E020
:103A500080E00E942C0489EB95E045C00E94220979
:103A60004ACFC701B6010E94C821C6CF0F30110549
:103A700009F438C10431110541F70E94830360E065
:103A800080E00E942C0480E595E02DC008321105ED
:103A900009F443C184F40E31110509F435C1033230
:103AA000110599F60E94830360E080E00E942C04D7
:103AB0008DE795E018C00D32110509F437C10233C6
:103AC000110519F60E94830360E080E00E942C0437
:103AD0008AEA95E008C00E94830360E080E00E94CB
:103AE0002C048CE195E00E94C30A61E080E00E9412
:103AF0002C048AE295E00E94C30A60913906709115
:103B00003A06CE0101960E94FA0DBE016F5F7F4F0B
:103B100087E197E00E94C501CE0101960E947E0ECA
:103B200010923806109237062091390630913A06E5
:103B30008091170190911801281739070CF4FFC0E4
:103B400068EE73E080E090E00E9485010E948303AC
:103B500060E080E00E942C0482EF91E00E94C30AA2
:103B600061E080E00E942C0487EC95E00E94C30A8B
:103B700068EE73E080E090E00E948501809117017B
:103B80009091180190933A06809339060E94220979
:103B9000E0903906F0903A06B7010F2C000C880B24
:103BA000990B0E945E204B015C01609115017091A0
:103BB0001601072E000C880B990B0E945E209B01BA
:103BC000AC01C501B4010E9435224B015C0120E02B
:103BD00030E0A9010E94DD2220E030E040E05FE318
:103BE00087FD5CC1C501B4010E94C9210E94A722C2
:103BF0008B01161617060CF0F0C10E948F09892B55
:103C000009F4D6C19DE2C92E91E0D92E2FEFE22E04
:103C100026E0F22E20911201C6018D529140281704
:103C2000190609F00CF497C1101611060CF093C197
:103C3000D7018D909C900E948303F701A080B180F2
:103C40001A141B040CF02FC10115110509F47CC1D5
:103C500060E080E00E942C048AEE95E00E94C30A96
:103C600061E080E00E942C0489EF95E00E94C30A85
:103C7000D601BC9061E08B2D0E94EB006091100199
:103C800070911101072E000C880B990B0E94850181
:103C900060E08B2D0E94EB00F701808191810097FD
:103CA00019F00197918380830150110980E293E01C
:103CB0000E947C096AE174E080E090E00E94850146
:103CC0000E94830366E970E080E090E00E94850135
:103CD000B4CF0E94830360E080E00E942C0482E362
:103CE00095E001CF0E94830360E080E00E942C04F5
:103CF00081E495E0F8CE0E94830360E080E00E94BA
:103D00002C048FE595E0EFCE0E94830360E080E015
:103D10000E942C048EE695E0E6CE0E94830360E0CC
:103D200080E00E942C048CE895E0DDCE0E948303A5
:103D300060E080E00E942C048BE995E0D4CE0E94E4
:103D40001E09E0903906F0903A06609115017091D5
:103D50001601C7010E94E222892B09F4E1CD0E94DD
:103D6000B8012B013C010091150110911601C7010A
:103D7000B8010E94E222081B190B68EE73E080E094
:103D800090E00E9485010E94830360E080E00E9431
:103D90002C048FEC95E00E94C30AC8010E94960A89
:103DA0008AED95E00E94C30A61E080E00E942C0445
:103DB00080EE95E00E94C30A812C912C54018091E1
:103DC000390690913A0660911501709116010E9492
:103DD000E222892B09F4A4CD0E94B8016419750967
:103DE0008609970928EE33E040E050E00E94F62271
:103DF00069017A01BBE0CB16D104E104F10488F536
:103E0000C814D904EA04FB0461F161E089E00E946E
:103E10002C041BA21AA21DA21CA21FA21EA22AE0F1
:103E2000AE014F5F5F4F6AE070E080E090E06C1998
:103E30007D098E099F090E941020BE016F5F7F4F90
:103E4000CE0182960E94F00DBE016E5D7F4F87E12C
:103E500097E00E94C501CE0182960E947E0E460127
:103E6000570164E670E080E090E00E948501809157
:103E70003F06882359F00E94B80160933B06709377
:103E80003C0680933D0690933E064ACDEAE0CE166E
:103E9000D104E104F10408F492CF42CDC501B4018C
:103EA0000E94C821A3CE181419040CF04DC0A1140F
:103EB000B10409F049C00115110509F445C084E0B9
:103EC000882E912C043011050CF4480160E080E04C
:103ED0000E942C048AEE95E00E94C30A61E080E013
:103EE0000E942C0489EF95E00E94C30AD6017C90C1
:103EF00061E0872D0E94EB0060911001709111012B
:103F0000072E000C880B990B0E94850160E0872D1D
:103F10000E94EB0080E293E00E947C096AE174E079
:103F200080E090E00E9485010E94830366E970E0D2
:103F300080E090E00E948501BFEFAB1ABB0A8A14B3
:103F40009B0421F608191909E4E0EE0EF11CFFEFBD
:103F5000CF1ADF0A5FCE82E70E94B60F10924106A9
:103F6000109240068EE68093140181E08093130145
:103F70000E94BC0B109236061092350610923A063B
:103F80001092390610923806109237060E941E09C8
:103F900010923F0610924106109240068EE68093E2
:103FA000140181E0809313010E94BC0B0C947716DE
:103FB0000E94830360E080E00E942C048AEB94E07E
:103FC0000E94C30A61E080E00E942C0483ED94E02B
:103FD0000E94C30A0E944609C1CF1E141F0454F652
:103FE0000E94830360E080E00E942C0485E096E05C
:103FF0000E94C30A61E080E00E942C0484E196E004
:104000000E94C30A0E944609B5CFBB274A3031F44B
:10401000992322F4BDE2909581959F4F0C94332013
:10402000BB27FA01A62F6217710581059105330B95
:1040300030FB66F0AA27660F771F881F991FAA1FFB
:10404000A21710F0A21B63953850A9F7A05DAA3300
:1040500008F0A95DA19336F7B111B1931082CA019E
:104060000C944C20BB27FB015527AA27880F991FCA
:10407000AA1FA41710F0A41B83955051B9F7A05D97
:10408000AA3308F0A95DA193009779F7B111B19314
:104090001192CB010C944C20DC01FC01672F719133
:1040A0007723E1F7329704C07C916D93708362911E
:1040B000AE17BF07C8F30895E89409C097FB3EF414
:1040C00090958095709561957F4F8F4F9F4F992365
:1040D000A9F0F92F96E9BB279395F69587957795E3
:1040E0006795B795F111F8CFFAF4BB0F11F460FFA3
:1040F0001BC06F5F7F4F8F4F9F4F16C0882311F0FB
:1041000096E911C0772321F09EE8872F762F05C00E
:10411000662371F096E8862F70E060E02AF09A95A9
:10412000660F771F881FDAF7880F9695879597F99E
:104130000895990F0008550FAA0BE0E8FEEF161638
:104140001706E807F907C0F012161306E407F5078B
:1041500098F0621B730B840B950B39F40A2661F0FF
:10416000232B242B252B21F408950A2609F4A140A2
:10417000A6958FEF811D811D08950E94D0200C947B
:1041800041210E94332138F00E943A2120F09523EA
:1041900011F00C942A210C94302111240C947521D7
:1041A0000E94522170F3959FC1F3950F50E0551F67
:1041B000629FF001729FBB27F00DB11D639FAA277C
:1041C000F00DB11DAA1F649F6627B00DA11D661FCB
:1041D000829F2227B00DA11D621F739FB00DA11DEC
:1041E000621F839FA00D611D221F749F3327A00DA6
:1041F000611D231F849F600D211D822F762F6A2F42
:1042000011249F5750409AF0F1F088234AF0EE0FA6
:10421000FF1FBB1F661F771F881F91505040A9F7D3
:104220009E3F510580F00C942A210C9475215F3F2C
:10423000E4F3983ED4F3869577956795B795F7950F
:10424000E7959F5FC1F7FE2B880F911D9695879587
:1042500097F9089597F99F6780E870E060E0089506
:104260009FEF80EC089500240A941616170618068E
:104270000906089500240A9412161306140605066A
:104280000895092E0394000C11F4882352F0BB0FFB
:1042900040F4BF2B11F460FF04C06F5F7F4F8F4F5E
:1042A0009F4F089557FD9058440F551F59F05F3F99
:1042B00071F04795880F97FB991F61F09F3F79F048
:1042C00087950895121613061406551FF2CF4695CA
:1042D000F1DF08C0161617061806991FF1CF86954C
:1042E0007105610508940895E894BB276627772730
:1042F000CB0197F90895F999FECF92BD81BDF89A47
:10430000992780B50895262FF999FECF1FBA92BD3F
:1043100081BD20BD0FB6F894FA9AF99A0FBE0196A6
:1043200008952F923F924F925F926F927F928F9259
:104330009F92AF92BF92CF92DF92EF92FF920F9334
:104340001F93CF93DF93CDB7DEB7CA1BDB0B0FB63E
:10435000F894DEBF0FBECDBF09942A8839884888FB
:104360005F846E847D848C849B84AA84B984C88491
:10437000DF80EE80FD800C811B81AA81B981CE0F88
:10438000D11D0FB6F894DEBF0FBECDBFED0108956D
:104390005058BB27AA270E94E0210C9441210E947B
:1043A000332138F00E943A2120F039F49F3F19F46C
:1043B00026F40C9430210EF4E095E7FB0C942A21AE
:1043C000E92F0E94522158F3BA1762077307840736
:1043D000950720F079F4A6F50C9474210EF4E0957D
:1043E0000B2EBA2FA02D0B01B90190010C01CA01AF
:1043F000A0011124FF27591B99F0593F50F4503E5A
:1044000068F11A16F040A22F232F342F4427585F4B
:10441000F3CF469537952795A795F0405395C9F763
:104420007EF41F16BA0B620B730B840BBAF091501B
:10443000A1F0FF0FBB1F661F771F881FC2F70EC0BA
:10444000BA0F621F731F841F48F48795779567958D
:10445000B795F7959E3F08F0B0CF9395880F08F079
:104460009927EE0F9795879508950E9449220C94FD
:1044700041210E943A2158F00E94332140F029F452
:104480005F3F29F00C942A2151110C9475210C9452
:1044900030210E94522168F39923B1F3552391F3FF
:1044A000951B550BBB27AA2762177307840738F0A3
:1044B0009F5F5F4F220F331F441FAA1FA9F335D000
:1044C0000E2E3AF0E0E832D091505040E695001CB4
:1044D000CAF72BD0FE2F29D0660F771F881FBB1F6E
:1044E000261737074807AB07B0E809F0BB0B802D4C
:1044F000BF01FF2793585F4F3AF09E3F510578F078
:104500000C942A210C9475215F3FE4F3983ED4F378
:10451000869577956795B795F7959F5FC9F7880F4B
:10452000911D9695879597F90895E1E0660F771F9D
:10453000881FBB1F621773078407BA0720F0621B2E
:10454000730B840BBA0BEE1F88F7E09508950E9459
:10455000AE226894B1110C94752108950E945A21DD
:1045600088F09F5798F0B92F9927B751B0F0E1F034
:10457000660F771F881F991F1AF0BA95C9F714C0E4
:10458000B13091F00E947421B1E008950C9474212F
:10459000672F782F8827B85F39F0B93FCCF386951D
:1045A00077956795B395D9F73EF49095809570957A
:1045B00061957F4F8F4F9F4F08950E94992008F477
:1045C0008FEF089597FB072E16F4009407D077FD20
:1045D00009D00E941E2307FC05D03EF490958195DA
:1045E0009F4F0895709561957F4F0895A1E21A2E0F
:1045F000AA1BBB1BFD010DC0AA1FBB1FEE1FFF1F87
:10460000A217B307E407F50720F0A21BB30BE40BD6
:10461000F50B661F771F881F991F1A9469F760951D
:104620007095809590959B01AC01BD01CF010895D7
:10463000EE0FFF1F0590F491E02D0994AA1BBB1B00
:1046400051E107C0AA1FBB1FA617B70710F0A61B92
:10465000B70B881F991F5A95A9F780959095BC01B3
:10466000CD0108950F931F93CF93DF93823091056F
:1046700010F482E090E0E0914507F091460730E0C9
:1046800020E0B0E0A0E0309799F42115310509F45D
:104690004AC0281B390B24303105D8F58A819B810B
:1046A0006115710589F1FB0193838283FE0111C0BD
:1046B000408151810281138148175907E0F0481762
:1046C000590799F4109761F012960C93129713966C
:1046D0001C933296CF01DF91CF911F910F910895D6
:1046E0000093450710934607F4CF2115310551F08B
:1046F0004217530738F0A901DB019A01BD01DF0120
:10470000F801C1CFEF01F9CF909346078093450799
:10471000CDCFFE01E20FF31F819391932250310917
:1047200039832883D7CF2091430730914407232B27
:1047300041F420911F0130912001309344072093D0
:10474000430720911D0130911E012115310541F4CF
:104750002DB73EB74091210150912201241B350B0A
:10476000E0914307F0914407E217F307A0F42E1BF2
:104770003F0B2817390778F0AC014E5F5F4F2417C5
:10478000350748F04E0F5F1F50934407409343078F
:10479000819391939FCFF0E0E0E09CCFCF93DF93A4
:1047A0000097E9F0FC01329713821282A09145072D
:1047B000B0914607ED0130E020E01097A1F4208190
:1047C0003181820F931F20914307309144072817AE
:1047D000390709F061C0F0934407E0934307DF9184
:1047E000CF910895EA01CE17DF07E8F54A815B8192
:1047F0009E0141155105B1F7E901FB83EA83499117
:104800005991C40FD51FEC17FD0761F48081918188
:104810000296840F951FE901998388838281938191
:104820009B838A83F0E0E0E012968D919C91139730
:104830000097B9F52D913C911197CD010296820F09
:10484000931F20914307309144072817390739F601
:10485000309751F51092460710924507B0934407E0
:10486000A0934307BCCFD383C28340815181840F7F
:10487000951FC817D90761F44E5F5F4F88819981F2
:10488000480F591F518340838A819B819383828380
:104890002115310509F0B0CFF0934607E0934507A5
:1048A0009ECFFD01DC01C0CF13821282D7CFB0E0D2
:1048B000A0E0EDE5F4E20C9493218C01009751F413
:1048C000CB010E9432238C01C801CDB7DEB7E0E1F5
:1048D0000C94AF21FC01E60FF71F9C012250310917
:1048E000E217F30708F49DC0D901CD91DC9111972F
:1048F000C617D70798F0C530D10530F3CE0104971D
:104900008617970708F3C61BD70B2297C193D1933D
:104910006D937C93CF010E94CE23D6CF5B01AC1A5E
:10492000BD0A4C018C0E9D1EA0914507B091460713
:10493000512C412CF12CE12C109731F5809143073B
:10494000909144078815990509F05CC046165706F2
:1049500008F058C080911D0190911E01009741F40C
:104960008DB79EB74091210150912201841B950B78
:10497000E817F90708F055C0F0934407E0934307A0
:10498000F90171836083A0CF8D919C91119712964C
:104990006C90129713967C901397A815B90559F54A
:1049A0006C0142E0C40ED11CCA14DB0420F1AC013E
:1049B0004A195B09DA011296159780F062827382B8
:1049C00051834083D9016D937C93E114F10471F01C
:1049D000D7011396FC93EE93129776CF22968C0F05
:1049E0009D1FF90191838083F301EFCFF093460778
:1049F000E093450769CF4816590608F42C017D015C
:104A0000D3019ACFCB010E9432237C01009749F059
:104A1000AE01B8010E941425C8010E94CE2387016F
:104A200053CF10E000E050CFFB01DC0102C0019049
:104A30000D9241505040D8F70895FB01DC010190E0
:104A40000D920020E1F70895F894FFCFC401000013
:104A5000001C120909121C000A003000DC050201CA
:104A60006E05001400881301000000470780000154
:104A700002030405060102050A1312110A000000D0
:104A8000007302D3010002C00231020F02230200B0
:104A90000000003B04D30142044104000000000573
:104AA00007A20645045343414E2043415244204847
:104AB000455245002020494E53455254204341530E
:104AC00048004E30204F462053544F434B533A003A
:104AD000456E746572206361706163697479006FFB
:104AE00066206F6E65205261636B3A00456E746597
:104AF0007220546F74616C205261636B0053657453
:104B00002050756C736520466F720052532E353AF3
:104B100020002050756C7365002050756C736573B0
:104B200000536574204361736820506572205061A2
:104B3000640020527570656573005365742043618D
:104B40007368204C696D6974004361736820576114
:104B500069742054696D650020536563004D61637D
:104B600068696E6520547970650052464944004377
:104B7000617368202F20436F696E00506164732059
:104B8000496E205261636B0046696C6C20416C6C0D
:104B9000205261636B00546F74616C205261636BCF
:104BA00073004D6F746F722054696D6500426174BB
:104BB00063682057726974650050756C7365205383
:104BC000657474696E67004D6F746F722054696DFF
:104BD0006520286D7329000D0A00205175616E74DF
:104BE00069747900506F7765726564204279004B73
:104BF000414943484F2047524F5550002D2D204BDF
:104C00004157414348202D2D005061642056656E68
:104C100064696E670057656C636F6D652042616300
:104C20006B000A4D616368696E6520547970652078
:104C30003A20000A4D6178696D756D205261636B91
:104C40003A20000A5261636B2043617061636974AA
:104C5000793A20000A50616420416D6F756E743A94
:104C600020000A5261636B2000205175616E7469E7
:104C700074793A200046696C6C20416C6C0050726B
:104C8000657373204F6B617900537563636573734C
:104C90002E2E004D6F6465005363616E2043617278
:104CA0006421004572726F722C204D656E75204331
:104CB00061726400446F6E650045786974696E675F
:104CC0002E2E2E00536176696E672E2E2E004361C4
:104CD00072642044657465637465642100506C657A
:104CE00061736520576169742E2E2E2E2E0043614C
:104CF0007264204465746563746564206173204642
:104D0000494C4C434152440046696C6C696E6720C3
:104D1000416C6C005261636B2056696120434152C3
:104D20004400436172642044657465637465642063
:104D30006173205245434843415244004D6F6465BE
:104D400020566961204341524400546869732069C8
:104D500073204D656E7520636172640045786974D7
:104D6000696E672E2E0055736520524543482043D7
:104D700041524400746F20657869742E2E0043619F
:104D800072642044657465637465642061732050A7
:104D900041444341524400536574205061642041B2
:104DA0006D6F756E74007669612043415244005006
:104DB000616420416D6F756E743A00577269746555
:104DC000204661696C6564005472792041676169AD
:104DD0006E004C65667420666F7220436172643A9F
:104DE00000526563656976652050616400546861AE
:104DF0006E6B20796F7521006D6F746F7220727504
:104E00006E6E696E6700536F72727900486F6C64E2
:104E1000206361726420666F722031536563004EB7
:104E20006F2053746F636B73004F70707321005A5F
:104E300065726F2042616C616E6365004572726FCE
:104E4000722052656164696E6700526563656976B8
:104E5000696E67204361736800506C6561736520FB
:104E6000776169742E2E2E005265636569766564DC
:104E70002052732E3500546F74616C3A20005265D5
:104E80006365697665642052732E31300052656324
:104E900065697665642052732E313500526563650D
:104EA000697665642052732E3230005265636569FD
:104EB0007665642052732E323500526563656976DB
:104EC00065642052732E33300052656365697665E0
:104ED000642052732E3335005265636569766564CC
:104EE0002052732E34300052656365697665642004
:104EF00052732E34350052656365697665642052BD
:104F0000732E353000496E76616C6964204E6F7483
:104F10006573005265616368656400496E7365720C
:104F2000742052732E00206D6F7265005761697492
:104F3000696E672E2E0044697370656E73696E67C3
:104F40002050616400436F6C6C656374204E6F7712
:104F500000496E76616C696420416D6F756E7400F6
:084F60004572726F72212100FD
:107E8000112424B614BE80E079D021FEEBC08EE030
:107E900075D0E0ECF0E0AFE7BFEF4899FECF9096E9
:107EA000489BFDCFB4831197F1F7B2E0B083B8E1FE
:107EB000B18352D0C82F823569F466D0E0E0FEE786
:107EC000A89583E093D091D0E058F109C8F787E7EF
:107ED0003CD0EFCF8D7FD9F44CD0D82FA0E0B1E0CB
:107EE0003BD08D93DA13FCCFA0E0B1E04DD0C111AF
:107EF0000CC0F2BDE1BD8D9180BDFA9AF99A319620
:107F0000F999FECFD150A9F7E2CF48D0E0CFC330E6
:107F100041F42FD0C82F38D0859117D0C150E1F748
:107F2000D6CFC13061F425D0C82F2ED0F2BDE1BD2F
:107F3000F89A80B50AD03196C150C1F7C8CFC13583
:107F400011F488E01BD020D0C2CF9091C00095FFE3
:107F5000FCCF8093C60008952D9A259A8091C00089
:107F600087FFFCCF84FD13C0A8958091C6002D9893
:107F70000895F2DFE82FF0DFF82FEECF98E190932D
:107F80006000809360000895E7DF803219F088E098
:107F9000F5DFFFCF80EAD9CFFB01DC01E07870E8A4
:107FA0007A0F9F01E0388EE7F80728F5309629F41C
:107FB0008FE38D938FEC8C93119790E045915D91B9
:107FC00045139160A713FACFF901A058B10990FFAA
:107FD00012C083E00BD081E00D901D9007D0329647
:107FE000A713FACFF90185E001D081E187BFE895B9
:107FF00017B610FCFDCF112408950319CDCFE7402B
:00000001FF
