:100000000C9467000C94FE100C94D7100C948F0085
:100010000C948F000C948F000C948F000C948F0024
:100020000C948F000C948F000C948F000C948F0014
:100030000C948F000C948F000C948F000C948F0004
:100040000C948D100C948F000C944B110C94251172
:100050000C948F000C948F000C948F000C948F00E4
:100060000C948F000C948F000000000024002700E7
:100070002A0000000000250028002B0000000000DE
:1000800023002600290004040404040404040202DA
:100090000202020203030303030302020301020438
:1000A00008102040800102040810200102040810FA
:1000B0002040804000000009000302000004050801
:1000C0000000000000000000000000007D1111246D
:1000D0001FBECFEFD8E0DEBFCDBF27E0A4EFB5E075
:1000E00001C01D92A232B207E1F715E0A0E0B1E035
:1000F000E6E4F5E402C005900D92A43FB107D9F7FC
:1001000010E0C7E6D0E004C02197FE010E949520D0
:10011000C636D107C9F70E94FA110C94A1220C949B
:1001200000008CBD9DBD0895843081F028F482309C
:10013000E9F08330F9F00895883071F0893091F05A
:100140008530B9F4809180008F7D03C0809180005C
:100150008F778093800008958091B0008F7780938F
:10016000B00008958091B0008F7DF9CF84B58F776E
:1001700084BD089584B58F7DFBCFCF93DF93282F67
:1001800030E0F901EC54FF4F8491F901E356FF4F41
:10019000D491F901EA57FF4FC491CC23A1F081110A
:1001A0000E949400EC2FF0E0EE0FFF1FE458FF4F89
:1001B000A591B491EC91ED2381E090E009F480E009
:1001C000DF91CF91089580E090E0FACF1F93CF9315
:1001D000DF93282F30E0F901EC54FF4F8491F901AF
:1001E000E356FF4FD491F901EA57FF4FC491CC2356
:1001F000A9F0162F81110E949400EC2FF0E0EE0F71
:10020000FF1FEE58FF4FA591B4918FB7F894EC9172
:10021000111108C0D095DE23DC938FBFDF91CF9101
:100220001F910895DE2BF8CFCF93DF9390E0FC0170
:10023000E356FF4F24918A579F4FFC0184918823F6
:10024000C9F090E0880F991FFC01E859FF4FA59174
:10025000B491FC01EE58FF4FC591D49161110DC0CE
:100260009FB7F8948C91209582238C9388812823C2
:1002700028839FBFDF91CF910895623051F49FB7DB
:10028000F8943C91822F809583238C93E8812E2BC8
:10029000EFCF8FB7F894EC912E2B2C938FBFEACF32
:1002A0008130910539F0880F991F880F991F0597A4
:1002B0000197F1F708953FB7F89480912306909144
:1002C0002406A0912506B091260626B5A89B05C058
:1002D0002F3F19F00196A11DB11D3FBFBA2FA92FC5
:1002E000982F8827BC01CD01620F711D811D911DC2
:1002F00042E0660F771F881F991F4A95D1F708952E
:100300008F929F92AF92BF92CF92DF92EF92FF9225
:100310006B017C010E945B014B015C01C114D104A3
:10032000E104F104B9F00E945B01681979098A09B6
:100330009B09683E73408105910580F321E0C21A54
:10034000D108E108F10888EE880E83E0981EA11C10
:10035000B11CE4CFFF90EF90DF90CF90BF90AF90B3
:100360009F908F9008952FB7F89460911F06709119
:10037000200680912106909122062FBF08950895AE
:10038000DB0114964D915C9115976D917C91DC0188
:10039000ED91FC910280F381E02D0994AF92BF9220
:1003A000CF92DF92EF92FF920F931F93CF93DF9341
:1003B0006C017B018B01040F151FEB015E01AE1870
:1003C000BF08C017D10759F06991D601ED91FC9192
:1003D0000190F081E02DC6010995892B79F7C501BF
:1003E000DF91CF911F910F91FF90EF90DF90CF9011
:1003F000BF90AF900895FC01538D448D252F30E0C0
:10040000842F90E0821B930B541710F0CF96089521
:1004100001970895FC01918D828D981761F0A28D4E
:10042000AE0FBF2FB11D5D968C91928D9F5F9F7314
:10043000928F90E008958FEF9FEF0895FC01918DCA
:10044000828D981731F0828DE80FF11D858D90E037
:1004500008958FEF9FEF0895FC01918D228D892FD4
:1004600090E0805C9F4F821B91098F7399270895BC
:100470008DE396E00E942C0221E0892B09F420E014
:10048000822F089580E090E0892B29F00E943802A5
:1004900081110C9400000895FC01A48DA80FB92FC0
:1004A000B11DA35ABF4F2C91848D90E001968F739C
:1004B0009927848FA689B7892C93A089B1898C91BB
:1004C000837080648C93938D848D981306C002880A
:1004D000F389E02D80818F7D80830895EF92FF92D4
:1004E0000F931F93CF93DF93EC0181E0888F9B8D57
:1004F0008C8D98131AC0E889F989808185FF15C011
:100500009FB7F894EE89FF896083E889F989808133
:100510008370806480839FBF81E090E0DF91CF9102
:100520001F910F91FF90EF900895F62E0B8D10E024
:100530000F5F1F4F0F731127E02E8C8D8E110CC093
:100540000FB607FCFACFE889F989808185FFF5CFDE
:10055000CE010E944C02F1CFEB8DEC0FFD2FF11D6F
:10056000E35AFF4FF0829FB7F8940B8FEA89FB891B
:1005700080818062CFCFCF93DF93EC01888D882379
:10058000B9F0AA89BB89E889F9898C9185FD03C0F6
:10059000808186FD0DC00FB607FCF7CF8C9185FFDB
:1005A000F2CF808185FFEDCFCE010E944C02E9CFD2
:1005B000DF91CF910895CF93DF93EC0160E08E81BE
:1005C0000E94E60081E090E00E94500161E08E818F
:1005D0000E94E60081E090E00E94500160E08E8180
:1005E0000E94E60084E690E0DF91CF910C945001E8
:1005F000CF92DF92EF92FF920F931F93CF93DF93EF
:100600006C017C0187E0E80EF11CD0E0C0E0062F11
:1006100010E0B8010C2E02C0759567950A94E2F7B8
:100620006170F70181917F010E94E6002196C4303C
:10063000D10579F7C601DF91CF911F910F91FF90FE
:10064000EF90DF90CF900C94DB02CF92DF92EF928D
:10065000FF920F931F93CF93DF93EC01F62E642F3D
:100660008C810E94E6008D818F3F19F060E00E942E
:10067000E6000F2D10E08F8584FF25C06E0187E016
:10068000C80ED11CF12CE12CB8010E2C02C07595BE
:1006900067950A94E2F76170F60181916F010E94FB
:1006A000E600FFEFEF1AFF0A88E0E816F10461F7B1
:1006B000CE01DF91CF911F910F91FF90EF90DF90CE
:1006C000CF900C94DB02B80184E0759567958A950C
:1006D000E1F7CE010E94F8026F2DCE01DF91CF919C
:1006E0001F910F91FF90EF90DF90CF900C94F80244
:1006F00040E0682F82EF96E00C94250381E00E9491
:10070000780380ED97E00C945001CF93DF93823013
:1007100029F4909101079860909301078093050751
:100720001092060780E48093070780E18093080712
:1007300080E58093090761E08091F6060E9414012C
:100740008091F7068F3F19F061E00E94140161E08B
:100750008091F8060E941401C2EFD6E09E01225F4C
:1007600036408091010784FD0BC084E090E0219623
:100770002817390744F461E08E810E941401EECFFE
:1007800088E090E0F4CF80E593EC0E94500160E0B7
:100790008091F6060E94E60060E08091F8060E94D3
:1007A000E6008091F7068F3F19F060E00E94E600B6
:1007B0008091010784FD35C063E082EF96E00E94DE
:1007C000F80284E991E10E94500163E082EF96E033
:1007D0000E94F80284E991E10E94500163E082EFF7
:1007E00096E00E94F80286E990E00E94500162E0E3
:1007F00082EF96E00E94F8028091010780620E94D9
:10080000780384E0809302078CE00E9478030E94C2
:100810007E0382E08093030786E0DF91CF910C9402
:10082000780380620E94780384E991E10E9450017C
:100830008091010780620E94780386E990E00E941F
:1008400050018091010780620E947803D5CF90917A
:100850000507691710F06FEF690FE62FF0E0EE5013
:10086000F94F9489890F80680C94780341E00E94C5
:10087000250381E090E00895089590E080E00895D8
:10088000BC016E5F7F4FDC01ED91FC910190F08126
:10089000E02D40E0099591E0811190E0892F0895C5
:1008A00008958EBD00000DB407FEFDCF8EB50895EE
:1008B000DF92EF92FF920F931F93CF93DF937C0110
:1008C000062FD42E152F80E590E00E94910060E065
:1008D000F70186850E94E60082E10E945104CD2D39
:1008E000D12F0C0F1D2F111DC017D10721F0899199
:1008F0000E945104F9CF61E0F7018685DF91CF9125
:100900001F910F91FF90EF90DF900C94E6001F93E2
:10091000CF93DF93EC01162F80E590E00E949100C9
:1009200060E08E850E94E600812F80680E9451045D
:1009300080E00E945104182F61E08E850E94E6003D
:10094000812FDF91CF911F9108950F931F93CF9324
:10095000DF93EC01062F142F80E590E00E949100B8
:1009600060E08E850E94E600802F0E945104812F56
:100970000E94510461E08E85DF91CF911F910F910C
:100980000C94E600CF92DF92EF92FF920F931F93A9
:10099000CF93DF93EC016B01F42E890140E062E01C
:1009A0000E94A50444E06AE0CE010E94A50440E84C
:1009B00064E1CE010E94A504A6016F2DCE010E9424
:1009C000580443E062E0CE010E94A5040E94B301F6
:1009D0006B017C0129E5C20ED11CE11CF11C6AE00F
:1009E000CE010E94870482FF1BC040E062E0CE017E
:1009F0000E94A50464E4CE010E948704F80180836C
:100A000062E4CE010E948704F801818380E0DF91D7
:100A1000CF911F910F91FF90EF90DF90CF900895AD
:100A20000E94B3016C157D058E059F05C0F283E021
:100A3000EECF2F923F924F925F926F927F928F9262
:100A40009F92AF92BF92CF92DF92EF92FF920F935D
:100A50001F93CF93DF9300D0CDB7DEB73C01162FA5
:100A6000942E290180E0A114B10411F0F5018081D8
:100A7000382C329490EF3922380E40E062E0C30106
:100A80000E94A5044FE768E0C3010E94A50440E866
:100A900064E1C3010E94A504A201602FC3010E946A
:100AA0005804432D6AE1C3010E94A504412F62E06E
:100AB000C3010E94A5041C3051F46AE1C3010E94E5
:100AC0008704482F40686AE1C3010E94A5040E9480
:100AD000B3011B012C01F4E22F0E311C411C511CEF
:100AE00068E0C3010E948704982F992109F0B6C0DD
:100AF00080FF16C083E00F900F90DF91CF911F9180
:100B00000F91FF90EF90DF90CF90BF90AF909F90AC
:100B10008F907F906F905F904F903F902F900895AF
:100B20000E94B3016215730584059505C8F2E2CFF2
:100B3000E114F10409F467C0C114D10409F463C0DD
:100B400064E1C3010E948704982EF6018081891513
:100B500008F47EC090829920C9F180E590E00E945F
:100B6000910060E0F30186850E94E6009A9482E994
:100B70000E945104882099F00FEF10E001C0000F8F
:100B80008A94EAF782E90E945104902F9095F70128
:100B9000208192238023982B90838824839487013B
:100BA000080D111D891440F482E90E945104F801D6
:100BB00081938F018394F6CF80E00E945104F80165
:100BC000808361E0F30186850E94E60068E1C3014D
:100BD0000E9487048770A114B10411F0F50180838D
:100BE00053FC38C0E114F104B9F1C114D104A1F1EE
:100BF0009F89992389F1F6014081413031F4843095
:100C000029F58FEF78CF80E0EBCF4230F8F08111FB
:100C10001DC042509E012F5F3F4FB701C3010E948C
:100C2000C204811168CFF6019081E90EF11CF70131
:100C3000329720819981291309C0F1E0EF1AF10858
:100C4000F70120819A81291709F455CF87E053CF06
:100C500084E051CF82E04FCF80E04DCF6CE0C30104
:100C60000E948704582E837109F462CF81E043CF3C
:100C70008F92AF92BF92CF92DF92EF92FF920F933B
:100C8000CF93DF93CDB7DEB72C970FB6F894DEBFC6
:100C90000FBECDBF89836A83E7E3F6E0DE011396DA
:100CA00081918D9386E0ED33F807D1F7E0910C0741
:100CB000E150FF0BE65FF84FDE011996CE010D966D
:100CC00021912D93A817B907D9F71F92812CB12C28
:100CD000A12CD12CC12CF12CE12C0CE09E012F5F1A
:100CE0003F4F40E16EE08AE097E00E9419050F90C7
:100CF0002C960FB6F894DEBF0FBECDBFDF91CF911B
:100D00000F91FF90EF90DF90CF90BF90AF908F90BA
:100D100008950F931F93CF93DF938C01D62FC42F89
:100D20000E948704C0954C2F48236D2FC801DF9186
:100D3000CF911F910F910C94A5046F927F928F9287
:100D4000AF92BF92CF92DF92EF92FF920F93CF9329
:100D5000DF9300D000D01F92CDB7DEB73C0182E018
:100D60008D8340E064E2C3010E94A50440E066E296
:100D7000C3010E94A50446E268E4C3010E94A504E1
:100D800086E28B838D818230C8F140E86CE1C3013B
:100D90000E94890687E08C831F92812CCE010496E5
:100DA0005C0101966C0104977C0101E09E012D5FBE
:100DB0003F4F40E36CE0C3010E941905982F0F904C
:100DC000811119C08D818230C9F48C81811116C0C6
:100DD00081E00F900F900F900F900F90DF91CF91C7
:100DE0000F91FF90EF90DF90CF90BF90AF908F90DA
:100DF0007F906F90089581E0923059F380E0E9CFC1
:100E00002F923F924F925F926F927F928F929F921A
:100E1000AF92BF92CF92DF92EF92FF920F931F9308
:100E2000CF93DF93CDB7DEB72E970FB6F894DEBF22
:100E30000FBECDBF06E0413508F046C14E873B01ED
:100E40002C0140E86CE10E94890683E989832E85A4
:100E5000222329F081E0F3019081953008F480E0AD
:100E6000992493941C869C85990F990F990F1E8540
:100E7000191B17FD10E032E0882319F098E89B83D6
:100E800033E021E0912F977009F420E0912F9595A0
:100E900095959595290FD1F094E0811193E029174C
:100EA00008F4922F2C85E22FF0E03196E60DF71D25
:100EB000232F4191A1E0B0E0AC0FBD1FA20FB11DE7
:100EC0004C932F5F422F431B491798F38111185FF2
:100ED00010320CF484C080E78A838B819C8189273F
:100EE0009D8189279E8189278F839E01285F3F4F9F
:100EF00047E0BE016F5F7F4FC2010E94C204082F0E
:100F00008111E2C01A8693E09B871D87FE01379608
:100F10001F0109E08A84482D4295407F480D6AE10F
:100F2000C2010E94A5041F92CE010A965C01FE0137
:100F30003B966F0171019E012F5F3F4F40E36CE0D4
:100F4000C2010E941905082F0F90823009F065C078
:100F50006CE1C2010E94870485FDB6C08F7109F45F
:100F600080E2282F30E0412F110F550B4217530715
:100F70000CF09EC0182FE22FE595E595E595EF5F03
:100F8000922F977081E009F480E0E80F81E090E013
:100F90008C0F9D1F8E0F911DFC0121503109277070
:100FA000332781E090E002C0880F991F2A95E2F76D
:100FB0009C018081822B80838BCF85E98983FE858C
:100FC000FF2331F081E0F3019081983008F04BCF9E
:100FD00080E049CF87E98983F6E0FC87F9CF912F3C
:100FE00097709A87812F8595859585958E5F282F97
:100FF0002295207F290F2A8301E0911101C000E092
:10100000080F22242394312C2C0E3D1E280E311C57
:10101000F9E0F81BFB871D877DCF811155C010E2D9
:101020009D8590320CF457CF8B81883809F042C0EF
:1010300083E093E02C85E22FF0E03196E60DF71D7A
:10104000980FA1E0B0E0AC0FBD1FA80FB11D2C910F
:1010500021938F5F8913F5CF8B858C87833009F0BF
:101060004DC08A8581114AC09E012D5F3F4F41E0EE
:10107000B101C2010E94C204082F811125C09B81C9
:10108000F101818198133CC09C818281981338C002
:10109000808182FF12C09394F2E09F1609F48DCFF5
:1010A00023E0921609F496CF81E0981609F4CDCE8C
:1010B00005E00AC082E094E0BDCFF3018387892D6B
:1010C000880F980E93949082802F2E960FB6F894E6
:1010D000DEBF0FBECDBFDF91CF911F910F91FF906B
:1010E000EF90DF90CF90BF90AF909F908F907F90C8
:1010F0006F905F904F903F902F90089501E0E4CF64
:1011000007E0E2CF8F92AF92BF92CF92DF92EF9241
:10111000FF920F93CF93DF9300D000D0CDB7DEB70F
:1011200080E589831A829E012D5F3F4F42E0BE0118
:101130006F5F7F4F8AE097E00E94C204811113C065
:101140001F92812CB12CA12CD12CC12CF12CE12C83
:1011500004E09E012F5F3F4F40E36CE08AE097E0A0
:101160000E9419050F9048E060E18AE097E00E9434
:1011700089060F900F900F900F90DF91CF910F91F4
:10118000FF90EF90DF90CF90BF90AF908F90089539
:101190008F92AF92BF92CF92DF92EF92FF920F9316
:1011A000CF93DF931F92CDB7DEB782E1898363E0EF
:1011B00080E60E94380691E081112EC0898182313B
:1011C00010F490E029C080E38093FE0582E08093D4
:1011D000FF0520E036E042E06EEF75E08AE097E040
:1011E0000E94C2048111EDCF81E08F93812CB12C3C
:1011F000A12CCE0101966C018EEFE82E85E0F82E31
:1012000004E0970140E36CE08AE097E00E94190552
:1012100091E00F908111D5CF892F0F90DF91CF9161
:101220000F91FF90EF90DF90CF90BF90AF908F9095
:10123000089560E08AE00C94E60061E08AE00C9496
:10124000E600CF93C0911D06C130C9F40E941D096C
:101250008091120690911306019690931306809345
:101260001206809112069091130660911A017091F6
:101270001B010E945F20892B11F4C0931A06CF91A5
:10128000089561E080E10E94E60060E971E080E09D
:1012900090E00E94800160E080E10E94E60060E949
:1012A00071E080E090E00E94800161E080E10E94B6
:1012B000E60060E971E080E090E00E94800160E07B
:1012C00080E10E94E60060E971E080E090E00E9429
:1012D000800161E080E10E94E60060E971E080E069
:1012E00090E00E94800160E080E10C94E600CF93E2
:1012F000DF93EC0161E080E10E94E600BE01DD0FBA
:10130000880B990B0E94800160E080E1DF91CF9112
:101310000C94E60040910F0150E0EAEDF6E030E079
:1013200020E090E080E02417350744F4608171816B
:10133000860F971F2F5F3F4F3496F5CF089540914A
:101340000F0150E0EAEDF6E030E020E02417350729
:1013500034F4918380832F5F3F4F3496F7CF089505
:101360008F92AF92BF92CF92DF92EF92FF920F9344
:10137000CF93DF93CDB7DEB764970FB6F894DEBF97
:101380000FBECDBF062FE62EF12CA701BC01CE016A
:1013900001960E94912221E030E02C0F3D1F2E0D7E
:1013A0003F1D402FBE016F5F7F4F8AE097E00E9494
:1013B000C204811123C082E18C8B1B8A0E5F1F92B5
:1013C000812CCE0143965C0101966C0143977C0110
:1013D0009C0140E36CE08AE097E00E9419050F90C1
:1013E00081110CC08C898130D1F48B898430B9F49F
:1013F00081E099819A3009F480E0819564960FB676
:10140000F894DEBF0FBECDBFDF91CF910F91FF905B
:10141000EF90DF90CF90BF90AF908F90089581E0D4
:10142000EDCFCF93DF9300D0CDB7DEB763E081E699
:101430000E943806811112C080EA898382E08A8383
:1014400062E0CE0101960E94B00981110DC060E1F9
:1014500087E296E00E94B009811106C081E00F90FA
:101460000F90DF91CF91089580E0F9CFFB010190BB
:101470000020E9F73197AF01461B570BDC01ED91D6
:10148000FC910280F381E02D09948F929F92AF929C
:10149000BF92EF92FF920F931F93CF93DF93CDB73D
:1014A000DEB7A1970FB6F894DEBF0FBECDBF7C01AB
:1014B000FA01CB0119A2223008F42AE08E010F5D57
:1014C0001F4F822E912CB12CA12CBF01A50194019C
:1014D0000E947320F901CA016A300CF5605DD801E1
:1014E0006E938D01232B242B252B79F790E080E040
:1014F000109721F0BD01C7010E94360AA1960FB6D0
:10150000F894DEBF0FBECDBFDF91CF911F910F9139
:10151000FF90EF90BF90AF909F908F900895695C7F
:10152000DECFCF92DF92EF92FF926C01990FEE081F
:10153000FF08F7FE18C041E06DE282EF96E00E94DE
:10154000250344275527BA014C195D096E097F0907
:101550002AE082EF96E00E94450A0196FF90EF9004
:10156000DF90CF9008952AE0B701A60182EF96E0C0
:10157000FF90EF90DF90CF900C94450ABC0182EF72
:1015800096E00C94360A0E947E0360E080E00E94A0
:10159000270480911D06811113C088E591E00E9407
:1015A000BE0A61E080E00E94270485E791E00E9486
:1015B000BE0A0E948A090E94910A1092140108959D
:1015C000813079F787E691E0EACF0E947E0360E000
:1015D00080E00E94270483E891E00E94BE0A61E057
:1015E00080E00E94270440910F0150E070E060E02D
:1015F0002AE082EF96E00C94450A0E947E0360E0A8
:1016000080E00E94270484E991E00E94BE0A61E024
:1016100080E00E94270482EA91E00E94BE0A809145
:101620001A0190911B010E94910A80911A019091D8
:101630001B01019721F489EA91E00C94BE0A80EB2A
:1016400091E0FBCF0E947E0360E080E00E942704CF
:1016500088EB91E00E94BE0A61E080E00E942704CE
:1016600080911601909117010E94910A87EC91E0F8
:101670000C94BE0A0E947E0360E080E00E94270472
:101680008FEC91E00E94BE0A61E080E00E94270496
:1016900080911D06811104C08CED91E00C94BE0A6E
:1016A000813019F481EE91E0F9CF08950E947E0314
:1016B00060E080E00E9427048BE794E00E94BE0A6D
:1016C00061E080E00E942704809110019091110157
:1016D0000C94910A80911B0690911C06009719F0BA
:1016E000019771F008958091140181110E94C30A3D
:1016F0001092F6051092F5058EE680931501089577
:101700008091F705882309F412C1E091F505F09165
:10171000F605E830F10508F00AC1EF56F44F0C94D5
:101720009520990BB40BC80BE20BFC0B340C5B0C33
:10173000790C0E947E0360E080E00E94270460E054
:1017400082EF96E00E94360460E082E00E94270467
:101750008DEE91E00E94BE0A61E082E00E942704C3
:101760008AEF91E00C94BE0A0E947E0360E082E062
:101770000E9427048DEE91E00E94BE0A61E080E0A5
:101780000E94270460E082EF96E00E943604E4CFD6
:101790000E947E0360E082E00E9427048AEF91E0CD
:1017A0000E94BE0A61E080E00E94270460E082EFB0
:1017B00096E00E94360461E082E00E94270488E0FF
:1017C00092E0D0CF0E947E0360E082E00E94270476
:1017D00088E092E00E94BE0A61E080E00E94270457
:1017E00060E082EF96E00E94360461E082E00E94B1
:1017F000270484E192E0B6CF80911D068130D1F4B8
:101800000E947E0360E082E00E94270484E192E06F
:101810000E94BE0A61E080E00E94270460E082EF3F
:1018200096E00E94360461E082E00E9427048FEC7B
:1018300091E098CF0E947E0360E082E00E9427043E
:1018400084E192E00E94BE0A61E080E00E942704E9
:1018500060E082EF96E00E94360461E082E00E9440
:1018600027048FE192E07ECF80911D06811109C08F
:101870000E947E0360E082E00E9427048FE192E0F4
:10188000C7CF0E947E0360E082E00E9427048FECB5
:1018900091E00E94BE0A61E080E00E94270460E0BF
:1018A00082EF96E00E94360461E082E00E94270405
:1018B0008CEB91E057CF80911D068130C1F50E94DD
:1018C0007E0360E082E00E9427048CEB91E00E949E
:1018D000BE0A61E080E00E94270460E082EF96E0AB
:1018E0000E94360461E082E00E9427048BE292E0CD
:1018F00039CF80911D068130D1F40E947E0360E0D3
:1019000082E00E9427048BE292E00E94BE0A61E01E
:1019100080E00E94270460E082EF96E00E94360497
:1019200061E082E00E94270489E392E01BCF0895E2
:101930000E947E0360E080E00E94270488E492E039
:101940000E94BE0A61E080E00E94270480910D01A0
:1019500090910E010C94910ACF93DF93BC018DE31B
:1019600096E00E94360AEC0168E572E08DE396E0AD
:101970000E94360A8C0F9D1FDF91CF9108950F931F
:101980001F93CF93DF93EC0188819981009759F0E1
:101990002A813B812617370730F081E0DF91CF9114
:1019A0001F910F9108958B016F5F7F4F0E94D4218B
:1019B000009759F0998388831B830A832C813D818A
:1019C000232B59F7FC011082E8CF80E0E7CFEF929C
:1019D000FF920F931F93CF93DF936115710541F42D
:1019E00080E0DF91CF911F910F91FF90EF900895CC
:1019F00041155105B1F07B01EC010C811D81040FF3
:101A0000151FB8010E94BF0C882351F3288139812A
:101A10008C819D81B701820F931F0E949A221D83A2
:101A20000C8381E0DECFFB014481558160817181AF
:101A30000C94E70CCF93DF93EC0188819981009798
:101A400011F00E944B21198218821D821C821B8278
:101A50001A82DF91CF910895CF93DF93EC01FB01C0
:101A600044815581608171810E94E70C811103C01E
:101A7000CE010E941A0DCE01DF91CF910895EF9211
:101A8000FF920F931F93CF93DF93EC017B018A01A9
:101A9000BA010E94BF0C81110BC0CE010E941A0D29
:101AA000CE01DF91CF911F910F91FF90EF9008959C
:101AB0001D830C83B701888199810E949A22F0CFFF
:101AC000EF92FF920F931F93CF93DF93CDB7DEB7C3
:101AD00029970FB6F894DEBF0FBECDBF8C01862FBD
:101AE000F8011182108213821282158214824AE058
:101AF0009E012F5F3F4F7901B90190E00E94451E82
:101B0000F70101900020E9F73197AF014E195F0905
:101B1000B701C8010E943F0D29960FB6F894DEBFA9
:101B20000FBECDBFDF91CF911F910F91FF90EF902E
:101B30000895EF92FF920F931F93CF93DF93CDB74A
:101B4000DEB762970FB6F894DEBF0FBECDBF8C0133
:101B5000CB01F80111821082138212821582148245
:101B60004AE09E012F5F3F4F7901B9010E943A1E62
:101B7000F70101900020E9F73197AF014E195F0995
:101B8000B701C8010E943F0D62960FB6F894DEBF00
:101B90000FBECDBFDF91CF911F910F91FF90EF90BE
:101BA0000895FB01DC0111961C921E9213961C9263
:101BB0001E92129715961C921E92149786179707DD
:101BC00049F0608171816115710521F04481558171
:101BD0000C943F0D0895FC01118210821382128231
:101BE00015821482FB0101900020E9F73197AF01C3
:101BF000461B570B0C943F0DFC018081918100978F
:101C000011F00C944B210895EF92FF920F931F93C4
:101C1000CF93DF93CDB7DEB762970FB6F894DEBFF0
:101C20000FBECDBF082F10E0B8016F5F7F4FCE0110
:101C300007960E94990D6FE871E0CE0101960E940F
:101C4000EB0DBE01695F7F4FCE0101960E942C0D06
:101C50007C0149E050E06BE572E00E94E70C8111E5
:101C600003C0C7010E941A0DB701CE010D960E9454
:101C7000D10DCE0101960E94FC0DCE0107960E9467
:101C8000FC0D0E947E0360E080E00E942704BE01FC
:101C9000635F7F4F82EF96E00E94C00161E080E0C9
:101CA0000E942704000F111F000F111FF801E652B8
:101CB000F94F808191810E94910ACE010D960E9478
:101CC000FC0D62960FB6F894DEBF0FBECDBFDF915C
:101CD000CF911F910F91FF90EF9008950F931F9355
:101CE000CF93DF938C01EB010E946A1F8883C801A8
:101CF00001960E946A1F8983CE01DF91CF911F91C7
:101D00000F9108950C946A1FFF920F931F93CF9326
:101D1000DF93EC018B01FB01F0800E946A1FF81633
:101D200021F06F2DCE010E94721FF801F1802196E3
:101D3000CE010E946A1FF81621F06F2DCE010E947D
:101D4000721FC801DF91CF911F910F91FF900895ED
:101D50000C94721FCF93DF93843741F460911D067A
:101D600089E190E0DF91CF910C94A80E8D3429F495
:101D700060910F018EE190E0F5CF8937C1F5609158
:101D80001D0689E190E00E94A80E60910F018EE18E
:101D900090E00E94A80E609110018FE090E00E94F8
:101DA000A80E6EE180911201909113010E94A80E7D
:101DB000C0910D0160910E018AE090E00E94A80E92
:101DC0006C2F8BE090E00E94A80EC2E2D1E020913F
:101DD0000F01CE018252914028171906A1F19CF102
:101DE00089916091120190E00E94A80EF0CF833695
:101DF00041F466E171E083E290E0DF91CF910C94D1
:101E0000840E803719F56AE171E088E290E00E9463
:101E1000840E60911A0170911B01072E000C880B33
:101E2000990B0E94711E9B01AC0160E070E080EA9A
:101E300090E40E94B71F60931A0770931B0780936A
:101E40001C0790931D07DF91CF9108958737D9F72D
:101E500068E171E08DE290E0D0CF0F931F93CF93B4
:101E6000DF938237B1F4CAEDD6E002E211E02091AF
:101E70000F01C8018252914028171906D1F0CCF009
:101E8000F80181918F01688190E00E94A80E24964C
:101E9000EECF863641F38D36B1F4C0910D016091DD
:101EA0000E018AE090E00E94A80E6C2F8BE090E07B
:101EB00004C06091120184E190E0DF91CF911F9105
:101EC0000F910C94A80E823629F4609110018FE0D6
:101ED00090E0F3CFDF91CF911F910F910C94AA0E58
:101EE0000E947E0360E080E00E94270485E692E085
:101EF0000E94BE0A61E080E00E94270484E792E02D
:101F00000E94BE0A80911201909113010E94910AD1
:101F100086E60C942D0F9F92AF92BF92CF92DF92E4
:101F2000EF92FF920F931F93CF93DF93EC010E94E8
:101F30008A09892B09F4DCC00AED16E09CE2E92E3F
:101F400091E0F92E20910F01C7018C529140281782
:101F5000190609F00CF4B2C01C161D060CF0AEC038
:101F6000F801A080B1800E947E03F801C080D1807A
:101F70001C141D040CF043C0209709F499C060E0C4
:101F800080E00E94270481E892E00E94BE0A61E09E
:101F900080E00E94270480E992E00E94BE0AF701D7
:101FA000D08061E08D2D0E94E60060910D0170915E
:101FB0000E01072E000C880B990B0E94800160E037
:101FC0008D2D0E94E600F80180819181009719F023
:101FD000019791838083219780E293E00E947709A3
:101FE0006AE174E080E090E00E9480010E947E033C
:101FF00066E970E080E090E00E948001B6CF1A149C
:102000001B040CF055C0C114D10409F051C0209735
:1020100009F44EC05E01C430D1051CF084E0A82E46
:10202000B12C60E080E00E94270481E892E00E94E9
:10203000BE0A61E080E00E94270480E992E00E94ED
:10204000BE0AF701908061E0892D0E94E600609150
:102050000D0170910E01072E000C880B990B0E9448
:10206000800160E0892D0E94E600F8018081918165
:10207000009719F001979183808380E293E00E949A
:1020800077096AE174E080E090E00E9480010E949C
:102090007E0366E970E080E090E00E948001FFEF3F
:1020A000CF1ADF0AAC14BD0409F0BBCFCA19DB0993
:1020B0000C5F1F4F8FEFE81AF80A44CF82E70E94A7
:1020C0002D0F10921C0610921B068EE680931501B0
:1020D00081E080931401DF91CF911F910F91FF90C8
:1020E000EF90DF90CF90BF90AF909F900C946A0BD1
:1020F0000E947E0360E080E00E9427048CE992E069
:102100000E94BE0A61E080E00E94270482EA92E019
:102110000E94BE0A0E944109D4CF1F920F920FB6AF
:102120000F9211242F933F938F939F93AF93BF935D
:1021300080911F0690912006A0912106B091220661
:1021400030911E0623E0230F2D3768F126E8230F78
:102150000296A11DB11D20931E0680931F06909329
:102160002006A0932106B093220680912306909129
:102170002406A0912506B09126060196A11DB11D49
:102180008093230690932406A0932506B0932606F9
:10219000BF91AF919F918F913F912F910F900FBE63
:1021A0000F901F9018950196A11DB11DD4CF1F92BD
:1021B0000F920FB60F9211242F933F934F935F937B
:1021C0006F937F938F939F93AF93BF93EF93FF93FF
:1021D000E0910201F09103010995FF91EF91BF9108
:1021E000AF919F918F917F916F915F914F913F91AF
:1021F0002F910F900FBE0F901F9018951F920F9266
:102200000FB60F9211242F933F934F935F936F93C9
:102210007F938F939F93AF93BF93EF93FF93E0913F
:102220000001F09101010995FF91EF91BF91AF91EC
:102230009F918F917F916F915F914F913F912F91DE
:102240000F900FBE0F901F9018951F920F920FB610
:102250000F9211242F933F934F935F936F937F932C
:102260008F939F93AF93BF93EF93FF938DE396E08C
:102270000E944C02FF91EF91BF91AF919F918F917E
:102280007F916F915F914F913F912F910F900FBE72
:102290000F901F9018951F920F920FB60F92112456
:1022A0002F938F939F93EF93FF93E0914D06F091BF
:1022B0004E068081E0915306F091540682FD1BC0CA
:1022C0009081809156068F5F8F73209157068217F9
:1022D00041F0E0915606F0E0E35CF94F958F809372
:1022E0005606FF91EF919F918F912F910F900FBE06
:1022F0000F901F9018958081F4CFEDE3F6E01382E4
:10230000128288EE93E0A0E0B0E084839583A683F8
:10231000B78384E391E09183808385EC90E0958797
:10232000848784EC90E09787868780EC90E0918B9F
:10233000808B81EC90E0938B828B82EC90E0958B8C
:10234000848B86EC90E0978B868B118E128E138E89
:10235000148E60911A0170911B01072E000C880BDE
:10236000990B0E94711E9B01AC0160E070E080EA55
:1023700090E40E94B71F60931A0770931B07809325
:102380001C0790931D07EAE0F7E082E591E0918356
:1023900080838AE0868782E08787E2EFF6E0138217
:1023A000128286E491E09183808384E084838FEFBE
:1023B000858385E0868386E0878387E0808788E061
:1023C000818789E08287138614861586168617868C
:1023D00081E00E948503EAEDF6E011821082158209
:1023E00014821186108615861486118A108A158A21
:1023F000148A0895CF93DF93CDB7DEB768970FB6F1
:10240000F894DEBF0FBECDBF789484B5836084BDE1
:1024100085B5836085BD80916E00816080936E007C
:1024200092E090938100809181008160809381008F
:10243000809180008160809380008091B1008460F1
:102440008093B1008091B00081608093B00087E8F4
:1024500080937A001092C100E0914D06F0914E06F3
:102460009083E0914906F0914A061082E0914B0674
:10247000F0914C068FEC808310925506E091510646
:10248000F091520686E08083E0914F06F09150066D
:10249000808188698083E0914F06F09150068081A9
:1024A0008F7D808382E00E94850380E40E94780310
:1024B00004E011E05CE0E52E51E0F52EF8016191B9
:1024C0008F0182EF96E00E943604E016F106B1F724
:1024D0008FE090E00E94820E90E090931101809333
:1024E000100189E190E00E94820E80931D068EE12A
:1024F00090E00E94820E80930F018AE090E00E949B
:10250000820E182F8BE090E00E94820E212F30E087
:10251000322F2227820F932F911D90930E018093CB
:102520000D0166E171E083E290E00E946E0E209161
:10253000160130911701C90165E070E00E945F202B
:10254000892B19F42B3F31057CF084E190E09093C6
:102550001701809316019A838983BE016F5F7F4FB5
:1025600083E290E00E94840E6AE171E088E290E0EC
:102570000E946E0E80911A0190911B019C012150C6
:10258000310922303105A8F08530910591F00A9784
:1025900081F081E090E090931B0180931A0160E04C
:1025A00088E290E00E94A80E61E089E290E00E943B
:1025B000A80E60911A0170911B01072E000C880B68
:1025C000990B0E94711E9B01AC0160E070E080EAF3
:1025D00090E40E94B71F60931A0770931B078093C3
:1025E0001C0790931D0768E171E08DE290E00E9466
:1025F0006E0E80910D0190910E01019621F41092C2
:102600000E0110920D0100910F0110E09AEDE92EDC
:1026100096E0F92E22E2C22E21E0D22EC60182528D
:1026200091408017910774F4F60181916F0190E059
:102630000E94820E90E0F70191838083F4E0EF0E18
:10264000F11CECCF84E190E00E94820E90E0909328
:10265000130180931201EAEDF6E030E020E020174C
:10266000310734F4938382832F5F3F4F3496F7CF43
:1026700062E083E00E94140162E08EE00E94140197
:1026800062E08FE00E941401D0901D0621E0D2127A
:1026900008C061E08AE00E94140162E082E00E94CA
:1026A000140161E080E10E94140160E080E10E9479
:1026B000E6008CE2E82E81E0F82EC7018C529140B2
:1026C0008017910764F4F701C1907F0161E08C2DC0
:1026D0000E94140160E08C2D0E94E600EECF0E9463
:1026E0001D09F1E0DF123BC181E299E09093010105
:1026F00080930001809169008C7F826080936900E3
:10270000E89A84E690E00E94820E893709F4EBC1D2
:102710008CEA92E00E94AC0C89E70E94AA0E64E663
:1027200070E080E090E00E94800169E784E690E03C
:102730000E94A80E8FEF809337068093380680930F
:10274000390680933A0680933B0680933C060E94AC
:102750007E0360E083E00E94270487EB92E00E9402
:10276000BE0A61E082E00E94270482EC92E00E94AF
:10277000BE0A68EB7BE080E090E00E9480010E944E
:102780007E0360E082E00E9427048FEC92E00E94CA
:10279000BE0A61E082E00E9427048CED92E00E9474
:1027A000BE0A60ED77E080E090E00E9480018091B9
:1027B000140181110E94C30A60911D06CE01019689
:1027C0000E94600D65EF72E0CE0107960E94EB0D4E
:1027D000BE016F5F7F4FCE0107960E942C0DBC019A
:1027E000CE0143960E94D10DCE0107960E94FC0DAA
:1027F000CE0101960E94FC0D60910F01CE01019661
:102800000E94600D66E073E0CE0107960E94EB0D1A
:10281000BE016F5F7F4FCE0107960E942C0DBC0159
:10282000CE0143960E94130DCE0107960E94FC0D27
:10283000CE0101960E94FC0D60911201709113016E
:10284000CE0101960E94990D66E173E0CE010796D4
:102850000E94EB0DBE016F5F7F4FCE0107960E9475
:102860002C0DBC01CE0143960E94130DCE0107969C
:102870000E94FC0DCE0101960E94FC0D609110019A
:1028800070911101CE0101960E94990D67E273E0EB
:10289000CE0107960E94EB0DBE016F5F7F4FCE0108
:1028A00007960E942C0DBC01CE0143960E94130D89
:1028B000CE0107960E94FC0DCE0101960E94FC0DF0
:1028C000AAEDEA2EA6E0FA2E10E000E080910F01BA
:1028D0008017110609F00CF40BC1F70160817181BA
:1028E000CE0101960E94990D0F5F1F4FB801CE01D6
:1028F00007960E94990D65E373E0CE010D960E9444
:10290000EB0DBE01695F7F4FCE010D960E942C0D2D
:102910006C014BE050E06CE373E00E94E70C811126
:1029200003C0C6010E941A0DBE016F5F7F4FC60132
:102930000E942C0DBC01CE0143960E94130DCE01C6
:102940000D960E94FC0DCE0107960E94FC0DCE0153
:1029500001960E94FC0DF4E0EF0EF11CB7CF1FB7FB
:10296000F8948091F405811127C0E0E9F0E08491AA
:10297000E7EAF0E09491E82FF0E0EE0FFF1FE8594E
:10298000FF4FA591B491EC91E92321F461E08AE035
:102990000E94E60061E08AE00E9414018CB580612B
:1029A0008CBD8CB580648CBD61E08DE00E9414010B
:1029B00061E08BE00E9414018091F4058F5F8093A9
:1029C000F4051FBF61E0809118070E94140161E0C7
:1029D000809118070E94E600809119078F3F09F443
:1029E0006BC060E00E941401809119070E94BD0035
:1029F000892B09F061C061E0809119070E941401E0
:102A000060E0809119070E94E60082E090E00E9459
:102A1000500161E0809119070E94E60062E370E0D6
:102A200080E090E00E94800140E064E28AE097E06C
:102A30000E94A50440E066E28AE097E00E94A504B7
:102A400046E268E48AE097E00E94A50440E864E575
:102A50008AE097E00E94A50449EA66E58AE097E0EB
:102A60000E94A50443E068E58AE097E00E94A5047F
:102A700048EE6AE58AE097E00E94A50440E46AE235
:102A80008AE097E00E94A5044DE362E28AE097E0C5
:102A90000E94A50468E28AE097E00E948704982FCC
:102AA0009370933009F42DCE482F436068E28AE09A
:102AB00097E00E94A50425CE4FE062E08AE097E00F
:102AC0000E94A50413E062E370E080E090E00E94C1
:102AD000800162E08AE097E00E94870484FFA4CF2F
:102AE000115089F7A1CF88EE92E00E94AC0C22CE63
:102AF000BE016D5E7F4F8DE396E00E94C00168E5E8
:102B000072E08DE396E00E94360A68EE73E080E0A2
:102B100090E00E948001CE0143960E94FC0D83E06C
:102B20000E94BD00892B09F0C5C081E08093F705A4
:102B30008093140181E090E090931C0680931B0623
:102B40008EE6809315010E946A0B83E00E94BD000F
:102B5000892BD9F364E6262E312C78EE472E73E0CC
:102B6000572EAA24A394B12CF5E08F2E912C4EE67B
:102B7000D42E5EE0652E56E0752E0E94B301609360
:102B8000F9057093FA058093FB059093FC0583E0AB
:102B90000E94BD00892B09F044C18FE00E94BD0056
:102BA000892B09F08AC08EE00E94BD00892B09F4B0
:102BB00084C080911D06811180C00E94B3010091E4
:102BC000F9051091FA052091FB053091FC05601B79
:102BD000710B820B930B6838734181059105B8F234
:102BE0008091F805811108C08CE291E00E9477097C
:102BF0008CE291E00E9477090E947E0360E080E011
:102C00000E9427048FE192E00E94BE0A61E080E00A
:102C10000E94270488E493E00E94BE0A60ED77E0FA
:102C200080E090E00E9480010E947E0360E080E0EE
:102C30000E9427048DE493E00E94BE0A8FE00E9468
:102C4000BD00892B09F45EC088E593E00E94AC0CBE
:102C50008AE097E00E949D06882381F38AE097E04E
:102C60000E944004882351F30E94C8088823A9F0D9
:102C70008091FE05863419F08D7F803561F561E025
:102C800080E00E94270480E693E00E94BE0A68EE7E
:102C900073E080E090E00E9480010E947E0360E08B
:102CA00080E00E9427048DE493E00E94BE0A0E9407
:102CB0008208C4CF0E9419094DCF8EE00E94BD004A
:102CC000892B09F442C010921C0610921B0686E75D
:102CD000809315015CCF109227068091100180939C
:102CE00036060E94110A8823C1F261E080E00E944A
:102CF000270481E793E00E94BE0A84EF91E00E94DE
:102D00007709CBCF0E947E0360E080E00E94270419
:102D100086E793E00E94BE0A64EF71E080E090E0F5
:102D20000E94800110921C0610921B06D092150181
:102D300091E09093F705909314018091F80589270D
:102D40008093F8050E946A0B22CF8FE00E94BD009D
:102D5000892B09F4B8CF0E94B3010091F9051091B5
:102D6000FA052091FB053091FC05601B710B820B6D
:102D7000930B683873418105910508F408CF8CE204
:102D800091E00E9477098CE291E00E9477090E940D
:102D90007E0360E080E00E94270481E893E00E94C7
:102DA000BE0A61E080E00E9427048FE891E00E9463
:102DB000BE0A60ED77E080E090E00E9480010E9412
:102DC0007E0360E080E00E9427048AE893E00E948E
:102DD000BE0A8FE00E94BD00892BD9F780911201B5
:102DE000909113010E949F0986E60E942D0F0E9478
:102DF0007E0360E080E00E94270485E993E00E9462
:102E0000BE0A84EF91E00E94770910921C0610928E
:102E10001B06D092150181E08093F7058093140181
:102E200091CF809115018E3609F079C08EE00E9415
:102E3000BD00892BF1F46CE271E080E090E00E942B
:102E400080018091F5059091F60501969093F60525
:102E50008093F50520911D062111DEC0069721F40F
:102E60001092F6051092F50581E08093F7058093A6
:102E700014018FE00E94BD008C01892B09F04FC026
:102E800080911B0690911C06019709F048C06CE2E6
:102E900071E080E090E00E9480018091F5059091C2
:102EA000F605009709F0BFC082E780931501809175
:102EB00015018D3609F4CCC10CF013C1823609F42A
:102EC00026C20CF0E7C08D3409F49CC18091150135
:102ED0000E942D0F80E293E00E9477090E947E03FA
:102EE00060E080E00E94270484EA93E00E94BE0A2A
:102EF00061E080E10E94E60060ED77E080E090E034
:102F00000E94800160E080E10E94E600D0921501FD
:102F100010921C0610921B0681E0809314010E94FF
:102F20006A0B1092F70580911D068111A5C48AE0F5
:102F300097E00E949D06882309F461C00E947E03E9
:102F400060E080E00E9427048EEA93E00E94BE0ABF
:102F500061E080E00E9427048DEB93E00E94BE0AAE
:102F60008AE097E00E944004882309F441C00E944F
:102F7000C808882309F477C484EF91E00E94770998
:102F80008091FE05863409F08FC28EEC93E00E949A
:102F9000AC0C0E947E0360E080E00E94270488EE73
:102FA00093E00E94BE0A61E080E00E94270484EF63
:102FB00093E00E94BE0A60ED77E080E090E00E941E
:102FC000800180911201909113010E949F0986E671
:102FD0000E942D0F0E947E0360E080E00E94270483
:102FE00085E993E00E94BE0A84EF91E00E94770990
:102FF0000E948208D092150181E08093140180E044
:1030000090E0892B09F4B9CD0E943802882309F495
:10301000AECD0E940000ABCD213009F025CF08973E
:103020000CF01ECF21CF8130910511F486E63DCF03
:103030008230910511F48DE438CF8330910511F47D
:103040008DE633CF8430910541F480911D068111C6
:1030500002C082E62ACF84E728CF8530910531F47B
:1030600080911D068823B9F383E61FCF8630910532
:1030700039F480911D06813009F019CF80E715CF12
:10308000079709F014CF80911D06813009F00FCF0A
:1030900087E70BCF833609F4D1C1863609F016CF06
:1030A0000E94700F8FE00E94BD00892B09F4A3C01D
:1030B0008EE00E94BD00892BA9F76CE271E080E0F0
:1030C00090E00E948001809112019091130101967D
:1030D0008D3391050CF08AC09093130180931201F7
:1030E000DFCF823709F4D6C0ECF5803709F0EECE99
:1030F0000E94FD0A80911A0190911B018130910577
:1031000079F001E010E08230910551F002E010E02A
:103110008530910529F003E010E00A9709F00FEFE0
:103120008FE00E94BD00892B09F4B8C18EE00E9497
:10313000BD00892BA9F76CE271E080E090E00E946D
:1031400080010F5F043009F400E0E02FF0E0E85D5B
:10315000FE4F808190E090931B0180931A010E94A2
:10316000FD0ADECF843709F439C1873709F0AECEC6
:103170008FE00E94BD00892B09F48AC18EE00E9475
:10318000BD00892BA9F76CE271E080E090E00E941D
:103190008001809118019091190188519C4F8132D2
:1031A0002EE492070CF06FC19093190180931801DF
:1031B0000E947E0360E080E00E94270489E392E0A1
:1031C0000E94BE0A61E080E00E94270480911801FD
:1031D0009091190168EE73E00E945F20CB010E947C
:1031E000910A8FE993E00E94BE0AC2CFB092130108
:1031F000A092120155CF80911201909113010E946B
:103200009F0964CE0E94E50A11E08FE00E94BD0094
:10321000892B09F45BCE8EE00E94BD00892BA9F7B3
:103220006CE271E080E090E00E94800180910F01EB
:103230008F5F80930F0190910C01981710F41093F9
:103240000F010E94E50AE1CF30920E0120920D019C
:103250000E94980C8FE00E94BD00892B09F436CEA5
:103260008EE00E94BD00892BA9F76CE271E080E03E
:1032700090E00E94800180910D0190910E018C5987
:103280009F4F8938F3E19F07FCF690930E018093DE
:103290000D01DECF3AEDE32E36E0F32E80910F01E3
:1032A0008017110609F00CF411CEC02E802F0E9459
:1032B000040E8FE00E94BD00892BD1F08EE00E94A9
:1032C000BD00892BB1F76CE271E080E090E00E94D4
:1032D0008001F70180819181019691838083228111
:1032E00033812817390714F4118210828C2DDFCF17
:1032F0008FE00E94BD00892BD9F30F5F1F4FF4E0D0
:10330000EF0EF11CCBCFB0921101A09210010E94E0
:10331000560B8FE00E94BD00892BC9F08EE00E9401
:10332000BD00892BB1F76CE271E080E090E00E9473
:103330008001809110019091110101968F3F9105BC
:1033400009F00CF79093110180931001E0CF8FE00A
:103350000E94BD00892BD9F30E947E0360E080E0CB
:103360000E9427048DE493E00E94BE0A8FE00E9431
:10337000BD00892B69F18AE097E00E949D068823B1
:10338000A9F38AE097E00E9440048823A1F080918D
:103390001001809336060E94110A882361F061E0D3
:1033A00080E00E94270481E793E00E94BE0A84EF38
:1033B00091E00E9477090E947E0360E080E00E9415
:1033C00027048DE493E00E94BE0A0E948208CECFBB
:1033D0008FE00E94BD00892BD9F378CD0E943A0B73
:1033E00014E001E023E0F22E8FE00E94BD00892B63
:1033F000D9F08EE00E94BD00892BB1F76CE271E03C
:1034000080E090E00E94800180911D06811107C03C
:1034100000931D06F0920C010E943A0BE5CF10922A
:103420001D0610930C01F8CF8FE00E94BD00892B80
:10343000D9F34CCD90921701809216010E94220B75
:103440008FE00E94BD00892BC1F08EE00E94BD007C
:10345000892BB1F76CE271E080E090E00E9480017E
:10346000809116019091170105968B3F910514F7F5
:103470009093170180931601E1CF8FE00E94BD0069
:10348000892BD9F323CD509219014092180190CE87
:103490008FE00E94BD00892BD9F318CD8FE00E94E8
:1034A000BD00892BD9F312CD823509F094C082E09A
:1034B00094E00E94AC0C0E947E0360E080E00E94D9
:1034C00027048FE192E00E94BE0A61E080E00E9442
:1034D00027048CE194E00E94BE0A60ED77E080E072
:1034E00090E00E9480010E947E0360E080E00E94E4
:1034F00027048DE493E00E94BE0A0E94820881E0C6
:103500008093FD058091FD05882309F471CD8AE043
:1035100097E00E949D068823A9F38AE097E00E9425
:103520004004882329F10E94C808882309F180916A
:10353000FE05863419F08D7F8035C1F58AE294E06E
:103540000E94AC0C8091FE058235F9F41092FD05C5
:103550000E947E0360E080E00E9427048CE394E0F8
:103560000E94BE0A68EE73E080E090E00E94800155
:103570000E947E0360E080E00E9427048DE493E0D7
:103580000E94BE0A0E948208BDCF0E947E0360E0B6
:1035900080E00E94270486E494E00E94BE0A61E075
:1035A00080E00E94270484E594E0DACF8091100146
:1035B000809336060E94110A8823D1F261E080E0F0
:1035C0000E94270481E793E00E94BE0A84EF91E005
:1035D0000E947709CDCF803509F041C08EE594E097
:1035E0000E94AC0C80910D0690E0909311018093A5
:1035F000100182E60E942D0F0E947E0360E080E0B1
:103600000E94270487E794E00E94BE0A61E080E000
:103610000E94270486E894E00E94BE0A68EE73E0E8
:1036200080E090E00E9480010E947E0360E080E0E4
:103630000E9427048FE894E00E94BE0A61E080E0C7
:103640000E94270480911001909111010E94910A1B
:1036500068EE73E080E090E00E948001BBCC809136
:103660000D06882309F4EEC00EEF15E097E2E92E6F
:1036700096E0F92EF80141918F0150E070E060E092
:103680002AE08DE396E00E94450AF8013197808197
:10369000F70181937F016016710661F7809136060C
:1036A0008150809336060E94110A811111C00E9438
:1036B0007E0360E080E00E9427048BE994E00E9492
:1036C000BE0A61E080E00E94270488EA94E0A4C07A
:1036D00010910D060E94C8080E948A09892B09F4DE
:1036E000A0C080910D06181709F486C064EF71E040
:1036F00080E090E00E9480010E947E0360E080E014
:103700000E94270482EB94E00E94BE0A61E080E000
:103710000E9427044091360650E070E060E02AE005
:1037200082EF96E00E94450A68EB7BE080E090E043
:103730000E9480010E947E0360E080E00E942704D6
:1037400081EC94E00E94BE0A61E080E00E942704C0
:103750008DEC94E00E94BE0A88ED94E00E94AC0CCF
:103760000E948A0918161906CCF580910F0190E085
:103770002AED36E010E000E00817190764F52C5F29
:103780003F4FF901349740815181452B91F1F80168
:10379000E45DFE4FF08061E08F2D0E94E6006091B5
:1037A0000D0170910E01072E000C880B990B0E94E1
:1037B000800160E08F2D0E94E600000F111F000FB6
:1037C000111FF801E652F94F80819181009719F09D
:1037D00001979183808382E70E942D0F80E293E01E
:1037E0000E94770968EE73E080E090E00E9480011B
:1037F000FFCB0F5F1F4FC0CF0E947E0360E080E0D1
:103800000E9427048CE992E00E94BE0A61E080E0F9
:103810000E94270486EE94E00E94BE0A0E9441099D
:10382000E7CB0E947E0360E080E00E9427048CE9E1
:1038300092E00E94BE0A61E080E00E94270482EAD2
:1038400092E0EACF0E947E0360E080E00E942704BD
:1038500089EF94E00E94BE0A61E080E00E942704A4
:103860008FEF94E0D9CF0E947E0360E080E00E9459
:1038700027048CE095E023CF813009F0C0CB0E9473
:103880008A09181619060CF004C180911B06909144
:103890001C06892B09F0FDC00E94190980911A06A7
:1038A000882309F4ACCB0E941D090E94B3016093E8
:1038B00016067093170680931806909319061092B7
:1038C0001506109214060E94B3010091160610917D
:1038D00017062091180630911906AB01BC01401B58
:1038E000510B620B730B8091180190911901092EF5
:1038F000000CAA0BBB0B481759076A077B0708F097
:103900009EC080911A068823F1F20E947E0360E037
:1039100080E00E9427048AE195E00E94BE0A61E0EF
:1039200080E00E94270489E295E00E94BE0A88ECAC
:1039300090E00E94770964EF71E080E090E00E94DF
:10394000800168EE73E080E090E00E9480011092B8
:103950001A0680911A068111B6CF609112067091F5
:103960001306072E000C880B990B0E94711E2091E4
:103970001A0730911B0740911C0750911D070E94A8
:10398000AC1E0E9429208B017093110660931006D3
:103990002091140630911506C901860F971F909348
:1039A0001506809314060E94B30160931606709367
:1039B000170680931806909319060931110509F42A
:1039C000DFC00CF07AC00A30110509F4C7C00CF052
:1039D00063C00530110509F497C020911406309199
:1039E00015068091160190911701281739070CF4DC
:1039F000EBC068EE73E080E090E00E9480010E94DE
:103A00007E0360E080E00E9427048CEB91E00E943E
:103A1000BE0A61E080E00E94270485ED95E00E94E7
:103A2000BE0A68EE73E080E090E00E948001809121
:103A300016019091170190931506809314060E9429
:103A40001D0980911406909115068931910509F49C
:103A500005C10CF0C6C08A30910509F4F9C00CF01C
:103A6000B6C0059709F4D4C00E947E0360E080E0F0
:103A70000E9427048DED95E00E94BE0A60E080E080
:103A80000E9427048CEE95E00E94BE0A0E94410924
:103A9000C3C00E941D0902CF0F30110509F467C091
:103AA0000431110509F099CF0E947E0360E080E0A7
:103AB0000E9427048CE695E02FC00832110509F416
:103AC00071C08CF40E31110509F463C00332110585
:103AD00009F083CF0E947E0360E080E00E9427040B
:103AE00089E995E019C00D32110509F464C002336B
:103AF000110509F072CF0E947E0360E080E00E9411
:103B0000270486EC95E008C00E947E0360E080E018
:103B10000E94270488E395E00E94BE0A61E080E0ED
:103B20000E94270486E495E00E94BE0A6091140674
:103B300070911506CE0101960E94990DBE016F5F2E
:103B40007F4F82EF96E00E94C001CE0101960E9455
:103B5000FC0D10921306109212063FCF0E947E03B6
:103B600060E080E00E9427048EE495E0D5CF0E94BB
:103B70007E0360E080E00E9427048DE595E0CCCFD5
:103B80000E947E0360E080E00E9427048BE795E0BE
:103B9000C3CF0E947E0360E080E00E9427048AE891
:103BA00095E0BACF0E947E0360E080E00E94270487
:103BB00088EA95E0B1CF0E947E0360E080E00E9439
:103BC000270487EB95E0A8CF0E9419097CCE8F309F
:103BD000910509F440C0449709F046CF84E090E095
:103BE00019C08832910509F43FC04CF48E3191051B
:103BF000C1F1839709F038CF87E090E00BC08D3298
:103C00009105A9F1C29709F02FCF8AE090E002C098
:103C100081E090E00E948B0F109211061092100626
:103C200010921506109214061092130610921206A6
:103C30000E94190910921A0610921C0610921B0677
:103C4000D092150181E0809314010E946A0BD7C9BC
:103C500082E090E0DFCF83E090E0DCCF85E090E091
:103C6000D9CF86E090E0D6CF88E090E0D3CF89E04E
:103C700090E0D0CFBB274A3031F4992322F4BDE243
:103C8000909581959F4F0C94461EBB27FB015527AD
:103C9000AA27880F991FAA1FA41710F0A41B8395A9
:103CA0005051B9F7A05DAA3308F0A95DA193009720
:103CB00079F7B111B1931192CB010C945F1EDC0125
:103CC000FC01672F71917723E1F7329704C07C9153
:103CD0006D9370836291AE17BF07C8F30895E8949F
:103CE00009C097FB3EF490958095709561957F4F44
:103CF0008F4F9F4F9923A9F0F92F96E9BB279395F2
:103D0000F695879577956795B795F111F8CFFAF401
:103D1000BB0F11F460FF1BC06F5F7F4F8F4F9F4F32
:103D200016C0882311F096E911C0772321F09EE890
:103D3000872F762F05C0662371F096E8862F70E0F6
:103D400060E02AF09A95660F771F881FDAF7880FD0
:103D50009695879597F908950E94BF1E0C94301F81
:103D60000E94221F38F00E94291F20F0952311F095
:103D70000C94191F0C941F1F11240C94641F0E9493
:103D8000411F70F3959FC1F3950F50E0551F629F3F
:103D9000F001729FBB27F00DB11D639FAA27F00DA4
:103DA000B11DAA1F649F6627B00DA11D661F829FCB
:103DB0002227B00DA11D621F739FB00DA11D621FB0
:103DC000839FA00D611D221F749F3327A00D611DCD
:103DD000231F849F600D211D822F762F6A2F1124AF
:103DE0009F5750409AF0F1F088234AF0EE0FFF1FE2
:103DF000BB1F661F771F881F91505040A9F79E3F39
:103E0000510580F00C94191F0C94641F5F3FE4F37C
:103E1000983ED4F3869577956795B795F795E7958E
:103E20009F5FC1F7FE2B880F911D9695879597F997
:103E3000089597F99F6780E870E060E008959FEF2C
:103E400080EC089500240A94161617061806090631
:103E5000089500240A941216130614060506089500
:103E6000092E0394000C11F4882352F0BB0F40F488
:103E7000BF2B11F460FF04C06F5F7F4F8F4F9F4FC8
:103E8000089557FD9058440F551F59F05F3F71F04A
:103E90004795880F97FB991F61F09F3F79F08795B1
:103EA0000895121613061406551FF2CF4695F1DF3A
:103EB00008C0161617061806991FF1CF86957105CA
:103EC000610508940895E894BB2766277727CB01FE
:103ED00097F90895F999FECF92BD81BDF89A992777
:103EE00080B50895262FF999FECF1FBA92BD81BDE6
:103EF00020BD0FB6F894FA9AF99A0FBE019608956C
:103F00002F923F924F925F926F927F928F929F92E9
:103F1000AF92BF92CF92DF92EF92FF920F931F93D7
:103F2000CF93DF93CDB7DEB7CA1BDB0B0FB6F89488
:103F3000DEBF0FBECDBF09942A88398848885F84C8
:103F40006E847D848C849B84AA84B984C884DF8039
:103F5000EE80FD800C811B81AA81B981CE0FD11D1D
:103F60000FB6F894DEBF0FBECDBFED0108950E94DD
:103F7000CB1F0C94301F0E94291F58F00E94221F53
:103F800040F029F45F3F29F00C94191F51110C9453
:103F9000641F0C941F1F0E94411F68F39923B1F303
:103FA000552391F3951B550BBB27AA27621773075F
:103FB000840738F09F5F5F4F220F331F441FAA1FF3
:103FC000A9F335D00E2E3AF0E0E832D091505040AF
:103FD000E695001CCAF72BD0FE2F29D0660F771F5D
:103FE000881FBB1F261737074807AB07B0E809F043
:103FF000BB0B802DBF01FF2793585F4F3AF09E3FC8
:10400000510578F00C94191F0C94641F5F3FE4F382
:10401000983ED4F3869577956795B795F7959F5F0A
:10402000C9F7880F911D9695879597F90895E1E056
:10403000660F771F881FBB1F621773078407BA07B5
:1040400020F0621B730B840BBA0BEE1F88F7E09510
:1040500008950E9430206894B1110C94641F089553
:104060000E94491F88F09F5798F0B92F9927B751A0
:10407000B0F0E1F0660F771F881F991F1AF0BA950C
:10408000C9F714C0B13091F00E94631FB1E00895E8
:104090000C94631F672F782F8827B85F39F0B93FDA
:1040A000CCF3869577956795B395D9F73EF49095BF
:1040B0008095709561957F4F8F4F9F4F089597FB27
:1040C000072E16F4009407D077FD09D00E949B209C
:1040D00007FC05D03EF4909581959F4F089570950B
:1040E00061957F4F0895A1E21A2EAA1BBB1BFD010B
:1040F0000DC0AA1FBB1FEE1FFF1FA217B307E407C7
:10410000F50720F0A21BB30BE40BF50B661F771F1E
:10411000881F991F1A9469F76095709580959095FE
:104120009B01AC01BD01CF010895EE0FFF1F05906B
:10413000F491E02D0994AA1BBB1B51E107C0AA1FF3
:10414000BB1FA617B70710F0A61BB70B881F991F38
:104150005A95A9F780959095BC01CD0108950F93CC
:104160001F93CF93DF938230910510F482E090E0AB
:10417000E0912007F091210730E020E0B0E0A0E0DE
:10418000309799F42115310509F44AC0281B390BE1
:1041900024303105D8F58A819B816115710589F13B
:1041A000FB0193838283FE0111C040815181028112
:1041B000138148175907E0F04817590799F41097E9
:1041C00061F012960C93129713961C933296CF01BE
:1041D000DF91CF911F910F910895009320071093C5
:1041E0002107F4CF2115310551F04217530738F05C
:1041F000A901DB019A01BD01DF01F801C1CFEF0187
:10420000F9CF9093210780932007CDCFFE01E20FD5
:10421000F31F819391932250310939832883D7CF9B
:1042200020911E0730911F07232B41F420911E017E
:1042300030911F0130931F0720931E0720911C010E
:1042400030911D012115310541F42DB73EB7409144
:10425000200150912101241B350BE0911E07F091A4
:104260001F07E217F307A0F42E1B3F0B281739078F
:1042700078F0AC014E5F5F4F2417350748F04E0FC2
:104280005F1F50931F0740931E07819391939FCF09
:10429000F0E0E0E09CCFCF93DF930097E9F0FC01E2
:1042A000329713821282A0912007B0912107ED016D
:1042B00030E020E01097A1F420813181820F931F1C
:1042C00020911E0730911F072817390709F061C098
:1042D000F0931F07E0931E07DF91CF910895EA0145
:1042E000CE17DF07E8F54A815B819E014115510534
:1042F000B1F7E901FB83EA8349915991C40FD51FB6
:10430000EC17FD0761F4808191810296840F951F5F
:10431000E90199838883828193819B838A83F0E07A
:10432000E0E012968D919C9113970097B9F52D912D
:104330003C911197CD010296820F931F20911E0789
:1043400030911F072817390739F6309751F5109229
:10435000210710922007B0931F07A0931E07BCCF20
:10436000D383C28340815181840F951FC817D90719
:1043700061F44E5F5F4F88819981480F591F5183C7
:1043800040838A819B81938382832115310509F0C3
:10439000B0CFF0932107E09320079ECFFD01DC0111
:1043A000C0CF13821282D7CFB0E0A0E0EAEDF1E2F5
:1043B0000C94821F8C01009751F4CB010E94AF2016
:1043C0008C01C801CDB7DEB7E0E10C949E1FFC0163
:1043D000E60FF71F9C0122503109E217F30708F49A
:1043E0009DC0D901CD91DC911197C617D70798F0E0
:1043F000C530D10530F3CE0104978617970708F32F
:10440000C61BD70B2297C193D1936D937C93CF0199
:104410000E944B21D6CF5B01AC1ABD0A4C018C0E19
:104420009D1EA0912007B0912107512C412CF12C09
:10443000E12C109731F580911E0790911F07881588
:10444000990509F05CC04616570608F058C08091DF
:104450001C0190911D01009741F48DB79EB74091CA
:10446000200150912101841B950BE817F90708F0F2
:1044700055C0F0931F07E0931E07F9017183608315
:10448000A0CF8D919C91119712966C9012971396D4
:104490007C901397A815B90559F56C0142E0C40E3C
:1044A000D11CCA14DB0420F1AC014A195B09DA0102
:1044B0001296159780F06282738251834083D901EE
:1044C0006D937C93E114F10471F0D7011396FC9382
:1044D000EE93129776CF22968C0F9D1FF901918350
:1044E0008083F301EFCFF0932107E093200769CF9A
:1044F0004816590608F42C017D01D3019ACFCB014F
:104500000E94AF207C01009749F0AE01B8010E94E3
:104510009122C8010E944B21870153CF10E000E097
:1045200050CFFB01DC0102C001900D924150504080
:10453000D8F70895FB01DC0101900D920020E1F70E
:064540000895F894FFCF7E
:10454600BF010000001C120909121C0004DC050250
:104556000A001400016E14008813010000002207EF
:1045660080000102030405060102050A1312110A5E
:10457600000000006E02CE01FB01BB022C020A0203
:104586001E02000000003604CE013D043C0400007B
:10459600000000079D0640045343414E204341520C
:1045A600442048455245002020494E534552542048
:1045B60043415348004E30204F462053544F434BFF
:1045C600533A00456E74657220546F74616C2052C4
:1045D60061636B005365742050756C736520466F7C
:1045E600720052532E353A20002050756C736500C8
:1045F6002050756C7365730053657420436173684E
:10460600204C696D69740020527570656573004DA4
:10461600616368696E652054797065005246494445
:104626000043617368202F20436F696E00506164F8
:104636007320496E205261636B0046696C6C2041A1
:104646006C6C205261636B00546F74616C20526114
:10465600636B73004D6F746F722054696D65004211
:10466600617463682057726974650050756C736570
:104676002053657474696E670043617368205761DF
:1046860069742054696D65004D6F746F72205469AA
:104696006D6520286D7329000D0A00205175616E25
:1046A6007469747900456E74657220636170616324
:1046B600697479006F66206F6E65205261636B3A8C
:1046C6000044697370656E73696E6720506164009B
:1046D600436F6C6C656374204E6F7700536F727214
:1046E60079004E6F2053746F636B73004672697363
:1046F6007420426F6F7400506F7765726564204254
:1047060079004B414943484F2047524F5550002DA1
:104716002D204B4157414348202D2D0050616420E8
:1047260056656E64696E670057656C636F6D6520CC
:104736004261636B000A4D616368696E6520547956
:104746007065203A20000A4D6178696D756D2052BA
:1047560061636B3A20000A5261636B2043617061AA
:10476600636974793A20000A50616420416D6F755F
:104776006E743A20000A5261636B20002051756105
:104786006E746974793A20004D6F646500536361F5
:104796006E20436172642100696E7369646520004E
:1047A6004572726F722C204D656E7520436172647E
:1047B60000446F6E650045786974696E672E2E2E0B
:1047C6000046696C6C20416C6C00507265737320F6
:1047D6004F6B617900537563636573732E2E0020EA
:1047E60053656300536176696E672E2E2E00436112
:1047F60072642044657465637465642100506C6559
:1048060061736520576169742E2E2E2E2E0043612A
:104816007264204465746563746564206173204620
:10482600494C4C434152440046696C6C696E6720A2
:10483600416C6C005261636B2056696120434152A2
:104846004400436172642044657465637465642042
:104856006173205245434843415244004D6F64659D
:1048660020566961204341524400546869732069A7
:1048760073204D656E7520636172640045786974B6
:10488600696E672E2E0055736520524543482043B6
:1048960041524400746F20657869742E2E0043617E
:1048A6007264204465746563746564206173205086
:1048B6004144434152440053657420506164204191
:1048C6006D6F756E740076696120434152440050E5
:1048D600616420416D6F756E743A00577269746534
:1048E600204661696C65640054727920416761698C
:1048F6006E004C65667420666F7220436172643A7E
:10490600005265636569766520506164005468618C
:104916006E6B20796F7521006D6F746F72207275E2
:104926006E6E696E6700486F6C6420636172642006
:10493600666F722031536563004F70707321005AA1
:1049460065726F2042616C616E6365004572726FBD
:10495600722052656164696E6700526563656976A7
:10496600696E67204361736800506C6561736520EA
:10497600776169742E2E2E005265636569766564CB
:104986002052732E3500546F74616C3A20005265C4
:104996006365697665642052732E31300052656313
:1049A60065697665642052732E31350052656365FC
:1049B600697665642052732E3230005265636569EC
:1049C6007665642052732E323500526563656976CA
:1049D60065642052732E33300052656365697665CF
:1049E600642052732E3335005265636569766564BB
:1049F6002052732E343000526563656976656420F3
:104A060052732E34350052656365697665642052AB
:104A1600732E3530005265616368656400496E76B1
:104A2600616C696420416D6F756E74004572726FBA
:044A360072212100C8
:00000001FF
