:020000040000FA
:100000000C9467000C941D110C94F6100C948F0046
:100010000C948F000C948F000C948F000C948F0024
:100020000C948F000C948F000C948F000C948F0014
:100030000C948F000C948F000C948F000C948F0004
:100040000C94AC100C948F000C946A110C94441115
:100050000C948F000C948F000C948F000C948F00E4
:100060000C948F000C948F000000000024002700E7
:100070002A0000000000250028002B0000000000DE
:1000800023002600290004040404040404040202DA
:100090000202020203030303030302020301020438
:1000A00008102040800102040810200102040810FA
:1000B0002040804000000009000302000004050801
:1000C0000000000000000000000000009C1111244E
:1000D0001FBECFEFD8E0DEBFCDBF27E0A4EFB5E075
:1000E00001C01D92A232B207E1F715E0A0E0B1E035
:1000F000E8EFF5E402C005900D92A43FB107D9F7EF
:1001000010E0C7E6D0E004C02197FE010E94EE2077
:10011000C636D107C9F70E9419120C94FA220C9422
:1001200000008CBD9DBD0895843081F028F482309C
:10013000E9F08330F9F00895883071F0893091F05A
:100140008530B9F4809180008F7D03C0809180005C
:100150008F778093800008958091B0008F7780938F
:10016000B00008958091B0008F7DF9CF84B58F776E
:1001700084BD089584B58F7DFBCFCF93DF93282F67
:1001800030E0F901EC54FF4F8491F901E356FF4F41
:10019000D491F901EA57FF4FC491CC23A1F081110A
:1001A0000E949400EC2FF0E0EE0FFF1FE458FF4F89
:1001B000A591B491EC91ED2381E090E009F480E009
:1001C000DF91CF91089580E090E0FACF1F93CF9315
:1001D000DF93282F30E0F901EC54FF4F8491F901AF
:1001E000E356FF4FD491F901EA57FF4FC491CC2356
:1001F000A9F0162F81110E949400EC2FF0E0EE0F71
:10020000FF1FEE58FF4FA591B4918FB7F894EC9172
:10021000111108C0D095DE23DC938FBFDF91CF9101
:100220001F910895DE2BF8CFCF93DF9390E0FC0170
:10023000E356FF4F24918A579F4FFC0184918823F6
:10024000C9F090E0880F991FFC01E859FF4FA59174
:10025000B491FC01EE58FF4FC591D49161110DC0CE
:100260009FB7F8948C91209582238C9388812823C2
:1002700028839FBFDF91CF910895623051F49FB7DB
:10028000F8943C91822F809583238C93E8812E2BC8
:10029000EFCF8FB7F894EC912E2B2C938FBFEACF32
:1002A0008130910539F0880F991F880F991F0597A4
:1002B0000197F1F708953FB7F89480912306909144
:1002C0002406A0912506B091260626B5A89B05C058
:1002D0002F3F19F00196A11DB11D3FBFBA2FA92FC5
:1002E000982F8827BC01CD01620F711D811D911DC2
:1002F00042E0660F771F881F991F4A95D1F708952E
:100300008F929F92AF92BF92CF92DF92EF92FF9225
:100310006B017C010E945B014B015C01C114D104A3
:10032000E104F104B9F00E945B01681979098A09B6
:100330009B09683E73408105910580F321E0C21A54
:10034000D108E108F10888EE880E83E0981EA11C10
:10035000B11CE4CFFF90EF90DF90CF90BF90AF90B3
:100360009F908F9008952FB7F89460911F06709119
:10037000200680912106909122062FBF08950895AE
:10038000DB0114964D915C9115976D917C91DC0188
:10039000ED91FC910280F381E02D0994AF92BF9220
:1003A000CF92DF92EF92FF920F931F93CF93DF9341
:1003B0006C017B018B01040F151FEB015E01AE1870
:1003C000BF08C017D10759F06991D601ED91FC9192
:1003D0000190F081E02DC6010995892B79F7C501BF
:1003E000DF91CF911F910F91FF90EF90DF90CF9011
:1003F000BF90AF900895FC01538D448D252F30E0C0
:10040000842F90E0821B930B541710F0CF96089521
:1004100001970895FC01918D828D981761F0A28D4E
:10042000AE0FBF2FB11D5D968C91928D9F5F9F7314
:10043000928F90E008958FEF9FEF0895FC01918DCA
:10044000828D981731F0828DE80FF11D858D90E037
:1004500008958FEF9FEF0895FC01918D228D892FD4
:1004600090E0805C9F4F821B91098F7399270895BC
:100470008DE396E00E942C0221E0892B09F420E014
:10048000822F089580E090E0892B29F00E943802A5
:1004900081110C9400000895FC01A48DA80FB92FC0
:1004A000B11DA35ABF4F2C91848D90E001968F739C
:1004B0009927848FA689B7892C93A089B1898C91BB
:1004C000837080648C93938D848D981306C002880A
:1004D000F389E02D80818F7D80830895EF92FF92D4
:1004E0000F931F93CF93DF93EC0181E0888F9B8D57
:1004F0008C8D98131AC0E889F989808185FF15C011
:100500009FB7F894EE89FF896083E889F989808133
:100510008370806480839FBF81E090E0DF91CF9102
:100520001F910F91FF90EF900895F62E0B8D10E024
:100530000F5F1F4F0F731127E02E8C8D8E110CC093
:100540000FB607FCFACFE889F989808185FFF5CFDE
:10055000CE010E944C02F1CFEB8DEC0FFD2FF11D6F
:10056000E35AFF4FF0829FB7F8940B8FEA89FB891B
:1005700080818062CFCFCF93DF93EC01888D882379
:10058000B9F0AA89BB89E889F9898C9185FD03C0F6
:10059000808186FD0DC00FB607FCF7CF8C9185FFDB
:1005A000F2CF808185FFEDCFCE010E944C02E9CFD2
:1005B000DF91CF910895CF93DF93EC0160E08E81BE
:1005C0000E94E60081E090E00E94500161E08E818F
:1005D0000E94E60081E090E00E94500160E08E8180
:1005E0000E94E60084E690E0DF91CF910C945001E8
:1005F000CF92DF92EF92FF920F931F93CF93DF93EF
:100600006C017C0187E0E80EF11CD0E0C0E0062F11
:1006100010E0B8010C2E02C0759567950A94E2F7B8
:100620006170F70181917F010E94E6002196C4303C
:10063000D10579F7C601DF91CF911F910F91FF90FE
:10064000EF90DF90CF900C94DB02CF92DF92EF928D
:10065000FF920F931F93CF93DF93EC01F62E642F3D
:100660008C810E94E6008D818F3F19F060E00E942E
:10067000E6000F2D10E08F8584FF25C06E0187E016
:10068000C80ED11CF12CE12CB8010E2C02C07595BE
:1006900067950A94E2F76170F60181916F010E94FB
:1006A000E600FFEFEF1AFF0A88E0E816F10461F7B1
:1006B000CE01DF91CF911F910F91FF90EF90DF90CE
:1006C000CF900C94DB02B80184E0759567958A950C
:1006D000E1F7CE010E94F8026F2DCE01DF91CF919C
:1006E0001F910F91FF90EF90DF90CF900C94F80244
:1006F00040E0682F82EF96E00C94250381E00E9491
:10070000780380ED97E00C945001CF93DF93823013
:1007100029F4909101079860909301078093050751
:100720001092060780E48093070780E18093080712
:1007300080E58093090761E08091F6060E9414012C
:100740008091F7068F3F19F061E00E94140161E08B
:100750008091F8060E941401C2EFD6E09E01225F4C
:1007600036408091010784FD0BC084E090E0219623
:100770002817390744F461E08E810E941401EECFFE
:1007800088E090E0F4CF80E593EC0E94500160E0B7
:100790008091F6060E94E60060E08091F8060E94D3
:1007A000E6008091F7068F3F19F060E00E94E600B6
:1007B0008091010784FD35C063E082EF96E00E94DE
:1007C000F80284E991E10E94500163E082EF96E033
:1007D0000E94F80284E991E10E94500163E082EFF7
:1007E00096E00E94F80286E990E00E94500162E0E3
:1007F00082EF96E00E94F8028091010780620E94D9
:10080000780384E0809302078CE00E9478030E94C2
:100810007E0382E08093030786E0DF91CF910C9402
:10082000780380620E94780384E991E10E9450017C
:100830008091010780620E94780386E990E00E941F
:1008400050018091010780620E947803D5CF90917A
:100850000507691710F06FEF690FE62FF0E0EE5013
:10086000F94F9489890F80680C94780341E00E94C5
:10087000250381E090E00895089590E080E00895D8
:10088000BC016E5F7F4FDC01ED91FC910190F08126
:10089000E02D40E0099591E0811190E0892F0895C5
:1008A00008958EBD00000DB407FEFDCF8EB50895EE
:1008B000DF92EF92FF920F931F93CF93DF937C0110
:1008C000062FD42E152F80E590E00E94910060E065
:1008D000F70186850E94E60082E10E945104CD2D39
:1008E000D12F0C0F1D2F111DC017D10721F0899199
:1008F0000E945104F9CF61E0F7018685DF91CF9125
:100900001F910F91FF90EF90DF900C94E6001F93E2
:10091000CF93DF93EC01162F80E590E00E949100C9
:1009200060E08E850E94E600812F80680E9451045D
:1009300080E00E945104182F61E08E850E94E6003D
:10094000812FDF91CF911F9108950F931F93CF9324
:10095000DF93EC01062F142F80E590E00E949100B8
:1009600060E08E850E94E600802F0E945104812F56
:100970000E94510461E08E85DF91CF911F910F910C
:100980000C94E600CF92DF92EF92FF920F931F93A9
:10099000CF93DF93EC016B01F42E890140E062E01C
:1009A0000E94A50444E06AE0CE010E94A50440E84C
:1009B00064E1CE010E94A504A6016F2DCE010E9424
:1009C000580443E062E0CE010E94A5040E94B301F6
:1009D0006B017C0129E5C20ED11CE11CF11C6AE00F
:1009E000CE010E94870482FF1BC040E062E0CE017E
:1009F0000E94A50464E4CE010E948704F80180836C
:100A000062E4CE010E948704F801818380E0DF91D7
:100A1000CF911F910F91FF90EF90DF90CF900895AD
:100A20000E94B3016C157D058E059F05C0F283E021
:100A3000EECF2F923F924F925F926F927F928F9262
:100A40009F92AF92BF92CF92DF92EF92FF920F935D
:100A50001F93CF93DF9300D0CDB7DEB73C01162FA5
:100A6000942E290180E0A114B10411F0F5018081D8
:100A7000382C329490EF3922380E40E062E0C30106
:100A80000E94A5044FE768E0C3010E94A50440E866
:100A900064E1C3010E94A504A201602FC3010E946A
:100AA0005804432D6AE1C3010E94A504412F62E06E
:100AB000C3010E94A5041C3051F46AE1C3010E94E5
:100AC0008704482F40686AE1C3010E94A5040E9480
:100AD000B3011B012C01F4E22F0E311C411C511CEF
:100AE00068E0C3010E948704982F992109F0B6C0DD
:100AF00080FF16C083E00F900F90DF91CF911F9180
:100B00000F91FF90EF90DF90CF90BF90AF909F90AC
:100B10008F907F906F905F904F903F902F900895AF
:100B20000E94B3016215730584059505C8F2E2CFF2
:100B3000E114F10409F467C0C114D10409F463C0DD
:100B400064E1C3010E948704982EF6018081891513
:100B500008F47EC090829920C9F180E590E00E945F
:100B6000910060E0F30186850E94E6009A9482E994
:100B70000E945104882099F00FEF10E001C0000F8F
:100B80008A94EAF782E90E945104902F9095F70128
:100B9000208192238023982B90838824839487013B
:100BA000080D111D891440F482E90E945104F801D6
:100BB00081938F018394F6CF80E00E945104F80165
:100BC000808361E0F30186850E94E60068E1C3014D
:100BD0000E9487048770A114B10411F0F50180838D
:100BE00053FC38C0E114F104B9F1C114D104A1F1EE
:100BF0009F89992389F1F6014081413031F4843095
:100C000029F58FEF78CF80E0EBCF4230F8F08111FB
:100C10001DC042509E012F5F3F4FB701C3010E948C
:100C2000C204811168CFF6019081E90EF11CF70131
:100C3000329720819981291309C0F1E0EF1AF10858
:100C4000F70120819A81291709F455CF87E053CF06
:100C500084E051CF82E04FCF80E04DCF6CE0C30104
:100C60000E948704582E837109F462CF81E043CF3C
:100C70008F92AF92BF92CF92DF92EF92FF920F933B
:100C8000CF93DF93CDB7DEB72C970FB6F894DEBFC6
:100C90000FBECDBF89836A83E7E3F6E0DE011396DA
:100CA00081918D9386E0ED33F807D1F7E0910C0741
:100CB000E150FF0BE65FF84FDE011996CE010D966D
:100CC00021912D93A817B907D9F71F92812CB12C28
:100CD000A12CD12CC12CF12CE12C0CE09E012F5F1A
:100CE0003F4F40E16EE08AE097E00E9419050F90C7
:100CF0002C960FB6F894DEBF0FBECDBFDF91CF911B
:100D00000F91FF90EF90DF90CF90BF90AF908F90BA
:100D100008950F931F93CF93DF938C01D62FC42F89
:100D20000E948704C0954C2F48236D2FC801DF9186
:100D3000CF911F910F910C94A5046F927F928F9287
:100D4000AF92BF92CF92DF92EF92FF920F93CF9329
:100D5000DF9300D000D01F92CDB7DEB73C0182E018
:100D60008D8340E064E2C3010E94A50440E066E296
:100D7000C3010E94A50446E268E4C3010E94A504E1
:100D800086E28B838D818230C8F140E86CE1C3013B
:100D90000E94890687E08C831F92812CCE010496E5
:100DA0005C0101966C0104977C0101E09E012D5FBE
:100DB0003F4F40E36CE0C3010E941905982F0F904C
:100DC000811119C08D818230C9F48C81811116C0C6
:100DD00081E00F900F900F900F900F90DF91CF91C7
:100DE0000F91FF90EF90DF90CF90BF90AF908F90DA
:100DF0007F906F90089581E0923059F380E0E9CFC1
:100E00002F923F924F925F926F927F928F929F921A
:100E1000AF92BF92CF92DF92EF92FF920F931F9308
:100E2000CF93DF93CDB7DEB72E970FB6F894DEBF22
:100E30000FBECDBF06E0413508F046C14E873B01ED
:100E40002C0140E86CE10E94890683E989832E85A4
:100E5000222329F081E0F3019081953008F480E0AD
:100E6000992493941C869C85990F990F990F1E8540
:100E7000191B17FD10E032E0882319F098E89B83D6
:100E800033E021E0912F977009F420E0912F9595A0
:100E900095959595290FD1F094E0811193E029174C
:100EA00008F4922F2C85E22FF0E03196E60DF71D25
:100EB000232F4191A1E0B0E0AC0FBD1FA20FB11DE7
:100EC0004C932F5F422F431B491798F38111185FF2
:100ED00010320CF484C080E78A838B819C8189273F
:100EE0009D8189279E8189278F839E01285F3F4F9F
:100EF00047E0BE016F5F7F4FC2010E94C204082F0E
:100F00008111E2C01A8693E09B871D87FE01379608
:100F10001F0109E08A84482D4295407F480D6AE10F
:100F2000C2010E94A5041F92CE010A965C01FE0137
:100F30003B966F0171019E012F5F3F4F40E36CE0D4
:100F4000C2010E941905082F0F90823009F065C078
:100F50006CE1C2010E94870485FDB6C08F7109F45F
:100F600080E2282F30E0412F110F550B4217530715
:100F70000CF09EC0182FE22FE595E595E595EF5F03
:100F8000922F977081E009F480E0E80F81E090E013
:100F90008C0F9D1F8E0F911DFC0121503109277070
:100FA000332781E090E002C0880F991F2A95E2F76D
:100FB0009C018081822B80838BCF85E98983FE858C
:100FC000FF2331F081E0F3019081983008F04BCF9E
:100FD00080E049CF87E98983F6E0FC87F9CF912F3C
:100FE00097709A87812F8595859585958E5F282F97
:100FF0002295207F290F2A8301E0911101C000E092
:10100000080F22242394312C2C0E3D1E280E311C57
:10101000F9E0F81BFB871D877DCF811155C010E2D9
:101020009D8590320CF457CF8B81883809F042C0EF
:1010300083E093E02C85E22FF0E03196E60DF71D7A
:10104000980FA1E0B0E0AC0FBD1FA80FB11D2C910F
:1010500021938F5F8913F5CF8B858C87833009F0BF
:101060004DC08A8581114AC09E012D5F3F4F41E0EE
:10107000B101C2010E94C204082F811125C09B81C9
:10108000F101818198133CC09C818281981338C002
:10109000808182FF12C09394F2E09F1609F48DCFF5
:1010A00023E0921609F496CF81E0981609F4CDCE8C
:1010B00005E00AC082E094E0BDCFF3018387892D6B
:1010C000880F980E93949082802F2E960FB6F894E6
:1010D000DEBF0FBECDBFDF91CF911F910F91FF906B
:1010E000EF90DF90CF90BF90AF909F908F907F90C8
:1010F0006F905F904F903F902F90089501E0E4CF64
:1011000007E0E2CF8F92AF92BF92CF92DF92EF9241
:10111000FF920F93CF93DF9300D000D0CDB7DEB70F
:1011200080E589831A829E012D5F3F4F42E0BE0118
:101130006F5F7F4F8AE097E00E94C204811113C065
:101140001F92812CB12CA12CD12CC12CF12CE12C83
:1011500004E09E012F5F3F4F40E36CE08AE097E0A0
:101160000E9419050F9048E060E18AE097E00E9434
:1011700089060F900F900F900F90DF91CF910F91F4
:10118000FF90EF90DF90CF90BF90AF908F90089539
:101190008F92AF92BF92CF92DF92EF92FF920F9316
:1011A000CF93DF931F92CDB7DEB782E1898363E0EF
:1011B00080E60E94380691E081112EC0898182313B
:1011C00010F490E029C080E38093FE0582E08093D4
:1011D000FF0520E036E042E06EEF75E08AE097E040
:1011E0000E94C2048111EDCF81E08F93812CB12C3C
:1011F000A12CCE0101966C018EEFE82E85E0F82E31
:1012000004E0970140E36CE08AE097E00E94190552
:1012100091E00F908111D5CF892F0F90DF91CF9161
:101220000F91FF90EF90DF90CF90BF90AF908F9095
:10123000089560E08AE00C94E60061E08AE00C9496
:10124000E600CF93C0911D06C130C9F40E941D096C
:101250008091120690911306019690931306809345
:1012600012068091120690911306609119017091F7
:101270001A010E94B820892B11F4C0931A06CF914D
:10128000089561E080E10E94E60060E971E080E09D
:1012900090E00E94800160E080E10E94E60060E949
:1012A00071E080E090E00E94800161E080E10E94B6
:1012B000E60060E971E080E090E00E94800160E07B
:1012C00080E10E94E60060E971E080E090E00E9429
:1012D000800161E080E10E94E60060E971E080E069
:1012E00090E00E94800160E080E10C94E600CF93E2
:1012F000DF93EC0161E080E10E94E600BE01DD0FBA
:10130000880B990B0E94800160E080E1DF91CF9112
:101310000C94E60040910E0150E0EAEDF6E030E07A
:1013200020E090E080E02417350744F4608171816B
:10133000860F971F2F5F3F4F3496F5CF089540914A
:101340000E0150E0EAEDF6E030E020E0241735072A
:1013500034F4918380832F5F3F4F3496F7CF089505
:101360008F92AF92BF92CF92DF92EF92FF920F9344
:10137000CF93DF93CDB7DEB764970FB6F894DEBF97
:101380000FBECDBF062FE62EF12CA701BC01CE016A
:1013900001960E94EA2221E030E02C0F3D1F2E0D25
:1013A0003F1D402FBE016F5F7F4F8AE097E00E9494
:1013B000C204811123C082E18C8B1B8A0E5F1F92B5
:1013C000812CCE0143965C0101966C0143977C0110
:1013D0009C0140E36CE08AE097E00E9419050F90C1
:1013E00081110CC08C898130D1F48B898430B9F49F
:1013F00081E099819A3009F480E0819564960FB676
:10140000F894DEBF0FBECDBFDF91CF910F91FF905B
:10141000EF90DF90CF90BF90AF908F90089581E0D4
:10142000EDCFCF93DF9300D0CDB7DEB763E081E699
:101430000E943806811112C080EA898382E08A8383
:1014400062E0CE0101960E94B00981110DC060E1F9
:1014500087E296E00E94B009811106C081E00F90FA
:101460000F90DF91CF91089580E0F9CFFB010190BB
:101470000020E9F73197AF01461B570BDC01ED91D6
:10148000FC910280F381E02D09948F929F92AF929C
:10149000BF92EF92FF920F931F93CF93DF93CDB73D
:1014A000DEB7A1970FB6F894DEBF0FBECDBF7C01AB
:1014B000FA01CB0119A2223008F42AE08E010F5D57
:1014C0001F4F822E912CB12CA12CBF01A50194019C
:1014D0000E94CC20F901CA016A300CF5605DD80188
:1014E0006E938D01232B242B252B79F790E080E040
:1014F000109721F0BD01C7010E94360AA1960FB6D0
:10150000F894DEBF0FBECDBFDF91CF911F910F9139
:10151000FF90EF90BF90AF909F908F900895695C7F
:10152000DECFCF92DF92EF92FF926C01990FEE081F
:10153000FF08F7FE18C041E06DE282EF96E00E94DE
:10154000250344275527BA014C195D096E097F0907
:101550002AE082EF96E00E94450A0196FF90EF9004
:10156000DF90CF9008952AE0B701A60182EF96E0C0
:10157000FF90EF90DF90CF900C94450ABC0182EF72
:1015800096E00C94360A0E947E0360E080E00E94A0
:10159000270480911D06811113C087E591E00E9408
:1015A000BE0A61E080E00E94270484E791E00E9487
:1015B000BE0A0E948A090E94910A1092130108959E
:1015C000813079F786E691E0EACF0E947E0360E001
:1015D00080E00E94270482E891E00E94BE0A61E058
:1015E00080E00E94270440910E0150E070E060E02E
:1015F0002AE082EF96E00C94450A0E947E0360E0A8
:1016000080E00E94270483E991E00E94BE0A61E025
:1016100080E00E94270481EA91E00E94BE0A809146
:10162000190190911A010E94910A809119019091DB
:101630001A01019721F488EA91E00C94BE0A8FEA1E
:1016400091E0FBCF0E947E0360E080E00E942704CF
:1016500087EB91E00E94BE0A61E080E00E942704CF
:1016600080911501909116010E94910A86EC91E0FB
:101670000C94BE0A0E947E0360E080E00E94270472
:101680008EEC91E00E94BE0A61E080E00E94270497
:1016900080911D06811104C08BED91E00C94BE0A6F
:1016A000813019F480EE91E0F9CF08950E947E0315
:1016B00060E080E00E9427048AE794E00E94BE0A6E
:1016C00061E080E00E94270480910F019091100159
:1016D0000C94910A80911B0690911C06009719F0BA
:1016E000019771F008958091130181110E94C30A3E
:1016F0001092F6051092F5058EE680931401089578
:101700008091F705882309F412C1E091F505F09165
:10171000F605E830F10508F00AC1EF56F44F0C94D5
:10172000EE20990BB40BC80BE20BFC0B340C5B0CDA
:10173000790C0E947E0360E080E00E94270460E054
:1017400082EF96E00E94360460E082E00E94270467
:101750008CEE91E00E94BE0A61E082E00E942704C4
:1017600089EF91E00C94BE0A0E947E0360E082E063
:101770000E9427048CEE91E00E94BE0A61E080E0A6
:101780000E94270460E082EF96E00E943604E4CFD6
:101790000E947E0360E082E00E94270489EF91E0CE
:1017A0000E94BE0A61E080E00E94270460E082EFB0
:1017B00096E00E94360461E082E00E94270487E000
:1017C00092E0D0CF0E947E0360E082E00E94270476
:1017D00087E092E00E94BE0A61E080E00E94270458
:1017E00060E082EF96E00E94360461E082E00E94B1
:1017F000270483E192E0B6CF80911D068130D1F4B9
:101800000E947E0360E082E00E94270483E192E070
:101810000E94BE0A61E080E00E94270460E082EF3F
:1018200096E00E94360461E082E00E9427048EEC7C
:1018300091E098CF0E947E0360E082E00E9427043E
:1018400083E192E00E94BE0A61E080E00E942704EA
:1018500060E082EF96E00E94360461E082E00E9440
:1018600027048EE192E07ECF80911D06811109C090
:101870000E947E0360E082E00E9427048EE192E0F5
:10188000C7CF0E947E0360E082E00E9427048EECB6
:1018900091E00E94BE0A61E080E00E94270460E0BF
:1018A00082EF96E00E94360461E082E00E94270405
:1018B0008BEB91E057CF80911D068130C1F50E94DE
:1018C0007E0360E082E00E9427048BEB91E00E949F
:1018D000BE0A61E080E00E94270460E082EF96E0AB
:1018E0000E94360461E082E00E9427048AE292E0CE
:1018F00039CF80911D068130D1F40E947E0360E0D3
:1019000082E00E9427048AE292E00E94BE0A61E01F
:1019100080E00E94270460E082EF96E00E94360497
:1019200061E082E00E94270488E392E01BCF0895E3
:101930000E947E0360E080E00E94270487E492E03A
:101940000E94BE0A61E080E00E94270480910C01A1
:1019500090910D010C94910ACF93DF93BC018DE31C
:1019600096E00E94360AEC0167E572E08DE396E0AE
:101970000E94360A8C0F9D1FDF91CF910895CF935F
:10198000DF93EB010E94C31F8883CE01DF91CF91CB
:1019900008950F931F93CF93DF938C01EB010E9467
:1019A000C31F8883C80101960E94C31F8983CE018B
:1019B000DF91CF911F910F9108950F931F93CF93B4
:1019C000DF93EC0188819981009759F02A813B814E
:1019D0002617370730F081E0DF91CF911F910F91EB
:1019E00008958B016F5F7F4F0E942D22009759F061
:1019F000998388831B830A832C813D81232B59F78C
:101A0000FC011082E8CF80E0E7CFEF92FF920F93C6
:101A10001F93CF93DF936115710541F480E0DF914F
:101A2000CF911F910F91FF90EF90089541155105AF
:101A3000B1F07B01EC010C811D81040F151FB80171
:101A40000E94DD0C882351F3288139818C819D818E
:101A5000B701820F931F0E94F3221D830C8381E044
:101A6000DECFFB0144815581608171810C94050DAD
:101A7000CF93DF93EC0188819981009711F00E9448
:101A8000A421198218821D821C821B821A82DF9176
:101A9000CF910895CF93DF93EC01FB0144815581F1
:101AA000608171810E94050D811103C0CE010E94E9
:101AB000380DCE01DF91CF910895EF92FF920F93F1
:101AC0001F93CF93DF93EC017B018A01BA010E943F
:101AD000DD0C81110BC0CE010E94380DCE01DF91CB
:101AE000CF911F910F91FF90EF9008951D830C836C
:101AF000B701888199810E94F322F0CFEF92FF9283
:101B00000F931F93CF93DF93CDB7DEB762970FB6D6
:101B1000F894DEBF0FBECDBF8C01CB01F80111825E
:101B2000108213821282158214824AE09E012F5F76
:101B30003F4F7901B9010E94931EF70101900020E7
:101B4000E9F73197AF014E195F09B701C8010E944B
:101B50005D0D62960FB6F894DEBF0FBECDBFDF916C
:101B6000CF911F910F91FF90EF900895EF92FF9208
:101B70000F931F93CF93DF93CDB7DEB729970FB69F
:101B8000F894DEBF0FBECDBF8C01862FF801118205
:101B9000108213821282158214824AE09E012F5F06
:101BA0003F4F7901B90190E00E949E1EF70101901C
:101BB0000020E9F73197AF014E195F09B701C8015D
:101BC0000E945D0D29960FB6F894DEBF0FBECDBF03
:101BD000DF91CF911F910F91FF90EF900895FB013E
:101BE000DC0111961C921E9213961C921E92129763
:101BF00015961C921E9214978617970749F06081DC
:101C000071816115710521F0448155810C945D0D40
:101C10000895FC01118210821382128215821482AF
:101C2000FB0101900020E9F73197AF01461B570BEC
:101C30000C945D0DFC0180819181009711F00C9452
:101C4000A4210895EF92FF920F931F93CF93DF93F8
:101C5000CDB7DEB762970FB6F894DEBF0FBECDBF2B
:101C6000082F10E0B8016F5F7F4FCE0107960E94EA
:101C70007E0D6EE871E0CE0101960E94090EBE0154
:101C8000695F7F4FCE0101960E944A0D7C0149E0B9
:101C900050E06AE572E00E94050D811103C0C701A2
:101CA0000E94380DB701CE010D960E94EF0DCE01B6
:101CB00001960E941A0ECE0107960E941A0E0E94EB
:101CC0007E0360E080E00E942704BE01635F7F4FD7
:101CD00082EF96E00E94C00161E080E00E9427044C
:101CE000000F111F000F111FF801E652F94F8081FC
:101CF00091810E94910ACE010D960E941A0E629661
:101D00000FB6F894DEBF0FBECDBFDF91CF911F910C
:101D10000F91FF90EF900895FF920F931F93CF9331
:101D2000DF938C01EB01F8800E94C31FF81621F0AD
:101D30006F2DC8010E94CB1FCE01DF91CF911F9163
:101D40000F91FF900895FF920F931F93CF93DF930E
:101D5000EC018B01FB01F0800E94C31FF81621F0FB
:101D60006F2DCE010E94CB1FF801F1802196CE018C
:101D70000E94C31FF81621F06F2DCE010E94CB1FC9
:101D8000C801DF91CF911F910F91FF9008950C949E
:101D9000CB1FCF93DF93843741F460911D0689E117
:101DA00090E0DF91CF910C94C70E8D3429F46091AF
:101DB0000E018EE190E0F5CF8937C1F560911D06E7
:101DC00089E190E00E94C70E60910E018EE190E0E3
:101DD0000E94C70E60910F018FE090E00E94C70E35
:101DE0006EE180911101909112010E94C70EC09185
:101DF0000C0160910D018AE090E00E94C70E6C2FEB
:101E00008BE090E00E94C70EC1E2D1E020910E016C
:101E1000CE018152914028171906A1F19CF18991B8
:101E20006091110190E00E94C70EF0CF833641F41B
:101E300065E171E083E290E0DF91CF910C94A30E15
:101E4000803719F569E171E088E290E00E94A30E05
:101E50006091190170911A01072E000C880B990BE3
:101E60000E94CA1E9B01AC0160E070E080EA90E431
:101E70000E94102060931A0770931B0780931C0721
:101E800090931D07DF91CF9108958737D9F767E1C8
:101E900071E08DE290E0D0CF0F931F93CF93DF934B
:101EA0008237B1F4CAEDD6E001E211E020910E01D3
:101EB000C8018152914028171906D1F0CCF0F801E1
:101EC00081918F01688190E00E94C70E2496EECF29
:101ED000863641F38D36B1F4C0910C0160910D014D
:101EE0008AE090E00E94C70E6C2F8BE090E004C067
:101EF0006091110184E190E0DF91CF911F910F91EA
:101F00000C94C70E823629F460910F018FE090E0A7
:101F1000F3CFDF91CF911F910F910C94C90E0E94C6
:101F20007E0360E080E00E94270484E692E00E9445
:101F3000BE0A61E080E00E94270483E792E00E94ED
:101F4000BE0A80911101909112010E94910A86E6C9
:101F50000C944C0F9F92AF92BF92CF92DF92EF9270
:101F6000FF920F931F93CF93DF93EC010E948A0996
:101F7000892B09F4DCC00AED16E09BE2E92E91E022
:101F8000F92E20910E01C7018B5291402817190696
:101F900009F00CF4B2C01C161D060CF0AEC0F8011E
:101FA000A080B1800E947E03F801C080D1801C1403
:101FB0001D040CF043C0209709F499C060E080E054
:101FC0000E94270480E892E00E94BE0A61E080E05F
:101FD0000E9427048FE892E00E94BE0AF701D08099
:101FE00061E08D2D0E94E60060910C0170910D0161
:101FF000072E000C880B990B0E94800160E08D2D4C
:102000000E94E600F80180819181009719F0019704
:1020100091838083219780E293E00E9477096AE1AF
:1020200074E080E090E00E9480010E947E0366E9F7
:1020300070E080E090E00E948001B6CF1A141B048B
:102040000CF055C0C114D10409F051C0209709F417
:102050004EC05E01C430D1051CF084E0A82EB12C26
:1020600060E080E00E94270480E892E00E94BE0ABF
:1020700061E080E00E9427048FE892E00E94BE0A9F
:10208000F701908061E0892D0E94E60060910C01CB
:1020900070910D01072E000C880B990B0E94800196
:1020A00060E0892D0E94E600F8018081918100970F
:1020B00019F001979183808380E293E00E94770971
:1020C0006AE174E080E090E00E9480010E947E035B
:1020D00066E970E080E090E00E948001FFEFCF1A97
:1020E000DF0AAC14BD0409F0BBCFCA19DB090C5FD1
:1020F0001F4F8FEFE81AF80A44CF82E70E944C0F77
:1021000010921C0610921B068EE68093140181E04B
:1021100080931301DF91CF911F910F91FF90EF906A
:10212000DF90CF90BF90AF909F900C946A0B0E946D
:102130007E0360E080E00E9427048BE992E00E9429
:10214000BE0A61E080E00E94270481EA92E00E94DA
:10215000BE0A0E944109D4CF1F920F920FB60F9270
:1021600011242F933F938F939F93AF93BF938091AD
:102170001F0690912006A0912106B0912206309171
:102180001E0623E0230F2D3768F126E8230F029661
:10219000A11DB11D20931E0680931F06909320065B
:1021A000A0932106B09322068091230690912406E5
:1021B000A0912506B09126060196A11DB11D809320
:1021C000230690932406A0932506B0932606BF917C
:1021D000AF919F918F913F912F910F900FBE0F90D4
:1021E0001F9018950196A11DB11DD4CF1F920F927B
:1021F0000FB60F9211242F933F934F935F936F93DA
:102200007F938F939F93AF93BF93EF93FF93E0914F
:102210000201F09103010995FF91EF91BF91AF91F8
:102220009F918F917F916F915F914F913F912F91EE
:102230000F900FBE0F901F9018951F920F920FB620
:102240000F9211242F933F934F935F936F937F933C
:102250008F939F93AF93BF93EF93FF93E091000110
:10226000F09101010995FF91EF91BF91AF919F917D
:102270008F917F916F915F914F913F912F910F902F
:102280000FBE0F901F9018951F920F920FB60F92CE
:1022900011242F933F934F935F936F937F938F936B
:1022A0009F93AF93BF93EF93FF938DE396E00E94CC
:1022B0004C02FF91EF91BF91AF919F918F917F91D0
:1022C0006F915F914F913F912F910F900FBE0F90A3
:1022D0001F9018951F920F920FB60F9211242F93F3
:1022E0008F939F93EF93FF93E0914D06F0914E06ED
:1022F0008081E0915306F091540682FD1BC09081CD
:10230000809156068F5F8F7320915706821741F098
:10231000E0915606F0E0E35CF94F958F8093560606
:10232000FF91EF919F918F912F910F900FBE0F9082
:102330001F9018958081F4CFEDE3F6E013821282AE
:1023400088EE93E0A0E0B0E084839583A683B78312
:1023500083E391E09183808385EC90E09587848787
:1023600084EC90E09787868780EC90E0918B808B5F
:1023700081EC90E0938B828B82EC90E0958B848B48
:1023800086EC90E0978B868B118E128E138E148EB6
:102390006091190170911A01072E000C880B990B9E
:1023A0000E94CA1E9B01AC0160E070E080EA90E4EC
:1023B0000E94102060931A0770931B0780931C07DC
:1023C00090931D07EAE0F7E081E591E09183808337
:1023D0008AE0868782E08787E2EFF6E01382128246
:1023E00085E491E09183808384E084838FEF85830B
:1023F00085E0868386E0878387E0808788E0818721
:1024000089E082871386148615861686178681E0F2
:102410000E948503EAEDF6E0118210821582148293
:102420001186108615861486118A108A158A148AD8
:102430000895CF93DF93CDB7DEB768970FB6F894C2
:10244000DEBF0FBECDBF789484B5836084BD85B5F3
:10245000836085BD80916E00816080936E0092E004
:1024600090938100809181008160809381008091B0
:1024700080008160809380008091B10084608093AF
:10248000B1008091B00081608093B00087E88093B4
:102490007A001092C100E0914D06F0914E069083B3
:1024A000E0914906F0914A061082E0914B06F091C6
:1024B0004C068FEC808310925506E0915106F09106
:1024C000520686E08083E0914F06F09150068081AD
:1024D00088698083E0914F06F091500680818F7D5E
:1024E000808382E00E94850380E40E94780304E0F8
:1024F00011E08CE0E82E81E0F82EF80161918F0167
:1025000082EF96E00E943604E016F106B1F76FE024
:1025100071E08FE090E00E94C90C80910F019091D2
:1025200010011816190664F08AE090E090931001EB
:1025300080930F016FE071E08FE090E00E94A30EA6
:102540006DE176E089E190E00E94BF0C80911D066C
:10255000823040F010921D066DE176E089E190E056
:102560000E948C0E6EE071E08EE190E00E94BF0C44
:1025700080910E018150833048F082E080930E01FB
:102580006EE071E08EE190E00E948C0E61E171E0FE
:1025900084E190E00E94C90C809111019091120198
:1025A0001816190664F080E390E09093120180936E
:1025B000110161E171E084E190E00E94A30E8AE0E4
:1025C00090E00E94C31F182F8BE090E00E94C31F71
:1025D000212F30E0322F2227820F932F911D9093CD
:1025E0000D0180930C011816190664F08CED95E02E
:1025F00090930D0180930C016CE071E08AE090E013
:102600000E94A30E65E171E083E290E00E94C90C94
:102610002091150130911601C90165E070E00E941A
:10262000B820892B19F42B3F31057CF084E190E030
:1026300090931601809315019A838983BE016F5F81
:102640007F4F83E290E00E94A30E69E171E088E28F
:1026500090E00E94C90C8091190190911A019C018F
:102660002150310922303105A8F08530910591F0D3
:102670000A9781F081E090E090931A01809319010C
:1026800060E088E290E00E94C70E61E089E290E09D
:102690000E94C70E6091190170911A01072E000C5B
:1026A000880B990B0E94CA1E9B01AC0160E070E090
:1026B00080EA90E40E94102060931A0770931B0731
:1026C00080931C0790931D0767E171E08DE290E015
:1026D0000E94C90C0AED16E0B1E2EB2EB1E0FB2E30
:1026E00080910E0190E0970121523140281739075F
:1026F0008CF04091110150911201EAEDF6E030E0CA
:1027000020E08217930799F0538342832F5F3F4F56
:102710003496F7CFF70181917F0190E00E94C31FAB
:1027200090E0F801918380830C5F1F4FD9CF62E066
:1027300083E00E94140162E08EE00E94140162E0D6
:102740008FE00E94140180911D06813041F461E008
:102750008AE00E94140162E082E00E94140161E0BC
:1027600080E10E94140160E080E10E94E6000BE23B
:1027700011E020910E01C8018B52914028171906D3
:1027800069F064F0F801F1908F0161E08F2D0E94F3
:10279000140160E08F2D0E94E600EBCF0E941D091E
:1027A00080911D06813009F03BC181E299E0909350
:1027B000010180930001809169008C7F8260809389
:1027C0006900E89A84E690E00E94C31F893709F403
:1027D000EBC18BEA92E00E94AC0C89E70E94C90E23
:1027E00064E670E080E090E00E94800169E784E6A2
:1027F00090E00E94C70E8FEF8093370680933806D3
:102800008093390680933A0680933B0680933C067A
:102810000E947E0360E083E00E94270486EB92E042
:102820000E94BE0A61E082E00E94270481EC92E0EF
:102830000E94BE0A68EB7BE080E090E00E9480018D
:102840000E947E0360E082E00E9427048EEC92E00A
:102850000E94BE0A61E082E00E9427048BED92E0B4
:102860000E94BE0A60ED77E080E090E00E94800167
:102870008091130181110E94C30A60911D06CE014F
:1028800001960E94B60D64EF72E0CE0107960E9499
:10289000090EBE016F5F7F4FCE0107960E944A0D61
:1028A000BC01CE0143960E94EF0DCE0107960E9417
:1028B0001A0ECE0101960E941A0E60910E01CE01F1
:1028C00001960E94B60D65E073E0CE0107960E9466
:1028D000090EBE016F5F7F4FCE0107960E944A0D21
:1028E000BC01CE0143960E94310DCE0107960E9495
:1028F0001A0ECE0101960E941A0E6091110170917C
:102900001201CE0101960E947E0D65E173E0CE01B9
:1029100007960E94090EBE016F5F7F4FCE0107969A
:102920000E944A0DBC01CE0143960E94310DCE019A
:1029300007960E941A0ECE0101960E941A0E60910F
:102940000F0170911001CE0101960E947E0D66E28A
:1029500073E0CE0107960E94090EBE016F5F7F4FA4
:10296000CE0107960E944A0DBC01CE0143960E94FB
:10297000310DCE0107960E941A0ECE0101960E94DB
:102980001A0EFAEDEF2EF6E0FF2E10E000E0809137
:102990000E018017110609F00CF40BC1F7016081DC
:1029A0007181CE0101960E947E0D0F5F1F4FB8010D
:1029B000CE0107960E947E0D64E373E0CE010D9672
:1029C0000E94090EBE01695F7F4FCE010D960E94E5
:1029D0004A0D6C014BE050E06BE373E00E94050D83
:1029E000811103C0C6010E94380DBE016F5F7F4F89
:1029F000C6010E944A0DBC01CE0143960E94310DD2
:102A0000CE010D960E941A0ECE0107960E941A0E54
:102A1000CE0101960E941A0EF4E0EF0EF11CB7CF22
:102A20001FB7F8948091F405811127C0E0E9F0E028
:102A30008491E7EAF0E09491E82FF0E0EE0FFF1FB9
:102A4000E859FF4FA591B491EC91E92321F461E09D
:102A50008AE00E94E60061E08AE00E9414018CB5E1
:102A600080618CBD8CB580648CBD61E08DE00E947E
:102A7000140161E08BE00E9414018091F4058F5FE6
:102A80008093F4051FBF61E0809118070E94140134
:102A900061E0809118070E94E600809119078F3F3E
:102AA00009F46BC060E00E941401809119070E9434
:102AB000BD00892B09F061C061E0809119070E9477
:102AC000140160E0809119070E94E60082E090E026
:102AD0000E94500161E0809119070E94E60062E3C4
:102AE00070E080E090E00E94800140E064E28AE0D3
:102AF00097E00E94A50440E066E28AE097E00E9429
:102B0000A50446E268E48AE097E00E94A50440E854
:102B100064E58AE097E00E94A50449EA66E58AE058
:102B200097E00E94A50443E068E58AE097E00E94F0
:102B3000A50448EE6AE58AE097E00E94A50440E417
:102B40006AE28AE097E00E94A5044DE362E28AE02F
:102B500097E00E94A50468E28AE097E00E9487045B
:102B6000982F9370933009F42DCE482F436068E27C
:102B70008AE097E00E94A50425CE4FE062E08AE05B
:102B800097E00E94A50413E062E370E080E090E02B
:102B90000E94800162E08AE097E00E94870484FF3F
:102BA000A4CF115089F7A1CF87EE92E00E94AC0C20
:102BB00022CEBE016D5E7F4F8DE396E00E94C00184
:102BC00067E572E08DE396E00E94360A68EE73E0F6
:102BD00080E090E00E948001CE0143960E941A0E90
:102BE00083E00E94BD00892B09F0C5C081E080937D
:102BF000F7058093130181E090E090931C06809389
:102C00001B068EE6809314010E946A0B83E00E94EB
:102C1000BD00892BD9F354E6252E312C68EE462EC3
:102C200063E0562EAA24A394B12CE5E08E2E912CBD
:102C30003EE6D32E4EE0642E46E0742E0E94B30191
:102C40006093F9057093FA058093FB059093FC055A
:102C500083E00E94BD00892B09F044C18FE00E94EF
:102C6000BD00892B09F08AC08EE00E94BD00892B2F
:102C700009F484C080911D06811180C00E94B301B7
:102C80000091F9051091FA052091FB053091FC05A2
:102C9000601B710B820B930B6838734181059105A2
:102CA000B8F28091F805811108C08CE291E00E9491
:102CB00077098CE291E00E9477090E947E0360E030
:102CC00080E00E9427048EE192E00E94BE0A61E04B
:102CD00080E00E94270487E493E00E94BE0A60ED32
:102CE00077E080E090E00E9480010E947E0360E037
:102CF00080E00E9427048CE493E00E94BE0A8FE0EB
:102D00000E94BD00892B09F45EC087E593E00E9414
:102D1000AC0C8AE097E00E949D06882381F38AE04C
:102D200097E00E944004882351F30E94C80888233A
:102D3000A9F08091FE05863419F08D7F803561F50C
:102D400061E080E00E9427048FE593E00E94BE0AC4
:102D500068EE73E080E090E00E9480010E947E03B4
:102D600060E080E00E9427048CE493E00E94BE0AA9
:102D70000E948208C4CF0E9419094DCF8EE00E94A4
:102D8000BD00892B09F442C010921C0610921B064C
:102D900086E7809314015CCF1092270680910F0183
:102DA000809336060E94110A8823C1F261E080E018
:102DB0000E94270480E793E00E94BE0A84EF91E01E
:102DC0000E947709CBCF0E947E0360E080E00E94E2
:102DD000270485E793E00E94BE0A64EF71E080E07B
:102DE00090E00E94800110921C0610921B06D09267
:102DF000140191E09093F705909313018091F805E9
:102E000089278093F8050E946A0B22CF8FE00E94E9
:102E1000BD00892B09F4B8CF0E94B3010091F905D8
:102E20001091FA052091FB053091FC05601B710B98
:102E3000820B930B683873418105910508F408CF24
:102E40008CE291E00E9477098CE291E00E94770980
:102E50000E947E0360E080E00E94270480E893E007
:102E60000E94BE0A61E080E00E9427048EE891E0A3
:102E70000E94BE0A60ED77E080E090E00E94800151
:102E80000E947E0360E080E00E94270489E893E0CE
:102E90000E94BE0A8FE00E94BD00892BD9F7809165
:102EA0001101909112010E949F0986E60E944C0F29
:102EB0000E947E0360E080E00E94270484E993E0A2
:102EC0000E94BE0A84EF91E00E94770910921C06CE
:102ED00010921B06D092140181E08093F705809335
:102EE000130191CF809114018E3609F079C08EE0E4
:102EF0000E94BD00892BF1F46CE271E080E090E06B
:102F00000E9480018091F5059091F60501969093BD
:102F1000F6058093F50520911D062111DEC0069768
:102F200021F41092F6051092F50581E08093F705E3
:102F3000809313018FE00E94BD008C01892B09F062
:102F40004FC080911B0690911C06019709F048C064
:102F50006CE271E080E090E00E9480018091F505D4
:102F60009091F605009709F0BFC082E780931401A5
:102F7000809114018D3609F4CBC10CF013C1823657
:102F800009F425C20CF0E7C08D3409F49CC180918E
:102F900014010E944C0F80E293E00E9477090E9486
:102FA0007E0360E080E00E94270483EA93E00E94B1
:102FB000BE0A61E080E10E94E60060ED77E080E01B
:102FC00090E00E94800160E080E10E94E600D092E3
:102FD000140110921C0610921B0681E080931301CD
:102FE0000E946A0B1092F70580911D0681119DC405
:102FF0008AE097E00E949D06882309F461C00E9440
:103000007E0360E080E00E9427048DEA93E00E9446
:10301000BE0A61E080E00E9427048CEB93E00E94EE
:10302000BE0A8AE097E00E944004882309F441C068
:103030000E94C808882309F46FC484EF91E00E94BD
:1030400077098091FE05863409F087C28DEC93E004
:103050000E94AC0C0E947E0360E080E00E94270486
:1030600087EE93E00E94BE0A61E080E00E942704A0
:1030700083EF93E00E94BE0A60ED77E080E090E08D
:103080000E94800180911101909112010E949F097C
:1030900086E60E944C0F0E947E0360E080E00E9462
:1030A000270484E993E00E94BE0A84EF91E00E9425
:1030B00077090E948208D092140181E08093130165
:1030C00080E090E0892B09F4B9CD0E943802882372
:1030D00009F4AECD0E940000ABCD213009F025CF20
:1030E00008970CF01ECF21CF8130910511F486E6B0
:1030F0003DCF8230910511F48DE438CF83309105B6
:1031000011F48DE633CF8430910541F480911D0692
:10311000811102C082E62ACF84E728CF853091054D
:1031200031F480911D068823B9F383E61FCF8630E2
:10313000910539F480911D06813009F019CF80E79F
:1031400015CF079709F014CF80911D06813009F043
:103150000FCF87E70BCF833609F4C9C1863609F054
:1031600016CF0E948F0F8FE00E94BD00892B09F4BB
:10317000A3C08EE00E94BD00892BA9F76CE271E02C
:1031800080E090E00E9480018091110190911201F5
:1031900001968D3391050CF08AC0909312018093B3
:1031A0001101DFCF823709F4D5C0ECF5803709F083
:1031B000EECE0E94FD0A8091190190911A01813092
:1031C000910579F001E010E08230910551F002E0C4
:1031D00010E08530910529F003E010E00A9709F02E
:1031E0000FEF8FE00E94BD00892B09F4B0C18EE083
:1031F0000E94BD00892BA9F76CE271E080E090E0AD
:103200000E9480010F5F043009F400E0E02FF0E03D
:10321000E95DFE4F808190E090931A01809319013F
:103220000E94FD0ADECF843709F438C1873709F0E0
:10323000AECE8FE00E94BD00892B09F482C18EE0E2
:103240000E94BD00892BA9F76CE271E080E090E05C
:103250000E948001809117019091180188519C4F24
:1032600081322EE492070CF067C19093180180938D
:1032700017010E947E0360E080E00E94270488E33B
:1032800092E00E94BE0A61E080E00E9427048091E3
:1032900017019091180168EE73E00E94B820CB01ED
:1032A0000E94910A8EE993E00E94BE0AC2CFB092BA
:1032B0001201A092110155CF80911101909112013C
:1032C0000E949F0964CE0E94E50A11E08FE00E94EF
:1032D000BD00892B09F45BCE8EE00E94BD00892BD6
:1032E000A9F76CE271E080E090E00E94800180919B
:1032F0000E018F5F843028F480930E010E94E50A4E
:10330000E5CF10930E01FACF30920D0120920C01FF
:103310000E94980C8FE00E94BD00892B09F437CEE3
:103320008EE00E94BD00892BA9F76CE271E080E07D
:1033300090E00E94800180910C0190910D018C59C8
:103340009F4F8938F3E19F07FCF690930D0180931E
:103350000C01DECF2AEDE22E26E0F22E80910E0146
:103360008017110609F00CF412CEC02E802F0E9497
:10337000220E8FE00E94BD00892BD1F08EE00E94CA
:10338000BD00892BB1F76CE271E080E090E00E9413
:103390008001F70180819181019691838083228150
:1033A00033812817390714F4118210828C2DDFCF56
:1033B0008FE00E94BD00892BD9F30F5F1F4FF4E00F
:1033C000EF0EF11CCBCFB0921001A0920F010E9422
:1033D000560B8FE00E94BD00892BC9F08EE00E9441
:1033E000BD00892BB1F76CE271E080E090E00E94B3
:1033F000800180910F019091100101968F3F9105FE
:1034000009F00CF79093100180930F01E0CF8FE04B
:103410000E94BD00892BD9F30E947E0360E080E00A
:103420000E9427048CE493E00E94BE0A8FE00E9471
:10343000BD00892B69F18AE097E00E949D068823F0
:10344000A9F38AE097E00E9440048823A1F08091CC
:103450000F01809336060E94110A882361F061E013
:1034600080E00E94270480E793E00E94BE0A84EF78
:1034700091E00E9477090E947E0360E080E00E9454
:1034800027048CE493E00E94BE0A0E948208CECFFB
:103490008FE00E94BD00892BD9F379CD0E943A0BB1
:1034A00011E08FE00E94BD00892BB9F08EE00E94F0
:1034B000BD00892BB1F76CE271E080E090E00E94E2
:1034C000800180911D06811105C010931D060E9488
:1034D0003A0BE7CF10921D06FACF8FE00E94BD0095
:1034E000892BD9F354CD90921601809215010E9438
:1034F000220B8FE00E94BD00892BC1F08EE00E945C
:10350000BD00892BB1F76CE271E080E090E00E9491
:103510008001809115019091160105968B3F9105D0
:1035200014F79093160180931501E1CF8FE00E946C
:10353000BD00892BD9F32BCD509218014092170171
:1035400098CE8FE00E94BD00892BD9F320CD8FE06B
:103550000E94BD00892BD9F31ACD823509F094C0A1
:1035600081E094E00E94AC0C0E947E0360E080E069
:103570000E9427048EE192E00E94BE0A61E080E092
:103580000E9427048BE194E00E94BE0A60ED77E080
:1035900080E090E00E9480010E947E0360E080E075
:1035A0000E9427048CE493E00E94BE0A0E948208D5
:1035B00081E08093FD058091FD05882309F479CD94
:1035C0008AE097E00E949D068823A9F38AE097E0AD
:1035D0000E944004882329F10E94C808882309F129
:1035E0008091FE05863419F08D7F8035C1F589E222
:1035F00094E00E94AC0C8091FE058235F9F41092A3
:10360000FD050E947E0360E080E00E9427048BE3BA
:1036100094E00E94BE0A68EE73E080E090E00E94B1
:1036200080010E947E0360E080E00E9427048CE419
:1036300093E00E94BE0A0E948208BDCF0E947E03D2
:1036400060E080E00E94270485E494E00E94BE0AC6
:1036500061E080E00E94270483E594E0DACF809166
:103660000F01809336060E94110A8823D1F261E08F
:1036700080E00E94270480E793E00E94BE0A84EF66
:1036800091E00E947709CDCF803509F041C08DE5EA
:1036900094E00E94AC0C80910D0690E09093100194
:1036A00080930F0182E60E944C0F0E947E0360E02F
:1036B00080E00E94270486E794E00E94BE0A61E051
:1036C00080E00E94270485E894E00E94BE0A68EE2C
:1036D00073E080E090E00E9480010E947E0360E041
:1036E00080E00E9427048EE894E00E94BE0A61E018
:1036F00080E00E94270480910F01909110010E94A8
:10370000910A68EE73E080E090E00E948001C3CCF3
:1037100080910D06882309F4EEC00EEF15E097E2C4
:10372000E92E96E0F92EF80141918F0150E070E00A
:1037300060E02AE08DE396E00E94450AF8013197A7
:103740008081F70181937F016016710661F7809196
:1037500036068150809336060E94110A811111C0ED
:103760000E947E0360E080E00E9427048AE994E0E2
:103770000E94BE0A61E080E00E94270487EA94E08C
:10378000A4C010910D060E94C8080E948A09892BC6
:1037900009F4A0C080910D06181709F486C064EFE3
:1037A00071E080E090E00E9480010E947E0360E072
:1037B00080E00E94270481EB94E00E94BE0A61E051
:1037C00080E00E9427044091360650E070E060E0FF
:1037D0002AE082EF96E00E94450A68EB7BE080E0F9
:1037E00090E00E9480010E947E0360E080E00E94E1
:1037F000270480EC94E00E94BE0A61E080E00E9411
:1038000027048CEC94E00E94BE0A87ED94E00E94AD
:10381000AC0C0E948A0918161906CCF580910E018D
:1038200090E02AED36E010E000E00817190764F593
:103830002C5F3F4FF901349740815181452B91F125
:10384000F801E55DFE4FF08061E08F2D0E94E600FB
:1038500060910C0170910D01072E000C880B990BE3
:103860000E94800160E08F2D0E94E600000F111F72
:10387000000F111FF801E652F94F808191810097E6
:1038800019F001979183808382E70E944C0F80E2B8
:1038900093E00E94770968EE73E080E090E00E9478
:1038A000800107CC0F5F1F4FC0CF0E947E0360E0F6
:1038B00080E00E9427048BE992E00E94BE0A61E04A
:1038C00080E00E94270485EE94E00E94BE0A0E94D8
:1038D0004109EFCB0E947E0360E080E00E94270454
:1038E0008BE992E00E94BE0A61E080E00E9427041A
:1038F00081EA92E0EACF0E947E0360E080E00E94CD
:10390000270488EF94E00E94BE0A61E080E00E94F4
:1039100027048EEF94E0D9CF0E947E0360E080E020
:103920000E9427048BE095E023CF813009F0C8CBBB
:103930000E948A09181619060CF004C180911B0612
:1039400090911C06892B09F0FDC00E9419098091F5
:103950001A06882309F4B4CB0E941D090E94B30102
:1039600060931606709317068093180690931906B5
:1039700010921506109214060E94B30100911606CB
:10398000109117062091180630911906AB01BC0161
:10399000401B510B620B730B809117019091180122
:1039A000092E000CAA0BBB0B481759076A077B07A7
:1039B00008F09EC080911A068823F1F20E947E03CF
:1039C00060E080E00E94270489E195E00E94BE0A41
:1039D00061E080E00E94270488E295E00E94BE0A30
:1039E00088EC90E00E94770964EF71E080E090E05D
:1039F0000E94800168EE73E080E090E00E94800108
:103A000010921A0680911A068111B6CF60911206A3
:103A100070911306072E000C880B990B0E94CA1E8A
:103A200020911A0730911B0740911C0750911D07E8
:103A30000E94051F0E9482208B01709311066093E3
:103A400010062091140630911506C901860F971FA4
:103A500090931506809314060E94B3016093160696
:103A60007093170680931806909319060931110573
:103A700009F4DFC00CF07AC00A30110509F4C7C0A0
:103A80000CF063C00530110509F497C020911406AD
:103A9000309115068091150190911601281739076C
:103AA0000CF4EBC068EE73E080E090E00E948001CF
:103AB0000E947E0360E080E00E9427048BEB91E08F
:103AC0000E94BE0A61E080E00E94270484ED95E038
:103AD0000E94BE0A68EE73E080E090E00E948001E0
:103AE000809115019091160190931506809314060C
:103AF0000E941D0980911406909115068931910547
:103B000009F405C10CF0C6C08A30910509F4F9C06A
:103B10000CF0B6C0059709F4D4C00E947E0360E0A3
:103B200080E00E9427048CED95E00E94BE0A60E0D0
:103B300080E00E9427048BEE95E00E94BE0A0E945E
:103B40004109C3C00E941D0902CF0F30110509F4BD
:103B500067C00431110509F099CF0E947E0360E02F
:103B600080E00E9427048BE695E02FC00832110503
:103B700009F471C08CF40E31110509F463C00332ED
:103B8000110509F083CF0E947E0360E080E00E946F
:103B9000270488E995E019C00D32110509F464C0C5
:103BA0000233110509F072CF0E947E0360E080E0CD
:103BB0000E94270485EC95E008C00E947E0360E027
:103BC00080E00E94270487E395E00E94BE0A61E03E
:103BD00080E00E94270485E495E00E94BE0A60917F
:103BE000140670911506CE0101960E947E0DBE014D
:103BF0006F5F7F4F82EF96E00E94C001CE01019679
:103C00000E941A0E10921306109212063FCF0E94C5
:103C10007E0360E080E00E9427048DE495E0D5CF2C
:103C20000E947E0360E080E00E9427048CE595E01E
:103C3000CCCF0E947E0360E080E00E9427048AE7E8
:103C400095E0C3CF0E947E0360E080E00E942704DD
:103C500089E895E0BACF0E947E0360E080E00E9490
:103C6000270487EA95E0B1CF0E947E0360E080E000
:103C70000E94270486EB95E0A8CF0E9419097CCE0C
:103C80008F30910509F440C0449709F046CF84E095
:103C900090E019C08832910509F43FC04CF48E3190
:103CA0009105C1F1839709F038CF87E090E00BC010
:103CB0008D329105A9F1C29709F02FCF8AE090E0EB
:103CC00002C081E090E00E94AA0F109211061092AB
:103CD00010061092150610921406109213061092F8
:103CE00012060E94190910921A0610921C061092D0
:103CF0001B06D092140181E0809313010E946A0B8D
:103D0000DFC982E090E0DFCF83E090E0DCCF85E0A8
:103D100090E0D9CF86E090E0D6CF88E090E0D3CF96
:103D200089E090E0D0CFBB274A3031F4992322F4C8
:103D3000BDE2909581959F4F0C949F1EBB27FB0180
:103D40005527AA27880F991FAA1FA41710F0A41B94
:103D500083955051B9F7A05DAA3308F0A95DA193EE
:103D6000009779F7B111B1931192CB010C94B81E61
:103D7000DC01FC01672F71917723E1F7329704C0D2
:103D80007C916D9370836291AE17BF07C8F308955D
:103D9000E89409C097FB3EF49095809570956195E5
:103DA0007F4F8F4F9F4F9923A9F0F92F96E9BB279B
:103DB0009395F695879577956795B795F111F8CF17
:103DC000FAF4BB0F11F460FF1BC06F5F7F4F8F4F82
:103DD0009F4F16C0882311F096E911C0772321F078
:103DE0009EE8872F762F05C0662371F096E8862F10
:103DF00070E060E02AF09A95660F771F881FDAF767
:103E0000880F9695879597F908950E94181F0C942E
:103E1000891F0E947B1F38F00E94821F20F095238B
:103E200011F00C94721F0C94781F11240C94BD1F78
:103E30000E949A1F70F3959FC1F3950F50E0551F94
:103E4000629FF001729FBB27F00DB11D639FAA27EF
:103E5000F00DB11DAA1F649F6627B00DA11D661F3E
:103E6000829F2227B00DA11D621F739FB00DA11D5F
:103E7000621F839FA00D611D221F749F3327A00D19
:103E8000611D231F849F600D211D822F762F6A2FB5
:103E900011249F5750409AF0F1F088234AF0EE0F1A
:103EA000FF1FBB1F661F771F881F91505040A9F747
:103EB0009E3F510580F00C94721F0C94BD1F5F3F14
:103EC000E4F3983ED4F3869577956795B795F79583
:103ED000E7959F5FC1F7FE2B880F911D96958795FB
:103EE00097F9089597F99F6780E870E060E008957A
:103EF0009FEF80EC089500240A9416161706180602
:103F00000906089500240A941216130614060506DD
:103F10000895092E0394000C11F4882352F0BB0F6E
:103F200040F4BF2B11F460FF04C06F5F7F4F8F4FD1
:103F30009F4F089557FD9058440F551F59F05F3F0C
:103F400071F04795880F97FB991F61F09F3F79F0BB
:103F500087950895121613061406551FF2CF46953D
:103F6000F1DF08C0161617061806991FF1CF8695BF
:103F70007105610508940895E894BB2766277727A3
:103F8000CB0197F90895F999FECF92BD81BDF89ABA
:103F9000992780B50895262FF999FECF1FBA92BDB3
:103FA00081BD20BD0FB6F894FA9AF99A0FBE01961A
:103FB00008952F923F924F925F926F927F928F92CD
:103FC0009F92AF92BF92CF92DF92EF92FF920F93A8
:103FD0001F93CF93DF93CDB7DEB7CA1BDB0B0FB6B2
:103FE000F894DEBF0FBECDBF09942A88398848886F
:103FF0005F846E847D848C849B84AA84B984C88405
:10400000DF80EE80FD800C811B81AA81B981CE0FFB
:10401000D11D0FB6F894DEBF0FBECDBFED010895E0
:104020000E9424200C94891F0E94821F58F00E9435
:104030007B1F40F029F45F3F29F00C94721F51114F
:104040000C94BD1F0C94781F0E949A1F68F399234B
:10405000B1F3552391F3951B550BBB27AA27621784
:104060007307840738F09F5F5F4F220F331F441F91
:10407000AA1FA9F335D00E2E3AF0E0E832D09150C5
:104080005040E695001CCAF72BD0FE2F29D0660FB2
:10409000771F881FBB1F261737074807AB07B0E8F5
:1040A00009F0BB0B802DBF01FF2793585F4F3AF0FB
:1040B0009E3F510578F00C94721F0C94BD1F5F3F1A
:1040C000E4F3983ED4F3869577956795B795F79581
:1040D0009F5FC9F7880F911D9695879597F9089569
:1040E000E1E0660F771F881FBB1F62177307840705
:1040F000BA0720F0621B730B840BBA0BEE1F88F714
:10410000E09508950E9489206894B1110C94BD1F18
:1041100008950E94A21F88F09F5798F0B92F992701
:10412000B751B0F0E1F0660F771F881F991F1AF0A2
:10413000BA95C9F714C0B13091F00E94BC1FB1E02C
:1041400008950C94BC1F672F782F8827B85F39F02B
:10415000B93FCCF3869577956795B395D9F73EF43B
:1041600090958095709561957F4F8F4F9F4F0895E3
:1041700097FB072E16F4009407D077FD09D00E9414
:10418000F42007FC05D03EF4909581959F4F08954B
:10419000709561957F4F0895A1E21A2EAA1BBB1B53
:1041A000FD010DC0AA1FBB1FEE1FFF1FA217B30703
:1041B000E407F50720F0A21BB30BE40BF50B661F19
:1041C000771F881F991F1A9469F7609570958095DD
:1041D00090959B01AC01BD01CF010895EE0FFF1F2B
:1041E0000590F491E02D0994AA1BBB1B51E107C077
:1041F000AA1FBB1FA617B70710F0A61BB70B881F77
:10420000991F5A95A9F780959095BC01CD01089505
:104210000F931F93CF93DF938230910510F482E0C8
:1042200090E0E0912007F091210730E020E0B0E03D
:10423000A0E0309799F42115310509F44AC0281BF4
:10424000390B24303105D8F58A819B8161157105C0
:1042500089F1FB0193838283FE0111C0408151816A
:104260000281138148175907E0F04817590799F45C
:10427000109761F012960C93129713961C93329636
:10428000CF01DF91CF911F910F91089500932007E7
:1042900010932107F4CF2115310551F04217530730
:1042A00038F0A901DB019A01BD01DF01F801C1CF9E
:1042B000EF01F9CF9093210780932007CDCFFE0126
:1042C000E20FF31F819391932250310939832883A0
:1042D000D7CF20911E0730911F07232B41F4209147
:1042E0001D0130911E0130931F0720931E0720915E
:1042F0001B0130911C012115310541F42DB73EB74A
:1043000040911F0150912001241B350BE0911E07A5
:10431000F0911F07E217F307A0F42E1B3F0B28179D
:10432000390778F0AC014E5F5F4F2417350748F02E
:104330004E0F5F1F50931F0740931E078193919369
:104340009FCFF0E0E0E09CCFCF93DF930097E9F0C0
:10435000FC01329713821282A0912007B0912107AD
:10436000ED0130E020E01097A1F420813181820F2F
:10437000931F20911E0730911F072817390709F056
:1043800061C0F0931F07E0931E07DF91CF9108955E
:10439000EA01CE17DF07E8F54A815B819E014115EE
:1043A0005105B1F7E901FB83EA8349915991C40FA3
:1043B000D51FEC17FD0761F4808191810296840F6F
:1043C000951FE90199838883828193819B838A83E6
:1043D000F0E0E0E012968D919C9113970097B9F56B
:1043E0002D913C911197CD010296820F931F209140
:1043F0001E0730911F072817390739F6309751F5F6
:104400001092210710922007B0931F07A0931E0758
:10441000BCCFD383C28340815181840F951FC817BD
:10442000D90761F44E5F5F4F88819981480F591F0A
:10443000518340838A819B81938382832115310537
:1044400009F0B0CFF0932107E09320079ECFFD0144
:10445000DC01C0CF13821282D7CFB0E0A0E0E3E34B
:10446000F2E20C94DB1F8C01009751F4CB010E9407
:1044700008218C01C801CDB7DEB7E0E10C94F71F2D
:10448000FC01E60FF71F9C0122503109E217F307E8
:1044900008F49DC0D901CD91DC911197C617D707BB
:1044A00098F0C530D10530F3CE01049786179707F1
:1044B00008F3C61BD70B2297C193D1936D937C93BE
:1044C000CF010E94A421D6CF5B01AC1ABD0A4C01DA
:1044D0008C0E9D1EA0912007B0912107512C412CDC
:1044E000F12CE12C109731F580911E0790911F0758
:1044F0008815990509F05CC04616570608F058C0A3
:1045000080911B0190911C01009741F48DB79EB7DB
:1045100040911F0150912001841B950BE817F9076A
:1045200008F055C0F0931F07E0931E07F90171834F
:104530006083A0CF8D919C91119712966C901297E9
:1045400013967C901397A815B90559F56C0142E0B4
:10455000C40ED11CCA14DB0420F1AC014A195B095A
:10456000DA011296159780F062827382518340833C
:10457000D9016D937C93E114F10471F0D701139686
:10458000FC93EE93129776CF22968C0F9D1FF90124
:1045900091838083F301EFCFF0932107E09320070D
:1045A00069CF4816590608F42C017D01D3019ACF32
:1045B000CB010E9408217C01009749F0AE01B801AF
:1045C0000E94EA22C8010E94A421870153CF10E073
:1045D00000E050CFFB01DC0102C001900D92415080
:1045E0005040D8F70895FB01DC0101900D920020A6
:1045F000E1F70895F894FFCFBF010000001C1209F5
:1046000009121C00DC05020A003000016E1400884B
:1046100013010000002207800001020304050601C7
:1046200002050A1312110A000000006E02CE01FBFF
:1046300001BB022C020A021E02000000003604CE5A
:10464000013D043C040000000000079D06400453A7
:1046500043414E20434152442048455245002020CA
:10466000494E534552542043415348004E30204F49
:10467000462053544F434B533A00456E74657220A5
:10468000546F74616C205261636B005365742050E9
:10469000756C736520466F720052532E353A2000B8
:1046A0002050756C7365002050756C7365730053F2
:1046B00065742043617368204C696D6974002052F1
:1046C0007570656573004D616368696E6520547926
:1046D000706500524649440043617368202F2043AF
:1046E0006F696E005061647320496E205261636B84
:1046F0000046696C6C20416C6C205261636B005405
:104700006F74616C205261636B73004D6F746F72D4
:104710002054696D65004261746368205772697442
:10472000650050756C73652053657474696E67001D
:104730004361736820576169742054696D65004D49
:104740006F746F722054696D6520286D7329000D98
:104750000A00205175616E7469747900456E746544
:1047600072206361706163697479006F66206F6E97
:1047700065205261636B3A0044697370656E7369BA
:104780006E672050616400436F6C6C656374204EEB
:104790006F7700536F727279004E6F2053746F639E
:1047A0006B7300467269737420426F6F7400506FB0
:1047B0007765726564204279004B414943484F2038
:1047C00047524F5550002D2D204B41574143482013
:1047D0002D2D005061642056656E64696E67005728
:1047E000656C636F6D65204261636B000A4D6163A8
:1047F00068696E652054797065203A20000A4D6121
:1048000078696D756D205261636B3A20000A5261C0
:10481000636B2043617061636974793A20000A50C8
:10482000616420416D6F756E743A20000A526163B5
:104830006B2000205175616E746974793A20004DC7
:104840006F6465005363616E204361726421006987
:104850006E7369646520004572726F722C204D651D
:104860006E75204361726400446F6E65004578691F
:1048700074696E672E2E2E0046696C6C20416C6C3C
:10488000005072657373204F6B61790053756363D9
:104890006573732E2E002053656300536176696E35
:1048A000672E2E2E00436172642044657465637424
:1048B00065642100506C6561736520576169742ED1
:1048C0002E2E2E2E0043617264204465746563743D
:1048D00065642061732046494C4C43415244004674
:1048E000696C6C696E6720416C6C005261636B206F
:1048F000566961204341524400436172642044651B
:104900007465637465642061732052454348434174
:104910005244004D6F646520566961204341524402
:104920000054686973206973204D656E752063615A
:1049300072640045786974696E672E2E0055736540
:104940002052454348204341524400746F2065780B
:1049500069742E2E0043617264204465746563742B
:1049600065642061732050414443415244005365C3
:10497000742050616420416D6F756E7400766961BA
:1049800020434152440050616420416D6F756E7444
:104990003A005772697465204661696C6564005419
:1049A000727920416761696E004C65667420666F9C
:1049B0007220436172643A005265636569766520CE
:1049C000506164005468616E6B20796F7521006DD1
:1049D0006F746F722072756E6E696E6700486F6CCF
:1049E00064206361726420666F72203153656300D6
:1049F0004F70707321005A65726F2042616C616E56
:104A00006365004572726F722052656164696E67FA
:104A100000526563656976696E672043617368005B
:104A2000506C6561736520776169742E2E2E00527B
:104A3000656365697665642052732E3500546F7422
:104A4000616C3A2000526563656976656420527333
:104A50002E31300052656365697665642052732E8D
:104A600031350052656365697665642052732E3274
:104A7000300052656365697665642052732E323565
:104A80000052656365697665642052732E33300089
:104A900052656365697665642052732E3335005222
:104AA000656365697665642052732E343000526503
:104AB0006365697665642052732E343500526563F0
:104AC00065697665642052732E35300052656163E6
:104AD00068656400496E76616C696420416D6F752C
:0C4AE0006E74004572726F72212100009C
:107E8000112424B614BE80E079D021FEEBC08EE030
:107E900075D0E0ECF0E0AFE7BFEF4899FECF9096E9
:107EA000489BFDCFB4831197F1F7B2E0B083B8E1FE
:107EB000B18352D0C82F823569F466D0E0E0FEE786
:107EC000A89583E093D091D0E058F109C8F787E7EF
:107ED0003CD0EFCF8D7FD9F44CD0D82FA0E0B1E0CB
:107EE0003BD08D93DA13FCCFA0E0B1E04DD0C111AF
:107EF0000CC0F2BDE1BD8D9180BDFA9AF99A319620
:107F0000F999FECFD150A9F7E2CF48D0E0CFC330E6
:107F100041F42FD0C82F38D0859117D0C150E1F748
:107F2000D6CFC13061F425D0C82F2ED0F2BDE1BD2F
:107F3000F89A80B50AD03196C150C1F7C8CFC13583
:107F400011F488E01BD020D0C2CF9091C00095FFE3
:107F5000FCCF8093C60008952D9A259A8091C00089
:107F600087FFFCCF84FD13C0A8958091C6002D9893
:107F70000895F2DFE82FF0DFF82FEECF98E190932D
:107F80006000809360000895E7DF803219F088E098
:107F9000F5DFFFCF80EAD9CFFB01DC01E07870E8A4
:107FA0007A0F9F01E0388EE7F80728F5309629F41C
:107FB0008FE38D938FEC8C93119790E045915D91B9
:107FC00045139160A713FACFF901A058B10990FFAA
:107FD00012C083E00BD081E00D901D9007D0329647
:107FE000A713FACFF90185E001D081E187BFE895B9
:107FF00017B610FCFDCF112408950319CDCFE7402B
:00000001FF
